:10000000020F99008F828E83E0540100000070F887
:100010002278FFE4F6D8FD021056EC4D6011E84955
:100020007017ED33EC3304600DE4FCFFFEFD22E9B4
:1000300033E8330470F80202E31202AE5804600998
:10004000E4CC248150062850090202ED2840030226
:1000500002EAC0E0EB4A7044B98006D0E0FB02023D
:10006000D9EF4E701CBD8008EBFFEAFEE9FD80EB86
:10007000E98DF0A4FEE5F0020103E9CDF9EAFEEB1B
:10008000FFEF89F0A4FCE5F0CE89F0A42EFFE43563
:10009000F0CD89F0A42DFEE435F08067EF4E7005B9
:1000A000BD80D780C3EF8BF0A4ACF0EE8BF0A42C16
:1000B000FCE435F0F8EF8AF0A42CE5F038FCE433EA
:1000C000CB8DF0A42CFCE5F03BF8EE8AF0A42CFCE0
:1000D000E5F038F8E433CF89F0A42CFCE5F038CF14
:1000E0003400CE89F0A42FFFE5F03EFEE433C98D45
:1000F000F0A42EFEE5F039CD8AF0A42FFFE5F03E06
:10010000FEE43DFD33D0E0FB50070BBB000F0202C5
:10011000EDEC2CFCEF33FFEE33FEED33FD0202C5B8
:100120000202EDEC5D046005E8590470030202E38D
:100130001202AE580460F6EC4860F2EC7004FDFE6A
:10014000FF22C860DB2481C85009C39860025006B2
:100150000202EA9850CAF582E9294B4A7005AB823F
:100160000202D975F0007C1A7880C3EF9BEE9AEDFD
:1001700099400DC3EF9BFFEE9AFEED99FDE842F02A
:10018000DC23ACF0D0E0FFD0E0FED0E0FDAB82207D
:10019000E7101BEB60BAEC2CFCEF33FFEE33FEED07
:1001A00033FD0202C5E803F830E705C0F075F00042
:1001B000EF2FFFEE33FEED33FD40B830E7C280AAEB
:1001C00074F8CC6480CCC86480C8F58204604FC3E6
:1001D000EB9FF5F0EA9E42F0E99D42F0E89C45F085
:1001E000603C501DE5825FFFE582D313CB5BCBF40F
:1001F0002B5582FB50280ABA002409B90020088038
:100200001DE5825BFBE582D313CF5FCFF4C3132FD1
:100210005582FF50090EBE00050DBD00010CC3EB59
:100220009FF5F0EA9E42F0E99D42F0E89C45F060BF
:1002300007CC4820E701B3EC2275F020800E75F062
:1002400010800575F0087D007E007F003392D53068
:10025000D50312050CEC334010EF33FFEE33FEED07
:1002600033FDEC33FCD5F0ED22E5F0247EA2D5136E
:10027000CC92E7CDCEFF22EDD2E7CD33EC3392D551
:1002800024814006E4FFFEFDFC22FCE4CFCECDCC71
:1002900024E0501174FF80EDC3CC13CCCD13CDCE30
:1002A00013CECF13CF0470F030D5DE02050CE9D2A7
:1002B000E7C933E833F892D5EDD2E7CD33EC33FC20
:1002C0005002B2D522EC30E7100FBF000C0EBE007A
:1002D000080DBD00040BEB6014A2D5EB13FCED92EE
:1002E000E7FD2274FFFCFDFEFF22E480F8A2D57436
:1002F000FF13FC7D80E480EFBB010689828A83E0E6
:10030000225002E722BBFE02E32289828A83E49321
:1003100022BB010689828A83F0225002F722BBFEAB
:1003200001F322BC000BBE0029EF8DF084FFADF07D
:1003300022E4CCF875F008EF2FFFEE33FEEC33FC2F
:10034000EE9DEC984005FCEE9DFE0FD5F0E9E4CE65
:10035000FD22EDF8F5F0EE8420D21CFEADF075F034
:1003600008EF2FFFED33FD4007985006D5F0F2223D
:10037000C398FD0FD5F0EA22C5F0F8A3E028F0C538
:10038000F0F8E582158270021583E038F022BB0197
:100390000A89828A83F0E5F0A3F0225006F709A7C4
:1003A000F01922BBFE06F3E5F009F31922EF2BFF4B
:1003B000EE3AFEED39FDEC38FC22C3EF9BFFEE9ADE
:1003C000FEED99FDEC98FC22E88FF0A4CC8BF0A414
:1003D0002CFCE98EF0A42CFC8AF0EDA42CFCEA8E17
:1003E000F0A4CDA8F08BF0A42DCC3825F0FDE98F3A
:1003F000F0A42CCD35F0FCEB8EF0A4FEA9F0EB8F31
:10040000F0A4CFC5F02ECD39FEE43CFCEAA42DCEFD
:1004100035F0FDE43CFC2275F008758200EF2FFFFB
:10042000EE33FECD33CDCC33CCC58233C5829BEDCC
:100430009AEC99E58298400CF582EE9BFEED9AFDD0
:10044000EC99FC0FD5F0D6E4CEFBE4CDFAE4CCF980
:10045000A88222B800C1B90059BA002DEC8BF084F3
:10046000CFCECDFCE5F0CBF97818EF2FFFEE33FEC1
:10047000ED33FDEC33FCEB33FB10D703994004EB79
:1004800099FB0FD8E5E4F9FA227818EF2FFFEE3345
:10049000FEED33FDEC33FCC933C910D7059BE99A57
:1004A0004007EC9BFCE99AF90FD8E0E4C9FAE4CCE8
:1004B000FB2275F010EF2FFFEE33FEED33FDCC3352
:1004C000CCC833C810D7079BEC9AE899400AED9B3B
:1004D000FDEC9AFCE899F80FD5F0DAE4CDFBE4CC1A
:1004E000FAE4C8F922EF5BFFEE5AFEED59FDEC5835
:1004F000FC22EF4BFFEE4AFEED49FDEC48FC22CF1B
:10050000F4CFCEF4CECDF4CDCCF4CC22C3E49FFF17
:10051000E49EFEE49DFDE49CFC22EB9FF5F0EA9E48
:1005200042F0E99D42F0E89C45F022E8600FECC300
:1005300013FCED13FDEE13FEEF13FFD8F122E8607C
:100540000FEFC333FFEE33FEED33FDEC33FCD8F198
:1005500022E0FCA3E0FDA3E0FEA3E0FF22E0F8A37D
:10056000E0F9A3E0FAA3E0FB22ECF0A3EDF0A3EEA8
:10057000F0A3EFF022A42582F582E5F03583F58320
:1005800022E0FBA3E0FAA3E0F922EBF0A3EAF0A358
:10059000E9F022D083D082F8E49370127401937052
:1005A0000DA3A393F8740193F5828883E473740216
:1005B000936860EFA3A3A380DFE5092582F582E5B8
:1005C000083583F583B508048582092210AF0685B6
:1005D0008209F50822858209F508D2AF22EC8EF057
:1005E000A4CCC5F0CCCDF8EFA4CEC5F02DFDE43CF5
:1005F000FCE8A42EC8C5F03DFDE43CFCEFA4FFE5FB
:10060000F028FEE43DFDE43CFC22E709F608DFFAB1
:100610008046E709F208DFFA803E88828C83E7098A
:10062000F0A3DFFA8032E309F608DFFA806EE3090F
:10063000F208DFFA806688828C83E309F0A3DFFA90
:10064000805A89828A83E0A3F608DFFA804E898285
:100650008A83E0A3F208DFFA804280D280FA80C663
:1006600080D4805580F28029801080A680EA809A0C
:1006700080A880DA80E280CA802988848C8589827B
:100680008A83E493A30586F0A30586DFF5DEF38075
:100690000B89828A83E493A3F608DFF9ECFAA9F0C8
:1006A000EDFB2288848C8589828A83E0A30586F00D
:1006B000A30586DFF6DEF480E389828A83E493A3D0
:1006C000F208DFF980D688F0EF60010E4E60CD8829
:1006D000F0ED2402B4040050C3F582EB2402B4040C
:1006E0000050B9232345822390065A73900048EFA7
:1006F000F0900049ECF0A3EDF090004BEAF0A3EB92
:10070000F090004EE0FFEFD3940050030208EB900E
:10071000004EE0FFEFD3940140030208EB90004845
:10072000E0FFEF1205930739010739040766070751
:10073000910807BC0A000007E790004DE0FFEFD3E7
:10074000940F40117B0C7A01791812281A90004FEF
:10075000EFF00207EC7B0C7A01791C12281A90004A
:100760004FEFF00207EC90004DE0FFEFD3940F4005
:10077000107B0C7A01791912281A90004FEFF08043
:100780006B7B0C7A01791D12281A90004FEFF080D4
:100790005B90004DE0FFEFD3940F40107B0C7A018B
:1007A000791A12281A90004FEFF080407B0C7A01E2
:1007B000791E12281A90004FEFF0803090004DE023
:1007C000FFEFD3940F40107B0C7A01791B12281A8B
:1007D00090004FEFF080157B0C7A01791F12281AD8
:1007E00090004FEFF0800590004FE4F090004FE054
:1007F000FFEF3395E0FEFDFC7B207A007900780066
:100800001203C8A804A905AA06AB07900049E0FE98
:10081000A3E0FFE4FCFD1203AD90005012056990C7
:100820000050120551AB07AA06A905A804A804A9FF
:1008300005AA06AB0790004BE0FEA3E0FFE4FCFD39
:100840001203C89000561205697B007A80790078FF
:1008500000900056120551120453900054EEF0A37C
:10086000EFF090004DE0FFEFC3940E50479000541E
:10087000E0FEA3E0FF90004DE0FDC3740E9DFDEF90
:10088000A805088005CEC313CE13D8F9FF900054F5
:10089000EEF0A3EFF090004DE0FFEF04FF90004E6C
:1008A000E0FEEE75F003A42466F582E43400F583DF
:1008B000EFF0801690004EE0FFEF75F003A4246681
:1008C000F582E43400F583740FF0900054E0FEA349
:1008D000E0FF90004EE0FDED75F003A42464F58286
:1008E000E43400F583EEF0A3EFF0227F001227102E
:1008F00022904E14E0FFEF5403FF90004CEFF09075
:10090000004CE0FFEFD39401400302099F904E1288
:10091000E0FFE4FCFDFE90004812056990004812DB
:100920000551EF5480FFEE5400FEED5400FDEC54F1
:1009300000FCEF4E601C900048120551EF4400FF90
:10094000EE44FFFEED4400FDEC4400FC9000481234
:100950000569900048120551780812053EA804A9BF
:1009600005AA06AB07904E11E0FFE4FCFDFE120461
:10097000F29000481205699000481205517808125B
:10098000053EA804A905AA06AB07904E10E0FFE4B7
:10099000FCFDFE1204F2900048120569020AA190C3
:1009A000004CE0FFEF64026003020A2B904E12E05D
:1009B000FFE4FCFDFE900048120569900048120516
:1009C00051EF5480FFEE5400FEED5400FDEC540056
:1009D000FCEF4E601C900048120551EF4400FFEE02
:1009E00044FFFEED4400FDEC4400FC90004812057D
:1009F000697B027A4E79101227C1E4FCFDC004C065
:100A000005C006C007900048120551781012053E37
:100A1000A804A905AA06AB07D007D006D005D004C4
:100A20001204F290004812056980767B027A4E79B2
:100A3000101227C1E4FCFD900048120569904E1287
:100A4000E0FF7E0090004DEEF0A3EFF090004DE04F
:100A5000FEA3E0FFEF30E71290004DE0FEA3E0FFC1
:100A60007EFF90004DEEF0A3EFF09000481205518C
:100A7000C004C005C006C00790004DE0FEA3E0FF23
:100A8000E4FCFD781012053EA804A905AA06AB07F0
:100A9000D007D006D005D0041204F2900048120509
:100AA00069900065E0FFEF600590006AE4F0900057
:100AB000481205512290480074F1F01210E5904858
:100AC0000074B1F07B007A4679E812281AEF4405E9
:100AD000FD7B007A4679E812282612148690588306
:100AE000740AF07B007A7679007D047C001226B5CA
:100AF0007B087A127988C003C002C0017B007A7635
:100B0000795090004D12058AD001D002D0037F04A5
:100B10007E001225747B017A50790312281AEF4463
:100B200002FD7B017A5079031228267B017A5079E5
:100B30001312281AEF4402FD7B017A507913122810
:100B4000269043A0E0FFEF4440FF9043A0EFF090D9
:100B500043C2E0FFEF4410FF9043C2EFF07B087AFE
:100B6000127958C003C002C0017B007A517902900B
:100B7000004D12058AD001D002D0037F087E0012FA
:100B800025747B087A127960C003C002C0017B0023
:100B90007A51792290004D12058AD001D002D003FB
:100BA0007F087E001225747B087A127968C003C022
:100BB00002C0017B007A51793290004D12058AD033
:100BC00001D002D0037F087E001225747B087A12C0
:100BD0007970C003C002C0017B007A517942900055
:100BE0004D12058AD001D002D0037F087E00122565
:100BF000747B087A127978C003C002C0017B007A46
:100C000051796090004D12058AD001D002D0037F47
:100C10000A7E001225749044F47401F0904322E09F
:100C2000FFEF4408FF904322EFF09046ECE0FFEF27
:100C3000C394055006904689743AF01223B37B00A2
:100C40007A4379A0C003C002C0017B007A4379B027
:100C500090004D12058AD001D002D0037F0E7E0095
:100C60001225749043B0E0FFEF54FDFFEFF02290A7
:100C70000049EEF0A3EFF090004BEDF01228469003
:100C8000004DEFF012283C90004EEEF0A3EFF090F4
:100C9000004EE0FEA3E0FF900049E0FCA3E0FDED84
:100CA0006F7002EC6E7003020E039043A2E0FFEF40
:100CB0005401FF90004CEFF090004DE0FFEF705EAC
:100CC00090004EE0FEA3E0FFEF4E600C900049E084
:100CD000FEA3E0FFEF4E704690004EE0FEA3E0FF63
:100CE000EF4E701D7B027A407980900049E0FCA3B2
:100CF000E0FD1227D0904082E0FFEF54BFFFEFF0FD
:100D000022904082E0FFEF4440FFEFF07B027A4008
:100D10007980900049E0FCA3E0FD1227D0229000EA
:100D20004CE0FFEF606C904001E4F09040107401E3
:100D3000F0904014E4F0904008E0FFEF547FFFEFA4
:100D4000F0904082E0FFEF5408FF7E00EF4E600C11
:100D5000900049E0FEA3E0FFEF4E70367B027A4040
:100D6000790290004EE0FCA3E0FD1227D0904001F4
:100D70007407F0904001E0FFEF5401FF7E00EF4E5A
:100D800070F19043A2E0FFEF54FEFFEFF0904001BE
:100D9000E4F09043A2E0FFEF5401FF7E00EF4E60CD
:100DA0003A7B027A407902900049E0FCA3E0FD1210
:100DB00027D090004BE0FFEF60047F0280027F00AD
:100DC000EF4401FF904001EFF0904001E0FFEF544D
:100DD00001FF7E00EF4E602B80EF227B027A40798C
:100DE00080900049E0FCA3E0FD1227D09043A2C010
:100DF00083C082E0FF90004CE0FEEF4EFFD082D037
:100E000083EFF022900049EEF0A3EFF090004BED5D
:100E1000F012285A90004DEFF012285090004EEE3C
:100E2000F0A3EFF090004EE0FEA3E0FF900049E059
:100E3000FCA3E0FDED6F7002EC6E7003020F989062
:100E400043A1E0FFEF5401FF90004CEFF090004D04
:100E5000E0FFEF705E90004EE0FEA3E0FFEF4E601B
:100E60000C900049E0FEA3E0FFEF4E704690004E6C
:100E7000E0FEA3E0FFEF4E701D7B027A4179009007
:100E80000049E0FCA3E0FD1227D0904102E0FFEF13
:100E900054BFFFEFF022904102E0FFEF4440FFEF2C
:100EA000F07B027A417900900049E0FCA3E0FD125A
:100EB00027D02290004CE0FFEF606C904001E4F0FE
:100EC0009040147401F0904010E4F0904008E0FF6E
:100ED000EF547FFFEFF0904102E0FFEF5408FF7EF8
:100EE00000EF4E600C900049E0FEA3E0FFEF4E7073
:100EF000367B027A40790290004EE0FCA3E0FD12BE
:100F000027D09040017407F0904001E0FFEF5401BA
:100F1000FF7E00EF4E70F19043A1E0FFEF54FEFF23
:100F2000EFF0904001E4F09043A1E0FFEF5401FFA7
:100F30007E00EF4E603A7B027A407902900049E0F1
:100F4000FCA3E0FD1227D090004BE0FFEF60047F90
:100F50000280027F00EF4401FF904001EFF09040DB
:100F600001E0FFEF5401FF7E00EF4E602B80EF2287
:100F70007B027A417900900049E0FCA3E0FD122752
:100F8000D09043A1C083C082E0FF90004CE0FEEF10
:100F90004EFFD082D083EFF02275930078007583E6
:100FA000467582E8E04401F0009046ECE0F9904696
:100FB000FAE0FAB903225420B40012B8001AEA90F9
:100FC0001FFFF07401901FFEF09046F6F0901FFE98
:100FD000E06005901FFFE0FA9048007440F07581D2
:100FE000099076BCE4F0A3F0A3F0A3F0907010F0A9
:100FF000907019F0907020F09076007410F0907658
:1010000004E4F0A3F0A3F0A3F09078007800087453
:1010100000F0A37408F0E8B8040274FFA3F0A3740E
:1010200022F0A374BCF0A37476F0A3E4F0A3E81458
:1010300075F008A4F0A3B804D59070107401F09076
:101040007014F07E707F18120004907010F0EA9017
:101050000078F002001175081F7509FD120AB5121B
:1010600022860210A0021A2EE493A3F8E493A34070
:1010700003F68001F208DFF48029E493A3F8540713
:10108000240CC8C333C4540F4420C8834004F4560E
:10109000800146F6DFE4800B010204081020408046
:1010A000901FC8E47E019360BCA3FF543F30E50964
:1010B000541FFEE493A360010ECF54C025E060A846
:1010C00040B8E493A3FAE493A3F8E493A3C8C582D9
:1010D000C8CAC583CAF0A3C8C582C8CAC583CADF47
:1010E000E9DEE780BE7B007A4079807D007C0012DB
:1010F00027CE9040827450F07B087A127984C00326
:10110000C002C0017B007A41790090004D12058A2F
:10111000D001D002D0037F047E00122574904300DA
:101120007402F09040007408F09042007403F07B69
:101130000C7A01790812281A9046A1EFF07B007A08
:101140004279227D217C021227CE7B007A427920CF
:101150007D517C121227CE900047E4F07F197E006B
:101160007D007C00900043120569900043120551F8
:10117000D3EF9400EE9400404E900047E0FFEF6400
:10118000036044904225E0FFEF5401FF7E00900091
:1011900047E0FEEE25E0FEEE4FFFEF5403FF900028
:1011A00047EFF07F787E007D007C001226009000E3
:1011B000431205517BFF7AFF79FF78FF1203AD9050
:1011C000004312056980A3900043120551EF4E7051
:1011D000057F0312274D7B007A4079047D007C0156
:1011E0001227CE9040047407F0904006E4F090403F
:1011F000087448F0904004E4F09040017402F090CC
:10120000400B7404F09043A2E0FFEF4401FF9043D1
:10121000A2EFF09043A1E0FFEF4401FF9043A1EF64
:10122000F09043A0E0FFEF4480FF9043A0EFF02256
:10123000905120E0FFEF5480FFEFF0905122E0FF4B
:10124000EF54F0FF90005EEFF090005EE0FFEF449F
:101250000FFF905122EFF0905123E0FFEF54F0FF89
:1012600090005EEFF090005EE0FF905123EFF09071
:101270005124E0FFEF54F0FF90005EEFF090005E2D
:10128000E0FF905124EFF0905120E0FFEF54DFFF9A
:10129000EFF0905120E0FFEF4440FFEFF07F007E41
:1012A000001225A8905120E0FFEF4410FFEFF07FDF
:1012B000017E001225A8905121E0FF90005EEFF022
:1012C000905120E0FFEF54EFFFEFF07F007E00121F
:1012D00025A890005EE0FFEF5408FF90005EEFF05D
:1012E000905120E0FFEF4410FFEFF07F017E0012ED
:1012F00025A8905120E0FFEF54EFFFEFF090005E43
:10130000E0FFEF7098905120E0FFEF54BFFFEFF047
:10131000905120E0FFEF5480FFEFF0905122E0FF6A
:10132000EF54F0FFEFF0905123E0FFEF54F0FF9007
:10133000005EEFF090005EE0FFEF440FFF9051235E
:10134000EFF0905124E0FFEF54F0FF90005EEFF0DB
:1013500090005EE0FFEF440FFF905124EFF02290E9
:101360000050E4F0A3E4F07B007A007D017F0412DA
:101370001F06900048EFF01222D3900049EFF09042
:101380000049E0FF900049E0FB90005074C5F07DFB
:10139000047C00121AE3900049E0FFC0077B017A49
:1013A000017900AF01AE02AD037C00EF54FFFFEE08
:1013B00054FFFEED5400FDEC5400FCAB07AA06D030
:1013C000077D107C4E121C25900048E0FF900049DC
:1013D000E0FD1224CC900048E0FF7D01121DC0907A
:1013E0000050E4F0A3E4F07B007A007D017F04125A
:1013F0001F6890004AEFF01222D390004BEFF0905C
:10140000004BE0FF90004BE0FB9000507402F07D39
:10141000407C00121AE390004BE0FFC0077B017A8A
:10142000017900AF01AE02AD037C00EF54FFFFEE87
:1014300054FFFEED5400FDEC5400FCAD07AC06C0BB
:1014400004C0057B017A027900AF01AE02AD037CD6
:1014500000EF54FFFFEE54FFFEED5400FDEC54008E
:10146000FCAB07AA06D005D004D007121C259000BB
:101470004AE0FF90004BE0FD1224CC90004AE0FFD0
:101480007D01121DC0227F007E007D007C00900047
:10149000881205699076007410F09070107401F055
:1014A000907019E4F07B027A7879007D107C02124A
:1014B00027D09078027401F090780374A3F07B0237
:1014C0007A787904C003C002C0017BFF7A2879963C
:1014D000AF01AE02AD037C00EF54FFFFEE54FFFE00
:1014E000ED5400FDEC5400FCAD07AC06D001D00279
:1014F000D0031227D07B027A7879067D087C781297
:1015000027D07B027A7679047D107C001227D07B6D
:10151000027A7679067D007C001227D090702974BB
:1015200009F0907039740DF09070697419F0907032
:1015300079741EF09070147401F0907018E0FFEF51
:101540005401FF7E00EF4E70F1907028E0FFEF54E1
:1015500001FF7E00EF4E70F1907038E0FFEF540114
:10156000FF7E00EF4E70F1907068E0FFEF5401FFD6
:101570007E00EF4E70F1907078E0FFEF5401FF7E37
:1015800000EF4E70F17B087A007900C003C002C002
:10159000017B017A51791090004D12058AD001D05B
:1015A00002D0037F067E0012257422900048EEF0E0
:1015B000A3EFF0900054E4F0900048E0FEA3E0FFB9
:1015C000C3EF940AEE94004045900048E0FEA3E08B
:1015D000FF7C007D0A120323AF05EF2430FF90004B
:1015E00054E0FE744F2EF582E43400F583EFF09062
:1015F0000048E0FEA3E0FF7C007D0A120323900078
:1016000048EEF0A3EFF0900054E004F080AA9000C0
:1016100048E0FEA3E0FF7C007D0A120323AF05EF44
:101620002430FF900054E0FE744F2EF582E4340025
:10163000F583EFF0900054E0FF900055EFF090003C
:1016400054E0FFEF603E900054E0FF744F2FF582AE
:10165000E43400F583E0FF900054E0FEEEFD7C00F2
:10166000900055E0FEEEFB7A00C3EB9DFDEA9CFC8A
:10167000744A2DF58274003CF583EFF0900054E03D
:1016800014F080BA90004FE0FF900055E0FE744ADD
:101690002EF582E43400F583EFF0900055E0FF74FE
:1016A0004B2FF582E43400F583E4F07B017A007976
:1016B0004A12223822122725900049EFF090005F4D
:1016C000E0FF900048EFF09043AAE0FFEF4401FFF5
:1016D000EFF09043AAE0FFEF4410FFEFF09043BA21
:1016E000E0FFEF4401FFEFF09043BAE0FFEF44105A
:1016F000FFEFF09046F8E0FFEF4402FFEFF0904676
:10170000F9E0FFEF4402FFEFF0905891E0FFEF4463
:1017100003FFEFF0900048E0FFEF640160259000C8
:1017200048E0FFEFB4020480028018900048E0FF18
:10173000EFB403048002800B900048E0FFEFB40494
:101740000D800B905892E0FFEF4408FFEFF07F030D
:101750007E001225A89046F8E0FFEF54FDFFEFF061
:101760009046F9E0FFEF54FDFFEFF0905877E0FF6F
:10177000EF4406FFEFF0905882747AF09043A1E0B6
:10178000FFEF4401FFEFF09043B1E0FFEF4401FFB2
:10179000EFF09043A2E0FFEF4401FFEFF09043B27F
:1017A000E0FFEF4401FFEFF09044DB7420F0904441
:1017B000C37420F0900049E0FF1226CE229000482A
:1017C000EFF0900065E4F0900048E0FFEF64016006
:1017D000030218AA904E00747EF0904E02E4F0903E
:1017E0004E03740AF0904E04747FF0904E05E4F0BE
:1017F000904E06747FF0904E0874B2F0904E0974CB
:1018000011F0904E0A7407F0904E147401F0905845
:10181000847450F09058857427F0905886742CF09A
:10182000905887E4F090588A7455F090588B745A09
:10183000F090588C7405F090588E7402F090588F88
:101840007412F09058907428F090589174EBF07FD7
:101850004C1221E59058947458F0905895E4F0900B
:10186000589A7405F090589B7401F090589CE4F0DD
:1018700090589D740AF07F0112269A9000657401B9
:10188000F07F007ED07D077C0090006B1205697DA3
:10189000017F027E00120C6F7D017F0A7E00120E16
:1018A000047C217D8E7F1D121CC42290005F740178
:1018B000F090006AE4F07F1012263B7F1012265C45
:1018C0007D077F1D1220279058967407F090589737
:1018D000E4F090589EE4F0905B07E0FFEF4418FFBF
:1018E000EFF0905893E4F0905B88E4F0905B89E42B
:1018F000F0905880740AF0905881E4F0905883E496
:10190000F0905888745BF0905889745EF090588D10
:10191000E4F0904E017414F090004D7414F09000B7
:101920004E7401F07B007A807DDA7C907F01120694
:10193000EC90005FE0FFEF75F003A42466F582E40D
:101940003400F583E0FF904E0EEFF090005FE0FF73
:10195000EF75F003A42464F582E43400F583E0FC21
:10196000A3E0FD7B027A4E790C1227D090005FE055
:10197000FF1217BD22900052EFF0900053EDF0904F
:101980000054EBF09000587401F0900052E0FFEF2B
:10199000C394184003021A28900054E0FFEF54014A
:1019A000FF7E00EF75F080A4FFAEF0900053E0FEE4
:1019B000EE547FFEEE4FFF900052E0FE75F008EE11
:1019C000907600120575EFF0900056E0FFEF540F8F
:1019D000FF7E00EF75F010A4FFAEF0900055E0FE22
:1019E000EE540FFEEE4FFF900052E0FE75F008EE51
:1019F000907601120575EFF0900057E0FFEF540F5D
:101A0000FF900052E0FE75F008EE90760212057528
:101A1000EFF0900052E0FF75F008EF9076031205AA
:101A200075E4F0900058E4F0900058E0FF22900038
:101A300043E4F01226E612267D122864904E14E04C
:101A4000FFEF4403FFEFF01228027F0112275F121D
:101A500026FB12135FD2AF9044F474FDF07F0112A5
:101A6000253E7BFF7A287932122238900043E0FF2E
:101A70007E001215AB7D007F011220E01208F1906C
:101A80000044120569900043E0FFEF25E025E024C3
:101A900000F582E43402F583120551122442EE333C
:101AA00095E0FDFC90004412056990004412055138
:101AB0001215AB7F647E007D007C00121EA01227F1
:101AC0003AEF709912273AEF60FA900043E004F081
:101AD000900043E0FFEF64107083900043E4F00255
:101AE0001A5D2290004CEFF090004DECF0A3EDF069
:101AF00090004FEBF09000517401F090004CE0FF2B
:101B0000EFC39480507A90004DE0FEA3E0FFEE54C6
:101B1000F0FE7F00EF4E706890004CE0FF7E08EF13
:101B20008EF0A4FFAEF0EF2400FFEE3478FE9000BC
:101B300052EEF0A3EFF0900052E0FEA3E0FFAA0601
:101B4000A9077B0190004DE0FCA3E0FD1227D09097
:101B5000004FE0FF90004CE0FE75F008EE90780238
:101B6000120575EFF0900050E0FF90004CE0FE751C
:101B7000F008EE907803120575EFF0900051E4F054
:101B8000900051E0FF22900052EFF0900053ECF0F3
:101B9000A3EDF0900055EAF0A3EBF090005774012C
:101BA000F0900052E0FFEFC394185073900052E0A1
:101BB000FF7E08EF8EF0A4FFAEF0EF2404FFEE34BA
:101BC00076FE900058EEF0A3EFF0900058E0FEA3F0
:101BD000E0FFAA06A9077B01900053E0FCA3E0FD0B
:101BE0001227D0900052E0FF7E08EF8EF0A4FFAEE7
:101BF000F0EF2406FFEE3476FE900058EEF0A3EFEF
:101C0000F0900058E0FEA3E0FFAA06A9077B019030
:101C10000055E0FCA3E0FD1227D0900057E4F090BF
:101C20000057E0FF2290004CEFF090004DECF0A345
:101C3000EDF090004FEAF0A3EBF09000517401F04A
:101C400090004CE0FFEFC39480507390004CE0FF95
:101C50007E08EF8EF0A4FFAEF0EF2404FFEE3478A0
:101C6000FE900052EEF0A3EFF0900052E0FEA3E0F1
:101C7000FFAA06A9077B0190004DE0FCA3E0FD123E
:101C800027D090004CE0FF7E08EF8EF0A4FFAEF06E
:101C9000EF2406FFEE3478FE900052EEF0A3EFF052
:101CA000900052E0FEA3E0FFAA06A9077B01900086
:101CB0004FE0FCA3E0FD1227D0900051E4F090002B
:101CC00051E0FF22900049EFF090004AECF0A3EDC4
:101CD000F0900049E0FFEFD3941F5003D38001C37D
:101CE00040057F00122710900049E0FFEF541FFFCE
:101CF0007E00EF25E0FFEE33FEEF2400FFEE3444DC
:101D0000FEAA06A9077B011227C190004CEEF0A3A2
:101D1000EFF0900049E0FF7E02EF8EF0A4FFAEF0FE
:101D2000EF2400FFEE3444FEAA06A9077B019000D1
:101D30004AE0FEA3E0FFAD07AC061227D090004CAE
:101D4000E0FEA3E0FF227F287E007D007C00121EC3
:101D5000A07F0312236A7F057E007D007C00121E97
:101D6000A07F0312236A7F0F7E007D007C00121E7D
:101D7000A07F0312236A7F017E007D007C00121E7B
:101D8000A07F0212236A7F057E007D007C00121E68
:101D9000A07F0612253E7F0E12253E7F2C12253E87
:101DA0007F0812253E7F0112253E7F0C12253E7FC3
:101DB0000312253E7F057E007D007C00121EA022BE
:101DC00090004CEFF090004DEDF090004E7401F05B
:101DD00090004CE0FFEFC39418505490004DE0FF8A
:101DE000EF601990004CE0FF75F010EF907010124A
:101DF0000575E0FFEF4420FFEFF0801790004CE006
:101E0000FF75F010EF907010120575E0FFEF54DFD2
:101E1000FFEFF090004CE0FF75F010EF90701012A3
:101E20000575E0FFEF4401FFEFF090004EE4F09005
:101E3000004EE0FF22900052EFF0900053EDF09042
:101E400000557401F0900052E0FFEFC39418504A1F
:101E5000900052E0FF75F010EF907010120575E0E1
:101E6000FFEF54F1FF900054EFF0900053E0FFEFCC
:101E70005407FF7E00EF25E0FFEE33FE900054E0B4
:101E8000FEEF4EFF900052E0FE75F010EE907010E5
:101E9000120575EFF0900055E4F0900055E0FF2238
:101EA00090FFFC1205B91205698508838509821225
:101EB0000551D3EF9400EE9480402F9000791205E5
:101EC00051122600850883850982C083C0821205CD
:101ED00051EF2400FFEE3480FEED34FFFDEC34FFC3
:101EE000FCD082D08312056980BF90006F1205512B
:101EF00085088385098212055D1203C812260090A9
:101F000000041205B92290004CEFF090004DEDF066
:101F100090004EEAF0A3EBF090008F740AF090006E
:101F20008FE0FF90004CE0FD90004DE0FB900055ED
:101F3000740AF0900056E4F0900057E4F01219751E
:101F400090008FE0FF90004EE0FCA3E0FD90005079
:101F5000E0FAA3E0FB121B8690008FE0FF7D0212E7
:101F60001E3590008FE0FF2290004CEFF090004D66
:101F7000EDF090004EEAF0A3EBF0900090E4F090CA
:101F80000090E0FF90004CE0FD90004DE0FB9000E1
:101F900055E4F0900056E4F0900057E4F012197503
:101FA000900090E0FF90004EE0FCA3E0FD90005018
:101FB000E0FAA3E0FB121B86900090E0FF7D021286
:101FC0001E35900090E0FF2241008D0041008C0002
:101FD00041008E0041006A00410065004100600040
:101FE0004100660041005F01410082804100817F25
:101FF00044007D0000040144007401F78A4044005D
:102000006F000080E84100732144007940740000B3
:1020100041008FFF410090FF410091FF430083008A
:1020200000004100920000900048EFF0900049ED60
:10203000F0900049E0FFEFD394075003D38001C331
:1020400040057F00122710900048E0FFEFD3941F57
:102050005003D38001C340057F0012271090004930
:10206000E0FFEF5407FF7E00EF75F020A4FFAEF015
:10207000900048E0FEEE541FFE74802EF582E4349A
:1020800044F583EFF022906474E0FFEF54C0FF90BA
:102090000048EFF0900048E0FFEF440BFF906474BD
:1020A000EFF0906494E0FFEF4401FFEFF07F311216
:1020B000276F7F3112277F7F1812278F7F0012270B
:1020C0009F122725900049EFF0906494E0FFEF44C1
:1020D00010FFEFF0900049E0FF1226CE1227DD221C
:1020E000900048EFF0900049EDF0900048E0FFEFDD
:1020F000120593210300211001211D02212A030052
:10210000002136900049E0FFEF2480FF12253E2297
:10211000900049E0FFEF24C0FF12253E22900049C5
:10212000E0FFEF2494FF12253E22900049E0FFEFEC
:1021300024D4FF12253E2290005DEFF01212309061
:102140005120E0FFEF4420FFEFF0905120E0FFEF3F
:1021500054BFFFEFF0905120E0FFEF54F0FFEFF09D
:10216000905120C083C082E0FF90005DE0FEEE440D
:1021700010FEEF4EFFD082D083EFF07F017E001281
:1021800025A8905120E0FFEF54EFFFEFF022C0E0D0
:10219000C0F0C083C082C085C084C086758600C080
:1021A00093759300C0D075D000C000C001C002C0BC
:1021B00003C004C005C006C00712280E90006A7450
:1021C00001F0D007D006D005D004D003D002D00152
:1021D000D000D0D0D093D086D084D085D082D08388
:1021E000D0F0D0E032900049EFF012272590004A5D
:1021F000EFF09046F8E0FFEF4403FFEFF09046F970
:10220000E0FFEF4403FFEFF0900049E0FF905892A9
:10221000EFF07F037E001225A89046F8E0FFEF5410
:10222000FCFFEFF09046F9E0FFEF54FCFFEFF09079
:10223000004AE0FF1226CE2290005612058A900036
:10224000597401F09000561205811202F8FF9000B7
:102250005AEFF090005AE0FFEF602A90005AE0FF3A
:10226000122508900056120581900059E0FFE92FD1
:10227000F9E43AFA1202F8FF90005AEFF090005990
:10228000E004F080CE22900081747FF09000827490
:1022900080F0900043747FF0900043E0FFEF6021F6
:1022A000900043E0FFEF14FF900043E0FE75F0085C
:1022B000EE907800120575EFF0900043E014F08086
:1022C000D7900043E0FF75F008EF90780012057595
:1022D000E4F02290004D74FFF012272590004CEF9F
:1022E000F0900082E0FFEFD394184026900081E048
:1022F000FF90004DEFF0900082E014F090004DE070
:10230000FF75F008EF907800120575E0FF900081EE
:10231000EFF090004CE0FF1226CE90004DE0FF223F
:1023200090004BEFF090004BE0FFEFC39402503968
:1023300090004BE0FFEF25E024A6F582E4342AF577
:1023400083E493FE740193FF8F828E83C083C082E7
:10235000E0FF90004BE0FEEE902AAA93FEEEF4FE22
:10236000EF5EFFD082D083EFF02290004CEFF09030
:102370005120E0FFEF549FFFEFF0905120E0FFEF7E
:1023800054F0FFEFF0905120C083C082E0FF900036
:102390004CE0FEEE4410FEEF4EFFD082D083EFF013
:1023A0007F017E001225A8905120E0FFEF54EFFF3F
:1023B000EFF0227B0C7A0179CF12281A900043EFBC
:1023C000F0900043E0FFEF5407FF90586EEFF0905D
:1023D0000043E0FFEFC4540FFFEF540FFF90586F1E
:1023E000EFF090510D74FFF090514D74FFF0905B41
:1023F0000074F0F09058767444F02290004AEFF0A8
:1024000090004AE0FFEFC39402503690004AE0FF8C
:10241000EF25E024A6F582E4342AF583E493FE74E4
:102420000193FF8F828E83C083C082E0FF90004AB9
:10243000E0FEEE902AAA93FEEF4EFFD082D083EF0B
:10244000F022900048120569900048120551900052
:102450006112055D1203BA9000481205697FE87E9B
:10246000037D007C0090004812055D1203C89000B7
:102470006B12055D12248890004CEEF0A3EFF090F3
:10248000004CE0FEA3E0FF22C2D5E830E70FB2D552
:10249000E4C39BFBE49AFAE499F9E498F8EC30E79A
:1024A00017B2D51224BE120453E4C39BFBE49AFA7C
:1024B000E499F9E498F8800312045330D50DE4C38D
:1024C0009FFFE49EFEE49DFDE49CFC2290004CEF07
:1024D000F090004DEDF090004E7401F090004CE053
:1024E000FFEFC39418501B90004DE0FF90004CE0AC
:1024F000FE75F010EE907019120575EFF090004E19
:10250000E4F090004EE0FF2290005BEFF0121230FA
:1025100090005BE0FFEFC4540FFF90005CEFF09081
:10252000005CE0FF12213790005BE0FFEF540FFFEB
:1025300090005CEFF090005CE0FF122137229000E9
:102540004AEFF012123090004AE0FFEFC4540FFF40
:1025500090004BEFF090004BE0FF12236A90004A8E
:10256000E0FFEF540FFF90004BEFF090004BE0FFC7
:1025700012236A22758600EF4E6027EF60010E7508
:10258000930090004DE0F595A3E0F585A3E0F58478
:102590008B938A838982E0A30586F0A31586DFF6F4
:1025A000DEF4E4F593F59522EEFA900073E0F88FEF
:1025B000F0A4FFAEF0E88AF0A42EFEE5F03400FDB2
:1025C000EF24C9FF78FFEE38FEED38FDE438FC500B
:1025D000030226002290004AE4F090004AE0FFEF58
:1025E000C39402501090004AE0FF12232090004A4A
:1025F000E004F080E590009174FFF0223232323234
:10260000EC4D4E700D78FCEF24E950032840FD227C
:1026100000007BF178DA0000EF28FF78FFEE38FE4B
:10262000ED38FDEC38FC50E7EF2BFFEE38FEED38CF
:10263000FDEC38FC40F22205020304900048EFF064
:10264000904082C083C082E0FF900048E0FEEE54DC
:10265000F8FEEF4EFFD082D083EFF022900048EFDB
:10266000F0904102C083C082E0FF900048E0FEEE9F
:1026700054F8FEEF4EFFD082D083EFF0229000603E
:10268000E0FFEF7011900066E0FFEF70031218ABEF
:102690009000607401F01216B522900049EFF0121C
:1026A00025D5900049E0FF1223FB900049E0FF9000
:1026B0000091EFF022EC4D6011ED60010C8B938ADC
:1026C000838982E4F0A3DDFCDCFA75930022EF54E9
:1026D000016004D2AF8002C2AFEF5402FF9044F415
:1026E000E054FD4FF02290008CE0FFEF7009121DC6
:1026F0004690008C7401F01227EA2290008EE0FFD1
:10270000EF700912208690008E7401F01227F622D5
:1027100090FFFF1205B9EFF09046EA7401F09000C7
:10272000011205B9229044F4E0F84402F0E85402A2
:10273000FF10AF012274014FFF22905161E0FFEFC3
:102740005402FF7E00EEC313FEEF13FF22900048F9
:10275000EFF0900048E0FF900048EFF080FE2290FC
:102760000048EFF0900048E0FF906473EFF0229093
:10277000004AEFF090004AE0FF906404EFF02290EE
:10278000004AEFF090004AE0FF906444EFF022909E
:10279000004AEFF090004AE0FF906424EFF02290AE
:1027A000004AEFF090004AE0FF906484EFF022903E
:1027B0006464E0FF90004AEFF090004AE0FF228B53
:1027C000938A838982E0FFA3E0FE759300228B93B6
:1027D0008A838982EDF0A3ECF0759300221227AF73
:1027E000EF30E40512286B80F4227F0C12253E9016
:1027F000008D7401F022906474E0FFEF4480FFEFDD
:10280000F022904E00E0FFEF4401FFEFF022904EE7
:1028100000E0FFEF54FEFFEFF0228B938A83898262
:10282000E0759300FF228B938A838982EDF0759384
:1028300000224368616E6E656C3A20007B027A402C
:1028400079801227C122904082E0FFEF5407FF22D7
:102850007B027A4179001227C122904102E0FFEF0A
:102860005407FF229044CB7420F022906454E0FF80
:102870002201000000000000000100000000000133
:102880000001000000080000000100000008000135
:1028900000010000000100082302287176080008EA
:1028A000230328797610000823042881762800085D
:1028B000230528897630000523062891702000051D
:1028C00023072891703000052308289170600005C7
:1028D00023FE289170700010220A00885110001009
:1028E000220B008851500010220C008851C00010AB
:1028F00022FE008851F00180220E0088060005802B
:10290000220F008808000200221000880E000180BB
:102910002211008814000180221200881600038012
:1029200022130088180000802214008842000080D2
:10293000221500884500008022160088470000808C
:10294000221700884C000080221800884D000010DB
:1029500022FE008850100007231A000852000007CA
:10296000231B001052180007231C001852200007D8
:10297000231D00205230002023FE032864700080B5
:10298000231F002800000080232000A80080008072
:102990002321012802000080232201A80280008058
:1029A0002323022804000080232402A804800010AE
:1029B0002325034850000080232603584D800080C3
:1029C000232703D84C8000802328045847800080A8
:1029D000232904D846000080232A05584680008019
:1029E000232B05D845800080232C06584400008006
:1029F000232D06D844800080232E07581B8000809A
:102A0000232F07D8158000802330085817800080B6
:102A1000233108D807800080233209580500008040
:102A2000233309D80580008023340A580D800080A4
:102A300023350AD80300008023360B58038000801A
:102A400023370BD80100008023380C580180008008
:102A500023390CD849000080233A0D584980008062
:102A6000233B0DD848000080233C0E58488000804E
:102A7000233D0ED843000080233E0F584380008042
:102A8000233F0FD84280008023401058410000802F
:102A9000234110D84180008023421158400000801B
:0C2AA00023FE11D840805B035B03402044
:00000001FF
