:10000000020DD5008F828E83E0540100000070F84D
:100010002278FFE4F6D8FD020E92EC4D6011E8491B
:100020007017ED33EC3304600DE4FCFFFEFD22E9B4
:1000300033E8330470F80202E31202AE5804600998
:10004000E4CC248150062850090202ED2840030226
:1000500002EAC0E0EB4A7044B98006D0E0FB02023D
:10006000D9EF4E701CBD8008EBFFEAFEE9FD80EB86
:10007000E98DF0A4FEE5F0020103E9CDF9EAFEEB1B
:10008000FFEF89F0A4FCE5F0CE89F0A42EFFE43563
:10009000F0CD89F0A42DFEE435F08067EF4E7005B9
:1000A000BD80D780C3EF8BF0A4ACF0EE8BF0A42C16
:1000B000FCE435F0F8EF8AF0A42CE5F038FCE433EA
:1000C000CB8DF0A42CFCE5F03BF8EE8AF0A42CFCE0
:1000D000E5F038F8E433CF89F0A42CFCE5F038CF14
:1000E0003400CE89F0A42FFFE5F03EFEE433C98D45
:1000F000F0A42EFEE5F039CD8AF0A42FFFE5F03E06
:10010000FEE43DFD33D0E0FB50070BBB000F0202C5
:10011000EDEC2CFCEF33FFEE33FEED33FD0202C5B8
:100120000202EDEC5D046005E8590470030202E38D
:100130001202AE580460F6EC4860F2EC7004FDFE6A
:10014000FF22C860DB2481C85009C39860025006B2
:100150000202EA9850CAF582E9294B4A7005AB823F
:100160000202D975F0007C1A7880C3EF9BEE9AEDFD
:1001700099400DC3EF9BFFEE9AFEED99FDE842F02A
:10018000DC23ACF0D0E0FFD0E0FED0E0FDAB82207D
:10019000E7101BEB60BAEC2CFCEF33FFEE33FEED07
:1001A00033FD0202C5E803F830E705C0F075F00042
:1001B000EF2FFFEE33FEED33FD40B830E7C280AAEB
:1001C00074F8CC6480CCC86480C8F58204604FC3E6
:1001D000EB9FF5F0EA9E42F0E99D42F0E89C45F085
:1001E000603C501DE5825FFFE582D313CB5BCBF40F
:1001F0002B5582FB50280ABA002409B90020088038
:100200001DE5825BFBE582D313CF5FCFF4C3132FD1
:100210005582FF50090EBE00050DBD00010CC3EB59
:100220009FF5F0EA9E42F0E99D42F0E89C45F060BF
:1002300007CC4820E701B3EC2275F020800E75F062
:1002400010800575F0087D007E007F003392D53068
:10025000D50312050CEC334010EF33FFEE33FEED07
:1002600033FDEC33FCD5F0ED22E5F0247EA2D5136E
:10027000CC92E7CDCEFF22EDD2E7CD33EC3392D551
:1002800024814006E4FFFEFDFC22FCE4CFCECDCC71
:1002900024E0501174FF80EDC3CC13CCCD13CDCE30
:1002A00013CECF13CF0470F030D5DE02050CE9D2A7
:1002B000E7C933E833F892D5EDD2E7CD33EC33FC20
:1002C0005002B2D522EC30E7100FBF000C0EBE007A
:1002D000080DBD00040BEB6014A2D5EB13FCED92EE
:1002E000E7FD2274FFFCFDFEFF22E480F8A2D57436
:1002F000FF13FC7D80E480EFBB010689828A83E0E6
:10030000225002E722BBFE02E32289828A83E49321
:1003100022BB010689828A83F0225002F722BBFEAB
:1003200001F322BC000BBE0029EF8DF084FFADF07D
:1003300022E4CCF875F008EF2FFFEE33FEEC33FC2F
:10034000EE9DEC984005FCEE9DFE0FD5F0E9E4CE65
:10035000FD22EDF8F5F0EE8420D21CFEADF075F034
:1003600008EF2FFFED33FD4007985006D5F0F2223D
:10037000C398FD0FD5F0EA22C5F0F8A3E028F0C538
:10038000F0F8E582158270021583E038F022BB0197
:100390000A89828A83F0E5F0A3F0225006F709A7C4
:1003A000F01922BBFE06F3E5F009F31922EF2BFF4B
:1003B000EE3AFEED39FDEC38FC22C3EF9BFFEE9ADE
:1003C000FEED99FDEC98FC22E88FF0A4CC8BF0A414
:1003D0002CFCE98EF0A42CFC8AF0EDA42CFCEA8E17
:1003E000F0A4CDA8F08BF0A42DCC3825F0FDE98F3A
:1003F000F0A42CCD35F0FCEB8EF0A4FEA9F0EB8F31
:10040000F0A4CFC5F02ECD39FEE43CFCEAA42DCEFD
:1004100035F0FDE43CFC2275F008758200EF2FFFFB
:10042000EE33FECD33CDCC33CCC58233C5829BEDCC
:100430009AEC99E58298400CF582EE9BFEED9AFDD0
:10044000EC99FC0FD5F0D6E4CEFBE4CDFAE4CCF980
:10045000A88222B800C1B90059BA002DEC8BF084F3
:10046000CFCECDFCE5F0CBF97818EF2FFFEE33FEC1
:10047000ED33FDEC33FCEB33FB10D703994004EB79
:1004800099FB0FD8E5E4F9FA227818EF2FFFEE3345
:10049000FEED33FDEC33FCC933C910D7059BE99A57
:1004A0004007EC9BFCE99AF90FD8E0E4C9FAE4CCE8
:1004B000FB2275F010EF2FFFEE33FEED33FDCC3352
:1004C000CCC833C810D7079BEC9AE899400AED9B3B
:1004D000FDEC9AFCE899F80FD5F0DAE4CDFBE4CC1A
:1004E000FAE4C8F922EF5BFFEE5AFEED59FDEC5835
:1004F000FC22EF4BFFEE4AFEED49FDEC48FC22CF1B
:10050000F4CFCEF4CECDF4CDCCF4CC22C3E49FFF17
:10051000E49EFEE49DFDE49CFC22EB9FF5F0EA9E48
:1005200042F0E99D42F0E89C45F022E8600FECC300
:1005300013FCED13FDEE13FEEF13FFD8F122E8607C
:100540000FEFC333FFEE33FEED33FDEC33FCD8F198
:1005500022E0FCA3E0FDA3E0FEA3E0FF22E0F8A37D
:10056000E0F9A3E0FAA3E0FB22ECF0A3EDF0A3EEA8
:10057000F0A3EFF022A42582F582E5F03583F58320
:1005800022E0FBA3E0FAA3E0F922EBF0A3EAF0A358
:10059000E9F022D083D082F8E49370127401937052
:1005A0000DA3A393F8740193F5828883E473740216
:1005B000936860EFA3A3A380DFE5092582F582E5B8
:1005C000083583F583B508048582092210AF0685B6
:1005D0008209F50822858209F508D2AF22EC8EF057
:1005E000A4CCC5F0CCCDF8EFA4CEC5F02DFDE43CF5
:1005F000FCE8A42EC8C5F03DFDE43CFCEFA4FFE5FB
:10060000F028FEE43DFDE43CFC22E709F608DFFAB1
:100610008046E709F208DFFA803E88828C83E7098A
:10062000F0A3DFFA8032E309F608DFFA806EE3090F
:10063000F208DFFA806688828C83E309F0A3DFFA90
:10064000805A89828A83E0A3F608DFFA804E898285
:100650008A83E0A3F208DFFA804280D280FA80C663
:1006600080D4805580F28029801080A680EA809A0C
:1006700080A880DA80E280CA802988848C8589827B
:100680008A83E493A30586F0A30586DFF5DEF38075
:100690000B89828A83E493A3F608DFF9ECFAA9F0C8
:1006A000EDFB2288848C8589828A83E0A30586F00D
:1006B000A30586DFF6DEF480E389828A83E493A3D0
:1006C000F208DFF980D688F0EF60010E4E60CD8829
:1006D000F0ED2402B4040050C3F582EB2402B4040C
:1006E0000050B9232345822390065A73900046EFA9
:1006F000F0900047ECF0A3EDF0900049EAF0A3EB96
:10070000F090004CE0FFEFD3940050030208EB9010
:10071000004CE0FFEFD3940140030208EB90004649
:10072000E0FFEF1205930739010739040766070751
:10073000910807BC0A000007E790004BE0FFEFD3E9
:10074000940F40117B0C7A01791812265D90004DB0
:10075000EFF00207EC7B0C7A01791C12265D900009
:100760004DEFF00207EC90004BE0FFEFD3940F4009
:10077000107B0C7A01791912265D90004DEFF08004
:100780006B7B0C7A01791D12265D90004DEFF08095
:100790005B90004BE0FFEFD3940F40107B0C7A018D
:1007A000791A12265D90004DEFF080407B0C7A01A3
:1007B000791E12265D90004DEFF0803090004BE0E6
:1007C000FFEFD3940F40107B0C7A01791B12265D4A
:1007D00090004DEFF080157B0C7A01791F12265D99
:1007E00090004DEFF0800590004DE4F090004DE05A
:1007F000FFEF3395E0FEFDFC7B207A007900780066
:100800001203C8A804A905AA06AB07900047E0FE9A
:10081000A3E0FFE4FCFD1203AD90004E12056990C9
:10082000004E120551AB07AA06A905A804A804A901
:1008300005AA06AB07900049E0FEA3E0FFE4FCFD3B
:100840001203C89000541205697B007A8079007801
:1008500000900054120551120453900052EEF0A380
:10086000EFF090004BE0FFEFC3940E504790005222
:10087000E0FEA3E0FF90004BE0FDC3740E9DFDEF92
:10088000A805088005CEC313CE13D8F9FF900052F7
:10089000EEF0A3EFF090004BE0FFEF04FF90004C70
:1008A000E0FEEE75F003A42464F582E43400F583E1
:1008B000EFF0801690004CE0FFEF75F003A4246485
:1008C000F582E43400F583740FF0900052E0FEA34B
:1008D000E0FF90004CE0FDED75F003A42462F5828A
:1008E000E43400F583EEF0A3EFF0227F00122565DB
:1008F0002290480074F1F0120F2190480074B1F07A
:100900007B007A4679E812265DEF4405FD7B007A8C
:100910004679E81226691212D9905883740AF07B3E
:10092000007A7679007D047C0012250A7B087A1211
:100930007988C003C002C0017B007A7679509000AC
:100940004D12058AD001D002D0037F047E0012230D
:10095000BA7B017A50790312265DEF4402FD7B01D8
:100960007A5079031226697B017A50791312265D39
:10097000EF4402FD7B017A5079131226699043A05F
:10098000E0FFEF4440FF9043A0EFF09043C2E0FF50
:10099000EF4410FF9043C2EFF07B087A127958C001
:1009A00003C002C0017B007A51790290004D12050C
:1009B0008AD001D002D0037F087E001223BA7B08C0
:1009C0007A127960C003C002C0017B007A5179229B
:1009D00090004D12058AD001D002D0037F087E001E
:1009E0001223BA7B087A127968C003C002C0017B67
:1009F000007A51793290004D12058AD001D002D090
:100A0000037F087E001223BA7B087A127970C00334
:100A1000C002C0017B007A51794290004D12058AD4
:100A2000D001D002D0037F087E001223BA7B087A5F
:100A3000127978C003C002C0017B007A51796090BE
:100A4000004D12058AD001D002D0037F0A7E001229
:100A500023BA9044F47401F0904322E0FFEF44087D
:100A6000FF904322EFF09046ECE0FFEFC394055077
:100A700006904689743AF01221F97B007A4379A0F6
:100A8000C003C002C0017B007A4379B090004D12D0
:100A9000058AD001D002D0037F0E7E001223BA90C7
:100AA00043B0E0FFEF54FDFFEFF022900047EEF07F
:100AB000A3EFF0900049EDF012268990004BEFF083
:100AC00012267F90004CEEF0A3EFF090004CE0FE79
:100AD000A3E0FF900047E0FCA3E0FDED6F7002ECA7
:100AE0006E7003020C3F9043A2E0FFEF5401FF90B1
:100AF000004AEFF090004BE0FFEF705E90004CE09A
:100B0000FEA3E0FFEF4E600C900047E0FEA3E0FF85
:100B1000EF4E704690004CE0FEA3E0FFEF4E701DDC
:100B20007B027A407980900047E0FCA3E0FD12262A
:100B300013904082E0FFEF54BFFFEFF0229040821D
:100B4000E0FFEF4440FFEFF07B027A4079809000B5
:100B500047E0FCA3E0FD1226132290004AE0FFEFDD
:100B6000606C904001E4F09040107401F0904014EB
:100B7000E4F0904008E0FFEF547FFFEFF0904082F8
:100B8000E0FFEF5408FF7E00EF4E600C900047E05E
:100B9000FEA3E0FFEF4E70367B027A4079029000B0
:100BA0004CE0FCA3E0FD1226139040017407F09086
:100BB0004001E0FFEF5401FF7E00EF4E70F19043E3
:100BC000A2E0FFEF54FEFFEFF0904001E4F090430D
:100BD000A2E0FFEF5401FF7E00EF4E603A7B027A05
:100BE000407902900047E0FCA3E0FD12261390003C
:100BF00049E0FFEF60047F0280027F00EF4401FFC5
:100C0000904001EFF0904001E0FFEF5401FF7E00C3
:100C1000EF4E602B80EF227B027A40798090004774
:100C2000E0FCA3E0FD1226139043A2C083C082E043
:100C3000FF90004AE0FEEF4EFFD082D083EFF0221B
:100C4000900047EEF0A3EFF0900049EDF012269DE2
:100C500090004BEFF012269390004CEEF0A3EFF0D3
:100C600090004CE0FEA3E0FF900047E0FCA3E0FD15
:100C7000ED6F7002EC6E7003020DD49043A1E0FFA3
:100C8000EF5401FF90004AEFF090004BE0FFEF704F
:100C90005E90004CE0FEA3E0FFEF4E600C9000473A
:100CA000E0FEA3E0FFEF4E704690004CE0FEA3E0B4
:100CB000FFEF4E701D7B027A417900900047E0FC07
:100CC000A3E0FD122613904102E0FFEF54BFFFEFB7
:100CD000F022904102E0FFEF4440FFEFF07B027A08
:100CE000417900900047E0FCA3E0FD12261322901A
:100CF000004AE0FFEF606C904001E4F09040147413
:100D000001F0904010E4F0904008E0FFEF547FFFC6
:100D1000EFF0904102E0FFEF5408FF7E00EF4E60DD
:100D20000C900047E0FEA3E0FFEF4E70367B027AA6
:100D300040790290004CE0FCA3E0FD1226139040A5
:100D4000017407F0904001E0FFEF5401FF7E00EFD7
:100D50004E70F19043A1E0FFEF54FEFFEFF09040A2
:100D600001E4F09043A1E0FFEF5401FF7E00EF4E5D
:100D7000603A7B027A407902900047E0FCA3E0FDF4
:100D8000122613900049E0FFEF60047F0280027F8B
:100D900000EF4401FF904001EFF0904001E0FFEFD1
:100DA0005401FF7E00EF4E602B80EF227B027A41E0
:100DB0007900900047E0FCA3E0FD1226139043A1C8
:100DC000C083C082E0FF90004AE0FEEF4EFFD08279
:100DD000D083EFF02275930078007583467582E822
:100DE000E04401F0009046ECE0F99046FAE0FAB9F0
:100DF00003225420B40012B8001AEA901FFFF074C6
:100E000001901FFEF09046F6F0901FFEE060059006
:100E10001FFFE0FA9048007440F07581099076BC9D
:100E2000E4F0A3F0A3F0A3F0907010F0907019F02C
:100E3000907020F09076007410F0907604E4F0A3A7
:100E4000F0A3F0A3F09078007800087400F0A37489
:100E500008F0E8B8040274FFA3F0A37422F0A374AE
:100E6000BCF0A37476F0A3E4F0A3E81475F008A432
:100E7000F0A3B804D59070107401F0907014F07E57
:100E8000707F18120004907010F0EA900076F00263
:100E9000001175081F7509FD1208F11220CC020E11
:100EA000DC021881E493A3F8E493A34003F68001E5
:100EB000F208DFF48029E493A3F85407240CC8C394
:100EC00033C4540F4420C8834004F456800146F6CE
:100ED000DFE4800B0102040810204080901E0EE425
:100EE0007E019360BCA3FF543F30E509541FFEE42C
:100EF00093A360010ECF54C025E060A840B8E493EE
:100F0000A3FAE493A3F8E493A3C8C582C8CAC5832F
:100F1000CAF0A3C8C582C8CAC583CADFE9DEE780B4
:100F2000BE7B007A4079807D007C001226119040C3
:100F3000827450F07B087A127984C003C002C00129
:100F40007B007A41790090004D12058AD001D002D1
:100F5000D0037F047E001223BA9043007402F09005
:100F600040007408F09042007403F07B0C7A017921
:100F70000812265D9046A1EFF07B007A4279227D2F
:100F8000217C021226117B007A4279207D517C124D
:100F9000122611900047E4F07F197E007D007C004E
:100FA000900043120569900043120551D3EF94005D
:100FB000EE9400404E900047E0FFEF6403604490E1
:100FC0004225E0FFEF5401FF7E00900047E0FEEE77
:100FD00025E0FEEE4FFFEF5403FF900047EFF07F58
:100FE000787E007D007C00122400900043120551A1
:100FF0007BFF7AFF79FF78FF1203AD900043120563
:101000006980A3900043120551EF4E70057F0312D3
:1010100023EE7B007A4079047D007C01122611903A
:1010200040047407F0904006E4F09040087448F0E3
:10103000904004E4F09040017402F090400B74047E
:10104000F09043A2E0FFEF4401FF9043A2EFF09045
:1010500043A1E0FFEF4401FF9043A1EFF09043A0D4
:10106000E0FFEF4480FF9043A0EFF02290004EE4B9
:10107000F0A3E4F07B007A007D017F04121D4C9008
:101080000046EFF0122119900047EFF0900047E082
:10109000FF900047E0FB90004E74C5F07D047C009B
:1010A000121929900047E0FF900047E0FB90004EA6
:1010B00074C5F07D047C00121929900047E0FFC040
:1010C000077B017A017900AF01AE02AD037C00EF2E
:1010D00054FFFFEE54FFFEED5400FDEC5400FCAB5A
:1010E00007AA06D0077D107C4E121A6B900046E0CE
:1010F000FF900047E0FD122312900046E0FF7D01C3
:10110000121C0690004EE4F0A3E4F07B007A007D10
:10111000017F04121DAE900048EFF01221199000DB
:1011200049EFF0900049E0FF900049E0FB90004E4D
:101130007402F07D407C00121929900049E0FFC044
:10114000077B017A017900AF01AE02AD037C00EFAD
:1011500054FFFFEE54FFFEED5400FDEC5400FCADD7
:1011600007AC06C004C0057B017A027900AF01AE6E
:1011700002AD037C00EF54FFFFEE54FFFEED540080
:10118000FDEC5400FCAB07AA06D005D004D0071232
:101190001A6B900048E0FF900049E0FD1223129086
:1011A0000048E0FF7D01121C0622905120E0FFEF75
:1011B0005480FFEFF0905122E0FFEF54F0FF9000D9
:1011C0005CEFF090005CE0FFEF440FFF905122EFE6
:1011D000F0905123E0FFEF54F0FF90005CEFF090AF
:1011E000005CE0FF905123EFF0905124E0FFEF54BA
:1011F000F0FF90005CEFF090005CE0FF905124EF76
:10120000F0905120E0FFEF54DFFFEFF0905120E02D
:10121000FFEF4440FFEFF07F007E0012243C90512E
:1012200020E0FFEF4410FFEFF07F017E0012243C2E
:10123000905121E0FF90005CEFF0905120E0FFEF33
:1012400054EFFFEFF07F007E0012243C90005CE042
:10125000FFEF5408FF90005CEFF0905120E0FFEFAB
:101260004410FFEFF07F017E0012243C905120E0FB
:10127000FFEF54EFFFEFF090005CE0FFEF7098900D
:101280005120E0FFEF54BFFFEFF0905120E0FFEF5F
:101290005480FFEFF0905122E0FFEF54F0FFEFF0A9
:1012A000905123E0FFEF54F0FF90005CEFF09000CE
:1012B0005CE0FFEF440FFF905123EFF0905124E0EA
:1012C000FFEF54F0FF90005CEFF090005CE0FFEF68
:1012D000440FFF905124EFF0227F007E007D007CC0
:1012E000009000861205699076007410F0907010DE
:1012F0007401F0907019E4F07B027A7879007D1027
:101300007C021226139078027401F090780374A383
:10131000F07B027A787904C003C002C0017BFF7AB7
:101320002679DCAF01AE02AD037C00EF54FFFFEE87
:1013300054FFFEED5400FDEC5400FCAD07AC06D0AC
:1013400001D002D0031226137B027A7879067D0839
:101350007C781226137B027A7679047D107C001249
:1013600026137B027A7679067D007C001226139084
:1013700070297409F0907039740DF09070697419C7
:10138000F0907079741EF09070147401F0907018E1
:10139000E0FFEF5401FF7E00EF4E70F1907028E007
:1013A000FFEF5401FF7E00EF4E70F1907038E0FFC8
:1013B000EF5401FF7E00EF4E70F1907068E0FFEF98
:1013C0005401FF7E00EF4E70F1907078E0FFEF5413
:1013D00001FF7E00EF4E70F17B087A007900C003B8
:1013E000C002C0017B017A51791090004D12058A2C
:1013F000D001D002D0037F067E001223BA229000D3
:1014000046EEF0A3EFF0900052E4F0900046E0FECC
:10141000A3E0FFC3EF940AEE94004045900046E03D
:10142000FEA3E0FF7C007D0A120323AF05EF24300A
:10143000FF900052E0FE744D2EF582E43400F583F7
:10144000EFF0900046E0FEA3E0FF7C007D0A12036F
:1014500023900046EEF0A3EFF0900052E004F080FD
:10146000AA900046E0FEA3E0FF7C007D0A12032361
:10147000AF05EF2430FF900052E0FE744D2EF58250
:10148000E43400F583EFF0900052E0FF900053EF5A
:10149000F0900052E0FFEF603E900052E0FF744D8C
:1014A0002FF582E43400F583E0FF900052E0FEEE79
:1014B000FD7C00900053E0FEEEFB7A00C3EB9DFD47
:1014C000EA9CFC74482DF58274003CF583EFF090A3
:1014D0000052E014F080BA90004DE0FF900053E01D
:1014E000FE74482EF582E43400F583EFF09000534B
:1014F000E0FF74492FF582E43400F583E4F07B01CA
:101500007A00794812207E2212257A900047EFF067
:1015100090005DE0FF900046EFF09043AAE0FFEFFF
:101520004401FFEFF09043AAE0FFEF4410FFEFF01B
:101530009043BAE0FFEF4401FFEFF09043BAE0FFC1
:10154000EF4410FFEFF09046F8E0FFEF4402FFEFAA
:10155000F09046F9E0FFEF4402FFEFF0905891E081
:10156000FFEF4403FFEFF0900046E0FFEF640160FF
:1015700025900046E0FFEFB402048002801890003E
:1015800046E0FFEFB403048002800B900046E0FFCA
:10159000EFB4040D800B905892E0FFEF4408FFEF8A
:1015A000F07F037E0012243C9046F8E0FFEF54FDEC
:1015B000FFEFF09046F9E0FFEF54FDFFEFF0905899
:1015C00077E0FFEF4406FFEFF0905882747AF090D6
:1015D00043A1E0FFEF4401FFEFF09043B1E0FFEFE4
:1015E0004401FFEFF09043A2E0FFEF4401FFEFF072
:1015F0009043B2E0FFEF4401FFEFF09044DB742032
:10160000F09044C37420F0900047E0FF122523229D
:10161000900046EFF0900063E4F0900046E0FFEFAA
:10162000640160030216FD904E00747EF0904E023D
:10163000E4F0904E03740AF0904E04747FF0904EE4
:1016400005E4F0904E06747FF0904E0874B2F0906E
:101650004E097411F0904E0A7407F0904E14740104
:10166000F09058847450F09058857427F090588604
:10167000742CF0905887E4F090588A7455F0905884
:101680008B745AF090588C7405F090588E7402F058
:1016900090588F7412F09058907428F0905891746C
:1016A000EBF07F4C12202B9058947458F090589582
:1016B000E4F090589A7405F090589B7401F090589B
:1016C0009CE4F090589D740AF07F011224EF900082
:1016D000637401F07F007ED07D077C00900069126A
:1016E00005697D017F027E00120AAB7D017F0A7EC3
:1016F00000120C407C1F7DD47F1D121B0A2290001B
:101700005D7401F0900068E4F07F101224907F1067
:101710001224B17D077F1D121E6D9058967407F03C
:10172000905897E4F090589EE4F0905B07E0FFEF4C
:101730004418FFEFF0905893E4F0905B88E4F09049
:101740005B89E4F0905880740AF0905881E4F0903E
:101750005883E4F0905888745BF0905889745EF078
:1017600090588DE4F0904E017414F090004B741476
:10177000F090004C7401F07B007A807DDA7C907FE1
:10178000011206EC90005DE0FFEF75F003A4246405
:10179000F582E43400F583E0FF904E0EEFF0900008
:1017A0005DE0FFEF75F003A42462F582E43400F5F8
:1017B00083E0FCA3E0FD7B027A4E790C12261390A5
:1017C000005DE0FF12161022900050EFF0900051E3
:1017D000EDF0900052EBF09000567401F090005044
:1017E000E0FFEFC39418400302187B900052E0FF23
:1017F000EF5401FF7E00EF75F080A4FFAEF0900083
:1018000051E0FEEE547FFEEE4FFF900050E0FE757B
:10181000F008EE907600120575EFF0900054E0FFAE
:10182000EF540FFF7E00EF75F010A4FFAEF09000B4
:1018300053E0FEEE540FFEEE4FFF900050E0FE75B9
:10184000F008EE907601120575EFF0900055E0FF7C
:10185000EF540FFF900050E0FE75F008EE90760216
:10186000120575EFF0900050E0FF75F008EF9076EC
:1018700003120575E4F0900056E4F0900056E0FF86
:1018800022900043E4F012253B1224D21226A790A6
:101890004E14E0FFEF4403FFEFF01226457F0112E4
:1018A00025A212255012106CD2AF9044F474FDF0B2
:1018B0007F011223847BFF7A26797512207E9000A7
:1018C00043E0FF7E001213FE7D007F01121F269071
:1018D0000043E0FFEF25E025E02400F582E4340238
:1018E000F583120551122288900044EEF0A3EFF028
:1018F000900044E0FEA3E0FF1213FE7F647E007DB3
:10190000007C00121CE612258FEF70A412258FEFC9
:1019100060FA900043E004F0900043E0FFEFB41061
:101920008F900043E4F080882290004AEFF090000E
:101930004BECF0A3EDF090004DEBF090004F7401F4
:10194000F090004AE0FFEFC39480507A90004BE0A3
:10195000FEA3E0FFEE54F0FE7F00EF4E70689000B3
:101960004AE0FF7E08EF8EF0A4FFAEF0EF2400FF08
:10197000EE3478FE900050EEF0A3EFF0900050E0CF
:10198000FEA3E0FFAA06A9077B0190004BE0FCA3A1
:10199000E0FD12261390004DE0FF90004AE0FE7536
:1019A000F008EE907802120575EFF090004EE0FF1F
:1019B00090004AE0FE75F008EE907803120575EF8E
:1019C000F090004FE4F090004FE0FF22900050EFC5
:1019D000F0900051ECF0A3EDF0900053EAF0A3EB8F
:1019E000F09000557401F0900050E0FFEFC39418A0
:1019F0005073900050E0FF7E08EF8EF0A4FFAEF031
:101A0000EF2404FFEE3476FE900056EEF0A3EFF0E4
:101A1000900056E0FEA3E0FFAA06A9077B01900014
:101A200051E0FCA3E0FD122613900050E0FF7E0879
:101A3000EF8EF0A4FFAEF0EF2406FFEE3476FE90BA
:101A40000056EEF0A3EFF0900056E0FEA3E0FFAAF0
:101A500006A9077B01900053E0FCA3E0FD122613CA
:101A6000900055E4F0900055E0FF2290004AEFF01E
:101A700090004BECF0A3EDF090004DEAF0A3EBF0FA
:101A800090004F7401F090004AE0FFEFC394805043
:101A90007390004AE0FF7E08EF8EF0A4FFAEF0EFF7
:101AA0002404FFEE3478FE900050EEF0A3EFF090A7
:101AB0000050E0FEA3E0FFAA06A9077B0190004BBF
:101AC000E0FCA3E0FD12261390004AE0FF7E08EF41
:101AD0008EF0A4FFAEF0EF2406FFEE3478FE900007
:101AE00050EEF0A3EFF0900050E0FEA3E0FFAA0656
:101AF000A9077B0190004DE0FCA3E0FD12261390A6
:101B0000004FE4F090004FE0FF22900047EFF0908C
:101B10000048ECF0A3EDF0900047E0FFEFD3941FF6
:101B20005003D38001C340057F0012256590004714
:101B3000E0FFEF541FFF7E00EF25E0FFEE33FEEFE6
:101B40002400FFEE3444FEAA06A9077B01122604F6
:101B500090004AEEF0A3EFF0900047E0FF7E02EF26
:101B60008EF0A4FFAEF0EF2400FFEE3444FEAA0690
:101B7000A9077B01900048E0FEA3E0FFAD07AC069B
:101B800012261390004AE0FEA3E0FF227F287E0089
:101B90007D007C00121CE67F031221B07F057E00D1
:101BA0007D007C00121CE67F031221B07F0F7E00B7
:101BB0007D007C00121CE67F031221B07F017E00B5
:101BC0007D007C00121CE67F021221B07F057E00A2
:101BD0007D007C00121CE67F061223847F0E1223F8
:101BE000847F2C1223847F081223847F0112238494
:101BF0007F0C1223847F031223847F057E007D00E7
:101C00007C00121CE62290004AEFF090004BEDF0B1
:101C100090004C7401F090004AE0FFEFC39418501C
:101C20005490004BE0FFEF601990004AE0FF75F020
:101C300010EF907010120575E0FFEF4420FFEFF0F9
:101C4000801790004AE0FF75F010EF9070101205B9
:101C500075E0FFEF54DFFFEFF090004AE0FF75F012
:101C600010EF907010120575E0FFEF4401FFEFF0E8
:101C700090004CE4F090004CE0FF22900050EFF018
:101C8000900051EDF09000537401F0900050E0FF8F
:101C9000EFC39418504A900050E0FF75F010EF9099
:101CA0007010120575E0FFEF54F1FF900052EFF055
:101CB000900051E0FFEF5407FF7E00EF25E0FFEEBC
:101CC00033FE900052E0FEEF4EFF900050E0FE75B4
:101CD000F010EE907010120575EFF0900053E4F0E4
:101CE000900053E0FF2290FFFC1205B912056985B0
:101CF0000883850982120551D3EF9400EE94804049
:101D00002F900077120551122400850883850982DF
:101D1000C083C082120551EF2400FFEE3480FEED37
:101D200034FFFDEC34FFFCD082D08312056980BF04
:101D300090006D12055185088385098212055D1298
:101D400003C81224009000041205B92290004AEF43
:101D5000F090004BEDF090004CEAF0A3EBF0900017
:101D60008D740AF090008DE0FF90004AE0FD900035
:101D70004BE0FB900053740AF0900054E4F09000A4
:101D800055E4F01217C890008DE0FF90004CE0FC85
:101D9000A3E0FD90004EE0FAA3E0FB1219CC900006
:101DA0008DE0FF7D02121C7B90008DE0FF229000F1
:101DB0004AEFF090004BEDF090004CEAF0A3EBF00E
:101DC00090008EE4F090008EE0FF90004AE0FD90DD
:101DD000004BE0FB900053E4F0900054E4F09000DE
:101DE00055E4F01217C890008EE0FF90004CE0FC24
:101DF000A3E0FD90004EE0FAA3E0FB1219CC9000A6
:101E00008EE0FF7D02121C7B90008EE0FF224100DD
:101E10008B0041008A0041008C00410068004100B5
:101E2000630041005E004100640041005D0141002B
:101E3000808041007F7F44007B00000401440072E9
:101E400001F78A4044006D000080E84100712144A0
:101E500000774074000041008DFF41008EFF41007B
:101E60008FFF430081000000410090000090004679
:101E7000EFF0900047EDF0900047E0FFEFD39407BC
:101E80005003D38001C340057F00122565900046B2
:101E9000E0FFEFD3941F5003D38001C340057F00C0
:101EA000122565900047E0FFEF5407FF7E00EF75B5
:101EB000F020A4FFAEF0900046E0FEEE541FFE744A
:101EC000802EF582E43444F583EFF022906474E0D0
:101ED000FFEF54C0FF900046EFF0900046E0FFEFA8
:101EE000440BFF906474EFF0906494E0FFEF4401C2
:101EF000FFEFF07F311225B27F311225C27F181219
:101F000025D27F001225E212257A900047EFF0904B
:101F10006494E0FFEF4410FFEFF0900047E0FF1201
:101F2000252312262022900046EFF0900047EDF086
:101F3000900046E0FFEF1205931F49001F56011F56
:101F400063021F700300001F7C900047E0FFEF2436
:101F500080FF12238422900047E0FFEF24C0FF128D
:101F6000238422900047E0FFEF2494FF1223842271
:101F7000900047E0FFEF24D4FF1223842290005BFF
:101F8000EFF01211AA905120E0FFEF4420FFEFF094
:101F9000905120E0FFEF54BFFFEFF0905120E0FFA1
:101FA000EF54F0FFEFF0905120C083C082E0FF902B
:101FB000005BE0FEEE4410FEEF4EFFD082D083EFD8
:101FC000F07F017E0012243C905120E0FFEF54EF9F
:101FD000FFEFF022C0E0C0F0C083C082C085C084A3
:101FE000C086758600C093759300C0D075D000C0C0
:101FF00000C001C002C003C004C005C006C0071273
:1020000026519000687401F0D007D006D005D004A6
:10201000D003D002D001D000D0D0D093D086D084CD
:10202000D085D082D083D0F0D0E032900047EFF05E
:1020300012257A900048EFF09046F8E0FFEF440355
:10204000FFEFF09046F9E0FFEF4403FFEFF0900060
:1020500047E0FF905892EFF07F037E0012243C90FF
:1020600046F8E0FFEF54FCFFEFF09046F9E0FFEF99
:1020700054FCFFEFF0900048E0FF1225232290006F
:102080005412058A9000577401F090005412058193
:102090001202F8FF900058EFF0900058E0FFEF6058
:1020A0002A900058E0FF12234E90005412058190B0
:1020B0000057E0FFE92FF9E43AFA1202F8FF900026
:1020C00058EFF0900057E004F080CE2290007F742B
:1020D0007FF09000807480F0900043747FF0900057
:1020E00043E0FFEF6021900043E0FFEF14FF90001A
:1020F00043E0FE75F008EE907800120575EFF09061
:102100000043E014F080D7900043E0FF75F008EF43
:10211000907800120575E4F02290004B74FFF012E5
:10212000257A90004AEFF0900080E0FFEFD39418FA
:10213000402690007FE0FF90004BEFF0900080E0A1
:1021400014F090004BE0FF75F008EF907800120556
:1021500075E0FF90007FEFF090004AE0FF1225232A
:1021600090004BE0FF22900049EFF0900049E0FF23
:10217000EFC394025039900049E0FFEF25E024ECD2
:10218000F582E43428F583E493FE740193FF8F8293
:102190008E83C083C082E0FF900049E0FEEE90286D
:1021A000F093FEEEF4FEEF5EFFD082D083EFF022DC
:1021B00090004AEFF0905120E0FFEF549FFFEFF0C6
:1021C000905120E0FFEF54F0FFEFF0905120C083DA
:1021D000C082E0FF90004AE0FEEE4410FEEF4EFFAA
:1021E000D082D083EFF07F017E0012243C905120FA
:1021F000E0FFEF54EFFFEFF0227B0C7A0179CF1272
:10220000265D900043EFF0900043E0FFEF5407FF9E
:1022100090586EEFF0900043E0FFEFC4540FFFEFD3
:10222000540FFF90586FEFF090510D74FFF09051E4
:102230004D74FFF0905B0074F0F09058767444F0A9
:1022400022900048EFF0900048E0FFEFC394025066
:1022500036900048E0FFEF25E024ECF582E43428D6
:10226000F583E493FE740193FF8F828E83C083C055
:1022700082E0FF900048E0FEEE9028F093FEEF4EE3
:10228000FFD082D083EFF0229000461205699000C3
:102290004612055190005F12055D1203BA90004688
:1022A0001205697FE87E037D007C009000461205E0
:1022B0005D1203C890006912055D1222CE90004A9B
:1022C000EEF0A3EFF090004AE0FEA3E0FF22C2D5BB
:1022D000E830E70FB2D5E4C39BFBE49AFAE499F93E
:1022E000E498F8EC30E717B2D5122304120453E453
:1022F000C39BFBE49AFAE499F9E498F8800312048A
:102300005330D50DE4C39FFFE49EFEE49DFDE49CA5
:10231000FC2290004AEFF090004BEDF090004C74DE
:1023200001F090004AE0FFEFC39418501B90004B5F
:10233000E0FF90004AE0FE75F010EE907019120573
:1023400075EFF090004CE4F090004CE0FF2290001C
:1023500059EFF01211AA900059E0FFEFC4540FFF9B
:1023600090005AEFF090005AE0FF121F7D90005944
:10237000E0FFEF540FFF90005AEFF090005AE0FF9B
:10238000121F7D22900048EFF01211AA900048E041
:10239000FFEFC4540FFF900049EFF0900049E0FFB9
:1023A0001221B0900048E0FFEF540FFF900049EF7A
:1023B000F0900049E0FF1221B022758600EF4E60D8
:1023C00027EF60010E75930090004DE0F595A3E0B6
:1023D000F585A3E0F5848B938A838982E0A3058643
:1023E000F0A31586DFF6DEF4E4F593F59522900070
:1023F00048EFF0900048E0FF900048EFF080FE22A8
:10240000EC4D4E700D78FCEF24E950032840FD227E
:1024100000007BF178DA0000EF28FF78FFEE38FE4D
:10242000ED38FDEC38FC50E7EF2BFFEE38FEED38D1
:10243000FDEC38FC40F2220502030432EEFA900073
:1024400071E0F88FF0A4FFAEF0E88AF0A42EFEE56C
:10245000F03400FDEF24C9FF78FFEE38FEED38FDC3
:10246000E438FC500302240022900048E4F090007D
:1024700048E0FFEFC394025010900048E0FF1221A3
:1024800066900048E004F080E590008F74FFF02231
:10249000900046EFF0904082C083C082E0FF900041
:1024A00046E0FEEE54F8FEEF4EFFD082D083EFF010
:1024B00022900046EFF0904102C083C082E0FF907E
:1024C0000046E0FEEE54F8FEEF4EFFD082D083EFE0
:1024D000F02290005EE0FFEF7011900064E0FFEFEB
:1024E00070031216FE90005E7401F012150822901F
:1024F0000047EFF0122469900047E0FF122241905C
:102500000047E0FF90008FEFF022EC4D6011ED608E
:10251000010C8B938A838982E4F0A3DDFCDCFA75DD
:10252000930022EF54016004D2AF8002C2AFEF5497
:1025300002FF9044F4E054FD4FF02290008AE0FF47
:10254000EF7009121B8C90008A7401F012262D2264
:1025500090008CE0FFEF7009121ECC90008C74018B
:10256000F01226392290FFFF1205B9EFF09046EAEB
:102570007401F09000011205B9229044F4E0F8448F
:1025800002F0E85402FF10AF012274014FFF2290C5
:102590005161E0FFEF5402FF7E00EEC313FEEF1324
:1025A000FF22900046EFF0900046E0FF906473EF4A
:1025B000F022900048EFF0900048E0FF906404EFB4
:1025C000F022900048EFF0900048E0FF906444EF64
:1025D000F022900048EFF0900048E0FF906424EF74
:1025E000F022900048EFF0900048E0FF906484EF04
:1025F000F022906464E0FF900048EFF0900048E023
:10260000FF228B938A838982E0FFA3E0FE7593000B
:10261000228B938A838982EDF0A3ECF075930022DC
:102620001225F2EF30E4051226AE80F4227F0C1260
:10263000238490008B7401F022906474E0FFEF44D7
:1026400080FFEFF022904E00E0FFEF4401FFEFF03B
:1026500022904E00E0FFEF54FEFFEFF0228B938AB2
:10266000838982E0759300FF228B938A838982EDB0
:10267000F0759300224368616E6E656C3A20007BB2
:10268000027A40798012260422904082E0FFEF54C3
:1026900007FF227B027A4179001226042290410230
:1026A000E0FFEF5407FF229044CB7420F0229064A7
:1026B00054E0FF223232320100000000000000012D
:1026C00000000000000100010000000800000001FF
:1026D00000000008000100010000000100082302C2
:1026E00026B776080008230326BF761000082304C7
:1026F00026C776280008230526CF76300005230656
:1027000026D770200005230726D770300005230840
:1027100026D77060000523FE26D770700010220AAD
:10272000008651100010220B008651500010220C20
:10273000008651C0001022FE008651F00180220E5A
:10274000008606000580220F008608000200221085
:1027500000860E00018022110086140001802212E2
:1027600000861600038022130086180000802214C1
:102770000086420000802215008645000080221657
:10278000008647000080221700864C000080221837
:1027900000864D00001022FE008650100007231A0C
:1027A000000852000007231B001052180007231CCA
:1027B000001852200007231D00205230002023FE65
:1027C000032864700080231F00280000008023205D
:1027D00000A800800080232101280200008023221D
:1027E00001A8028000802323022804000080232403
:1027F00002A80480001023250348500000802326EF
:1028000003584D800080232703D84C800080232864
:10281000045847800080232904D846000080232ADA
:10282000055846800080232B05D845800080232C46
:10283000065844000080232D06D844800080232EB3
:1028400007581B800080232F07D815800080233075
:10285000085817800080233108D807800080233271
:10286000095805000080233309D8058000802334EF
:102870000A580D80008023350AD8030000802336D3
:102880000B580380008023370BD8010000802338C9
:102890000C580180008023390CD849000080233A6D
:1028A0000D5849800080233B0DD848000080233C10
:1028B0000E5848800080233D0ED843000080233E00
:1028C0000F5843800080233F0FD842800080234070
:1028D000105841000080234110D8418000802342DD
:1028E00011584000008023FE11D840805B035B0339
:0228F000402086
:00000001FF
