:4000000000800020110000006D0400006D04000080B500AF024B034A12681A6000F02AFABC760040FA46004008000223000008760800032300001076080004230000287689
:4000400008000523000030760500062300002070050007230000307005000823000060700500FE230000707010000A220000105130000B220000405110000C220000C0513D
:400080001000FE220000F05180090E220000000080000F220000000A800410220000800B80011122000000148005122200000016800013220000004580001422000000478C
:4000C000800015220000004C800016220000004D2000FE22000000500700FE2300001852800019230000800A80001A230000804D80001B230000804C80001C2300008047F6
:4001000080001D230000004680001E230000804680001F230000804580002023000000448000212300008044800022230000801B8000232300008015800024230000800911
:40014000800025230000000B800026230000004980002723000080498000282300000048800029230000804880002A230000004380002B230000804380002C2300000042AE
:4001800080002D230000804280002E230000004180002F230000804180003023000000408000FE23000080400100000001000000010000000048014001000000004800407F
:4001C0000100000000200140010000000020004010B5054C237833B9044B13B10448AFF300800123237010BD3081FF1F00000000AC23000008B5064B1BB106480649AFF3E3
:4002000000800648036813B1054B03B1984708BD00000000AC2300003481FF1F0881FF1F0000000080B582B000AF00F085FC01F005F801F02DFB194B184A1278D2B242F03C
:400240000302D2B21A7001F011F80F20002101F095FFFF20022101F045FF0020022101F041FF0120022101F03DFF01F02BFF00F019F862B6012000F0DBFC0020002100F0F3
:400280006BFC074B1B68184601F000F80346FB80FB88184600F0FCFDECE700BF144E00406C81FF1F80B586B000AF042001214FF4804241F6FF7300F057FE0346FB7501F0F1
:4002C00031FD03463B743A7C3B7C104604211A46012301F055FD3B7C184644F610614CF2A07201F085FD3B7CFA7D1046194601F0B3FCFB7D1846012101F0FCFB04200121FD
:4003000041F6FF7241F6FF7301F082F90346BB7501F008FD03463B733A7B3B7B10464FF480611A46022301F02BFD397B4B4B9AB24B4B9BB2084611461A4601F059FD3B7B9C
:40034000BA7D1046194601F087FCBB7D1846012101F0D0FB042001214FF480424FF4804301F0BCFF03467B7501F0DCFC03463B723A7A3B7A104604211A46052301F000FD5A
:400380003A7A364B9BB2104644F610611A4601F02FFD3B7A7A7D1046194601F05DFC7B7D1846012101F0A6FB042001214FF4804241F6FF7301F032FF03463B7501F0B2FCDA
:4003C00003463B713A793B7910464FF480611A46062301F0D5FC3A79224B9BB210464CF2A8711A4601F004FD3B793A7D1046194601F032FC3B7D1846012101F07BFB04206E
:40040000002141F6FF7241F6FF7301F037FF0346FB7401F087FC03463B733A783B7810464FF480611A46032301F0AAFC39780D4B9AB20D4B9BB2084611461A4601F0D8FC40
:400440003B78FA7C1046194601F006FCFB7C1846012101F04FFB1837BD4680BD6C81FF1F7081FF1F6881FF1F7085FF1F80B400AFFEE700BF80B586B000AF214B7B61214B61
:400480003B611F4B7B611F4B3B612FE03B691B68FB603B695B68BB603B699B683B6000237B600AE0BB681A1DBA60FA68111DF96012681A607B6804337B607A683B689A4270
:4004C000F0D13B69DB683B6000237B6007E0BB681A1DBA6000221A607B6804337B607A683B689A42F3D13B6910333B617B695A1E7A61002BCAD101F021FFFFF793FEFEE7AD
:4005000001000000E02A000080B582B000AF184B184A1A60184B184A126842F400721A6000237B600FE07B68032B04D8134B7A6853F8223000E0124B124A796842F821303E
:400540007B6801337B607B682F2BECD90E4B1B78DAB20E4B1A700E4B0A4A1A6000F00CFA01F09AFA0B4B00221A600837BD4680BD0CED00E00004FA0514ED00E0000000005C
:400580006D0400000080FF1FBC7600400481FF1F08ED00E00081FF1F80B582B000AF78603960786800213A6801F0F7FE0837BD4680BD00BF80B584B000AFF860B9607A60F2
:4005C000F868B9687A6801F0DFFE1037BD4680BD80B483B000AF0346FB71FEE780B582B000AF444B00221A60434B10221A70434B01221A70424B00221A70424B4FF4C07292
:400600001A80414B01221A70404B03221A70404B404A92B21A80404B47F608021A803F4B00221A803E4B4FF480421A803D4B09221A703D4B0D221A703C4B17221A703C4B91
:4006400018221A70BFF35F8F3A4B01221A70BFF35F8F00BF2B4B1B889BB2002BFAD100237B600CE07B68DA00334B1344334A796852F8212092B21A807B6801337B607B6811
:400680002F2BEFD9BFF35F8F2A4B01221A70BFF35F8F00BF2A4B1B78DBB203F00103002BF8D100BF274B1B78DBB203F00103002BF8D100BF244B1B78DBB203F00103002BCB
:4006C000F8D100BF214B1B78DBB203F00103002BF8D100BF1E4B1B78DBB203F00103002BF8D11C484FF090410622FFF763FF0837BD4680BD5081FF1F0076004010700040F0
:4007000019700040007800400278004003780040047800402800000006780040047600400676004029700040397000406970004079700040147000400C780040BC23000040
:4007400018700040287000403870004068700040787000401051014080B582B000AF3C4B00221A803B4B50221A703B483B490422FFF720FF3A4B02221A704FF040230822F3
:400780001A70384B03221A70374B384A1278D2B21A70374B40F221221A80364B41F251221A800023FB7019237B6013E0FB785B00DAB2314B1B78DBB203F00103DBB2134327
:4007C000DBB203F00303FB70782001F051F97B68013B7B607B68002B02D0FB78032BE5D17B68002B02D10320FFF7F2FE234B4FF480721A80214B07221A70214B00221A70A6
:40080000204B48221A701D4B00221A701E4B02221A701E4B04221A701D4B1D4A1278D2B242F00102D2B21A701A4B1A4A1278D2B242F00102D2B21A70174B174A1278D2B20A
:4008400062F07F02D2B21A700837BD4680BD00BF804000408240004000410040A80C00480043004000420040A14600400801004922420040204200402542004004400040EB
:400880000640004008400040014000400B400040A2430040A1430040A043004080B483B000AF0E4B1B78FB710D4BFA7902F00702D2B21A700B4BFA791209D2B21A700A4B29
:4008C00001221A70094B10221A70094B44221A700C37BD465DF8047B704700BFCF0100496E5800406F5800400D510040005B00407658004080B483B000AF0346FB71FB79BB
:40090000012B0ED8FA79094B53F82230F979074A52F821201178FA790548825C0A43D2B21A700C37BD465DF8047B7047B0230000B823000080B483B000AF0346FB71FB79B3
:40094000012B10D8FA790A4B53F82230F979084A52F821201178FA790648825CD243D2B20A40D2B21A700C37BD465DF8047B7047B0230000B823000080B500AF72B6364B8A
:4009800001221A70FFF7E8FE334B81221A70334B324A1278D2B242F00402D2B21A70FFF71DFE2F4B0A221A702E480421FFF7F4FD2D482E490422FFF7FDFD2D480421FFF760
:4009C000EBFD2C480421FFF7E7FD2B482B490422FFF7F0FD2A4B2A4A1278D2B242F00202D2B21A70274B274A1278D2B242F00202D2B21A70244B244A1278D2B242F04002DD
:400A0000D2B21A70214B214A1278D2B242F01002D2B21A701E481F490822FFF7CBFD1E481E490822FFF7C6FD1D481E490822FFF7C1FD1D4B1C4A1278D2B242F00802D2B2C5
:400A40001A701A4B01221A70FFF728FF18480E490E22FFF7AFFD80BD00480040E8460040835800400076004050760040AC0C0048087600401076004040760040B00C0048AC
:400A80000350014013500140A0430040C243004002510040900C004822510040980C004832510040A00C00482243004004000840B043004080B500AF282001F0D3F9032099
:400AC00000F0B6F9052001F0CDF9032000F0B0F90F2001F0C7F9032000F0AAF9012001F0C1F9022000F0A4F9052001F0BBF9062000F09EF80E2000F09BF82C2000F098F8BB
:400B0000082000F095F8012000F092F80C2000F08FF8032000F08CF8052001F0A3F980BD80B500AF0C2000F083F8024B01221A7080BD00BF5881FF1F80B500AF054B1B781D
:400B4000002B04D1FFF7B6FF024B01221A70FFF7E7FF80BD5981FF1F80B582B000AF02460B46FA71BB71FB79032B27D801A252F823F000BF850B0000930B0000A10B00003F
:400B8000AF0B0000BB79803BDBB2184600F050F815E0BB79403BDBB2184600F049F80EE0BB796C3BDBB2184600F042F807E0BB792C3BDBB2184600F03BF800E000BF08375D
:400BC000BD4680BD80B584B000AF78600123FB737B681B78BB730BE0BB7B184600F00EF8FB7B7A6813441B78BB73FB7B0133FB73BB7B002BF0D11037BD4680BD80B584B080
:400C000000AF0346FB7100F02DF8FB791B09FB73FB7B184600F0D2F8FB7903F00F03FB73FB7B184600F0CAF81037BD4680BD00BF80B584B000AF0346FB7100F013F8FB79B8
:400C40001B09FB73FB7B184600F0F2F8FB7903F00F03FB73FB7B184600F0EAF81037BD4680BD00BF80B582B000AF4F4B4E4A1278D2B222F07F02D2B21A704C4B1B78DBB2B3
:400C800023F00F03FB71494BFA7942F00F02D2B21A70474B1B78DBB223F00F03FB71444BFA791A70434B1B78DBB223F00F03FB71404BFA791A703C4B3B4A1278D2B222F089
:400CC0002002D2B21A70384B374A1278D2B242F04002D2B21A70002001F0E6F8324B324A1278D2B242F01002D2B21A70012001F0DBF8314B1B78FB712B4B2B4A1278D2B28F
:400D000022F01002D2B21A70002001F0CDF8FB7903F00803FB71244B234A1278D2B242F01002D2B21A70012001F0BEF81E4B1E4A1278D2B222F01002D2B21A70FB79002B19
:400D4000C9D1194B184A1278D2B222F04002D2B21A70154B144A1278D2B222F07F02D2B21A70124B114A1278D2B222F00F02D2B21A700F4B1B78DBB223F00F03FB710C4BDD
:400D8000FA7942F00F02D2B21A700A4B1B78DBB223F00F03FB71074BFA7942F00F02D2B21A700837BD4680BD205100402251004023510040245100402151004080B582B0EE
:400DC00000AF0346FB71FFF74DFF184B174A1278D2B242F02002D2B21A70144B134A1278D2B222F04002D2B21A70104B0F4A1278D2B222F00F02D2B21A700C4B0B4A1278C4
:400E0000D1B2FA790A43D2B242F01002D2B21A70012001F049F8054B044A1278D2B222F01002D2B21A700837BD4680BD2051004080B582B000AF0346FB71144B134A127827
:400E4000D2B222F06002D2B21A70104B0F4A1278D2B222F00F02D2B21A700C4B0B4A1278D1B2FA790A43D2B242F01002D2B21A70012001F019F8054B044A1278D2B222F049
:400E80001002D2B21A700837BD4680BD2051004080B586B000AF0346FB800023FB751CE0F87DFA882F4BA3FB0213D9080B469B000B445B00D31A9BB2DBB23033DAB207F12C
:400EC0001803034403F8102CFA88264BA3FB0213DB08FB80FB7D0133FB75FB88092BDFD8F87DFA881F4BA3FB0213D9080B469B000B445B00D31A9BB2DBB23033DAB207F192
:400F00001803034403F8102CFB7DBB7510E0BA7DFB7DD31AFA7D07F118010A4412F8102C07F118010B4403F8082CFB7D013BFB75FB7D002BEBD1BB7D3A7A07F118010B446A
:400F400003F8082CBB7D013307F118021344002203F8082C07F110031846FFF733FE1837BD4680BDCDCCCCCC80B584B002AFF871B971BA807B80134B00221A70114B1978F3
:400F8000FA79BB790020009000200190084611461A46002300F07EFE0A4B1978BA887B88084611461A4600F019FE064B1B781846022100F0E5FD034B1B7818460837BD46A6
:400FC00080BD00BF0C81FF1F80B582B002AF324B01221A70314B00221A70102000F02EFC102000F01BFD1D20072100F097FF2C4B07221A702B4B00221A702B4B00221A7005
:401000002A4B2A4A1278D2B242F01802D2B21A70274B00221A70274B00221A70264B00221A70264B0A221A70254B00221A70254B00221A70244B5B221A70244B5E221A70B8
:40104000234B00221A70234B14221A7001230093002049F2DA014FF40042122300F0E8F91D4A0D4B1B78DBB2013B1C499B000B449B7813701A4B084A1278D2B2511E174A1B
:4010800032F821201A80044B1B78DBB2184600F01DF9BD4680BD00BF0D81FF1F5C81FF1F96580040975800409E580040075B004093580040885B0040895B004080580040F3
:4010C000815800408358004088580040895800408D580040014E00400E4E00406081FF1F0C4E004080B582B000AF00F0CBFC0346FB71444B1B78BB71434B434A1278D2B299
:4011000042F00102D2B21A703F4B3F4A1278D2B242F01002D2B21A703C4B3C4A1278D2B242F00102D2B21A70384B384A1278D2B242F01002D2B21A70354B354A1278D2B229
:4011400042F00202D2B21A70324B324A1278D2B242F00202D2B21A702F4B2F4A1278D2B242F00302D2B21A70032000F09DFE284B274A1278D2B222F00202D2B21A70254B66
:40118000244A1278D2B222F00202D2B21A70234B224A1278D2B242F00602D2B21A70204B7A221A701F4B1F4A1278D2B242F00102D2B21A701C4B1C4A1278D2B242F001029A
:4011C000D2B21A70194B194A1278D2B242F00102D2B21A70164B164A1278D2B242F00102D2B21A70134B4FF000521A60124B4FF000521A60FB79184600F048FC0837BD469E
:4012000080BD00BF0D81FF1FAA430040BA430040F8460040F9460040915800407758004082580040A1430040B1430040A2430040B243004080E200E000E100E080B500AFB4
:40124000084B1B78002B09D1074B1B78DBB2002B01D1FFF7B9FE034B01221A70FFF742FF80BD00BF5E81FF1F5F81FF1F80B400AF054B054A1278D2B242F00102D2B21A706B
:40128000BD465DF8047B7047004E004080B485B000AF78600B4B1B687A68D31A7B607B684FF47A7202FB03F2074B1B6892FBF3F3FB81FB891BB218461437BD465DF8047B06
:4012C000704700BF7089FF1F7489FF1F80B582B000AF0346FB71374B00221A70FB79012B65D1354B78221A70344B04221A70344B08221A70334B0F221A70334B00221A700E
:40130000324B3F221A70324B00221A70314B00221A70314B00221A70304B01221A70304B50221A702F4B27221A702F4B2C221A702E4B00221A702E4B55221A702D4B5A22FB
:401340001A702D4B05221A702C4B02221A702C4B12221A702B4B28221A702B4BEB221A70522000F013F9294B58221A70284B00221A70284B02221A70274B02221A70274B51
:4013800000221A70264B00221A70002000F088F9244B254A1A600220012100F095F90A20012100F081FA1D20204900F08FFD0837BD4680BD5D81FF1F004E0040024E004047
:4013C000034E0040044E0040054E0040064E0040084E0040094E00400A4E0040144E0040845800408558004086580040875800408A5800408B5800408C5800408E58004037
:401400008F580040905800409158004094580040955800409A5800409B5800409C5800409D5800407489FF1F333303000516000080B586B000AFF871B9807A80BB7197F8FD
:401440002030002B00F08A8097F82030012B00F28580FB79013B092B4AD801A252F823F089140000F1140000F114000089140000F1140000F1140000A3140000BD14000019
:40148000F1140000D7140000BB790F2B04D9364B1B78DBB2FB752EE0344B1B78DBB2FB7529E0BB790F2B04D9314B1B78DBB2FB7521E0304B1B78DBB2FB751CE0BB790F2BED
:4014C00004D92D4B1B78DBB2FB7514E02B4B1B78DBB2FB750FE0BB790F2B04D9284B1B78DBB2FB7507E0274B1B78DBB2FB7502E00023FB7500BFBA8897F917305B011344E7
:401500003B617B883A6902FB03F3FB60FB68DB0BBB82BB790D2B11D8BA8ABB79C3F10E0342FA03F3BB8297F82030013BBA790132D2B215499B000B449A7007E097F8203077
:40154000013B114A9B0013440F229A7097F820305A1E0D4BB98A23F8221002E0002000F075FC1837BD4680BD180100491C010049190100491D0100491A0100491E01004918
:401580001B0100491F0100496081FF1F80B584B000AF0346FB7100F075FA0346FB73164B154A1278D2B242F00302D2B21A70134B124A1278D2B242F00302D2B21A70104B00
:4015C000FA791A70032000F06FFC0B4B0A4A1278D2B222F00302D2B21A70084B074A1278D2B222F00302D2B21A70FB7B184600F04DFA1037BD4680BDF8460040F94600402D
:401600009258004080B400AFBD465DF8047B704780B584B002AFF871B971BA807B80134B02221A70114B1978FA79BB790020009000200190084611461A46002300F02AFBEF
:401640000A4B1978BA887B88084611461A4600F0C5FA064B1B781846022100F091FA034B1B7818460837BD4680BD00BF0E81FF1F80B582B000AF0023FB7106E0FB79184624
:40168000FFF758F9FB790133FB71FB79012BF5D9024BFF221A700837BD4680BD0F81FF1F80B582B000AF0346FB71FFF7E1FFFB791846FFF71FF9034BFA791A700837BD462E
:4016C00080BD00BF0F81FF1F80B584B000AF02460B46FA807B7100F0CBF80346FB7300F0A1F80346BB81FA88BB899A4200F08780444B1B78DBB203F00103FB72FB7B002B64
:4017000020D1BB89002B02D0FB88002B1AD1BB89002B0BD13C4BFA881A803C4B3B4A1278D2B222F04002D2B21A7068E0374B374A1278D2B242F04002D2B21A70324BFA889A
:401740001A805CE0FB7A002B33D0314B00221A70304B01221A70304B00221A702F4B2F4A1278D2B202F07F02D2B21A70274B1B78DBB203F00803002B02D0FB88002B18D1D3
:40178000274BBA891A80224B07221A7000BF204B1B78DBB203F00103002BF8D1194B194A1278D2B222F00102D2B21A70184B00221A70144B1B78DBB203F00103002B13D0FA
:4017C000174BFA881A80124A7B79002B01D0032300E00123137000BF0D4B1B78DBB203F00103002BF8D10AE0074BFA881A80054B044A1278D1B2FA7A0A43D2B21A70103737
:40180000BD4680BDA24300408040004082400040014000401040004014400040084000400240004080B400AF034B1B889BB21846BD465DF8047B70478040004080B483B01E
:4018400000AF0346FB71094B084A1278D2B2D1B2FA7922F00702D2B20A43D2B2D2B21A700C37BD465DF8047B704700BF8240004080B400AF054B1B78DBB203F00703DBB26D
:401880001846BD465DF8047B704700BF8240004080B400AF034B4FF000521A60BD465DF8047B704780E100E080B584B000AF02460B46FA807B7100F0CBF80346FB7300F0FF
:4018C000A1F80346BB81FA88BB899A4200F08780444B1B78DBB203F00103FB72FB7B002B20D1BB89002B02D0FB88002B1AD1BB89002B0BD13C4BFA881A803C4B3B4A12782E
:40190000D2B222F04002D2B21A7068E0374B374A1278D2B242F04002D2B21A70324BFA881A805CE0FB7A002B33D0314B00221A70304B01221A70304B00221A702F4B2F4A04
:401940001278D2B202F07F02D2B21A70274B1B78DBB203F00803002B02D0FB88002B18D1274BBA891A80224B07221A7000BF204B1B78DBB203F00103002BF8D1194B194A49
:401980001278D2B222F00102D2B21A70184B00221A70144B1B78DBB203F00103002B13D0174BFA881A80124A7B79002B01D0032300E00123137000BF0D4B1B78DBB203F0C2
:4019C0000103002BF8D10AE0074BFA881A80054B044A1278D1B2FA7A0A43D2B21A701037BD4680BDA143004000410040024100400140004014400040104000400840004041
:401A00000240004080B400AF034B1B889BB21846BD465DF8047B70470041004080B483B000AF0346FB71094B084A1278D2B2D1B2FA7922F00702D2B20A43D2B2D2B21A70A3
:401A40000C37BD465DF8047B704700BF0241004080B400AF054B1B78DBB203F00703DBB21846BD465DF8047B704700BF024100400230800800F0058000BF013800467FF468
:401A8000FCAF7047EFF3108072B6704780F31088704700BFAFF3008080B483B000AF134B7F221A70124B80221A707F23FB710CE0FB79DB0003F1804303F5F043FA79013ACF
:401AC000D2B21A70FB79013BFB71FB79002BEFD1FB79DB0003F1804303F5F04300221A700C37BD465DF8047B704700BF1181FF1F1081FF1F80B485B000AF02460B46FA7175
:401B0000BB710123FB60FB79172B2FD8BB79002B0ED0FB791A01194B1344FA791101174A0A441278D2B242F02002D2B21A700DE0FB791A01114B1344FA7911010F4A0A44B7
:401B40001278D2B222F02002D2B21A70FB791A010A4B1344FA791101084A0A441278D2B242F00102D2B21A700023FB60FB6818461437BD465DF8047B704700BF10700040CD
:401B800080B485B000AF02460B46FA71BB710123FB60FB79172B18D8FB791A010E4B13441B78DBB223F00E03FB72FB791A010A4B1344BA7902F00702D2B25200D1B2FA7A92
:401BC0000A43D2B21A700023FB60FB6818461437BD465DF8047B70471070004080B485B000AF13460246FA710A46BA807B800123FB60BA8841F6FF739A4202D14FF400535A
:401C0000BB807A8841F6FF739A4202D14FF400537B80FB79172B17D8FB79DB0003F1804303F5EC430433BB60BB68BA881A80FB79DB0003F1804303F5EC430633BB60BB68B7
:401C40007A881A800023FB60FB6818461437BD465DF8047B704700BF80B485B000AF02460B46FA71BB710123FB60FB79172B07D8FB791A01064B1344BA795A720023FB60E1
:401C8000FB6818461437BD465DF8047B704700BF1070004080B485B000AFF871B9717A713B710123FB60FB79172B34D8FB79DB0003F1804303F5EC43BA7902F07F02D1B232
:401CC0007A79D201D2B20A43D2B21A70FB79DB0003F1804303F5EC433A7E1201D1B23A7902F00F02D2B20A43D2B25A70FB79DB0003F1804303F5EC433A7F02F00F02D2B282
:401D00009A70FB79DB0003F1804303F5EC430022DA700023FB60FB6818461437BD465DF8047B704780B582B000AFFF23FB71FFF7A9FE0346BB71104B1B78182B12D90F4BBC
:401D40001B78FB710C4B1B78013BDAB20A4B1A70FB79DB0003F1804303F5F0431B78DAB2064B1A70BB791846FFF790FEFB7918460837BD4680BD00BF1081FF1F1181FF1F23
:401D800080B485B000AFF871B980BA71FB700123FB60FB795BB2002B23DBBB8823F47F6323F00F039BB2002B1BD1FB79DB0003F1804303F5F043BB60BB68BA881A80FB7926
:401DC000DB0003F1804303F5F043BA799A70FB79DB0003F1804303F5F043FA78DA700023FB60FB6818461437BD465DF8047B704780B485B000AF13460246FA710A46BA8036
:401E00007B800123FB60FB795BB2002B17DBFB79DB0003F1804303F5F0430433BB60BB68BA881A80FB79DB0003F1804303F5F0430633BB60BB687A881A800023FB60FB68E3
:401E400018461437BD465DF8047B704780B483B000AF0346FB7101BE0C37BD465DF8047B704700BF80B582B000AF786008E00C4B1B681846FFF7FCFD7B68A3F500437B607B
:401E80007B68B3F5004FF2D8064B1B687A6802FB03F31846FFF7ECFD0837BD4680BD00BF2481FF1F1C81FF1F80B582B000AF0346FB80FB88044A127802FB03F31846FFF760
:401EC000D7FD0837BD4680BD2081FF1F80B584B000AF03463960FB710F4B1B68FB60FB791F2B02D90020FFF7B1FFFB7903F01F0310339B00FA6813441B68BB60FB7903F0AE
:401F00001F0310339B00FA6813443A681A60BB6818461037BD4680BD08ED00E080B582B000AF02460B46FA71BB71BB79072B02D90020FFF78BFFFB791F2B02D90020FFF719
:401F400085FFFB7903F01F0303F1604303F56443BA795201D2B21A700837BD4680BD00BFF8B500AF354B354A1278D2B242F01002D2B21A70324B324A1278D2B222F0010275
:401F8000D2B21A702F4B3F221A702F4B3F221A702E4A2F4B11461A464FF48073084611461A4600F0F1F92B4A294B11461A464FF48073084611461A4600F0E6F9264A274BFF
:401FC00011461A464FF48073084611461A4600F0DBF9234A234B11461A464FF40073084611461A4600F0D0F91F4A204B11461A464FF40073084611461A4600F0C5F91C4BCA
:402000001C4A14461E4604F1400E35462346186859689A68DB680FC5103410367445F4D1094B00221A70002000F0D0F8012000F0E1F8114BF8221A70F8BD00BFA643004094
:4020400080C7004088C700408CC7004000C400407C24000000C5004000C60040BC29000000C000407C25000000C200407C27000000C700407C29000084C7004080B400AFC3
:402080000D4B0D4A1278D2B242F01002D2B21A700A4B0A4A1278D2B242F01002D2B21A70074B074A1278D2B242F00102D2B21A70BD465DF8047B7047A6430040B643004024
:4020C00080C7004080B500AF054B1B78002B04D1FFF746FF024B01221A70FFF7CFFF80BD6481FF1F80B483B000AF02460B46FA71BB71FB79002B1AD11F4B1F4A1278D2B2A8
:4021000022F03302D2B21A701B4B1B4A1278D1B2BA790A43D2B21A70174B174A1278D1B2BA791201D2B20A43D2B21A701EE0FB79012B1BD1104B104A1278D2B202F033027B
:40214000D2B21A700C4B0C4A1278D1B2BA799200D2B20A43D2B21A70074B074A1278D1B2BA799201D2B20A43D2B21A700C37BD465DF8047B704700BFB0C7004080B483B0F0
:4021800000AF02460B46FA71BB71BB79012B08D10D4B0D4A1278D1B2FA790A43D2B21A700CE0BB79002B09D1074B074A1278D1B2FA79D243D2B20A40D2B21A700C37BD46FE
:4021C0005DF8047B704700BFB4C7004080B483B000AF0346FB71FB7903F01F03FB71044BFA791A700C37BD465DF8047B704700BF98C7004080B483B000AF0346FB71FB7960
:4022000003F00F03FB71044BFA791A700C37BD465DF8047B704700BF9CC7004080B584B002AFF871B971BA807B80134B08221A70114B1978FA79BB790020009000200190C5
:40224000084611461A460823FFF724FD0A4B1978BA887B88084611461A46FFF7BFFC064B1B7818460221FFF78BFC034B1B7818460837BD4680BD00BF2881FF1F80B584B0A7
:4022800002AFF871B971BA807B80134B01221A70114B1978FA79BB790020009000200190084611461A460023FFF7F4FC0A4B1978BA887B88084611461A46FFF78FFC064B95
:4022C0001B7818460221FFF75BFC034B1B7818460837BD4680BD00BF2981FF1F80B584B002AFF871B971BA807B80134B0A221A70114B1978FA79BB7900200090002001904D
:40230000084611461A460A23FFF7C4FC0A4B1978BA887B88084611461A46FFF75FFC064B1B7818460221FFF72BFC034B1B7818460837BD4680BD00BF2A81FF1F70B50E4BEE
:402340000E4D0024ED1AAD101E46AC4204D056F8242090470134F8E700F0B0FB084D094B0024ED1AAD101E46AC4204D056F8242090470134F8E770BDC82A0000C82A000097
:40238000D02A0000C82A000010B50023934203D0CC5CC4540133F9E710BD02440346934202D003F8011BFAE77047000000000000035B00402443004040000000C80100004D
:4023C000C0010000B8010000B0010000A8010000A8010000A8010000A80100005081FF1F5081FF1F5081FF1F5081FF1F5081FF1F5081FF1F5081FF1F5081FF1F5081FF1FA7
:402400005081FF1F5081FF1F5081FF1F5081FF1F5081FF1F08000048100000489000004810010048900100481002004890020048100300489003004810040048900400489D
:4024400010050048900500481006004890060048100700489007004810080048900800481009004890090048100A0048900A0048100B0048900B0048100C004820130025E0
:402480006117802601008026E00E8026C20C8026020080066587186D6409183E00008026032080262102187F0000000000000000000000000000000000000000000000006A
:4024C00000000000000000000000000000000000000000000000000000000000000000000000000000000000000000000000000000000000000000000000000000000000DC
:40250000000000000000000000000000000000000000000000000000000000000000000000000000000000000000000000000000000000000000000000000000000000009B
:40254000000000000000000000000000000000000000000000000000000000000000000000000000000000000000000000000000000000000000000000000000000000005B
:40258000000000000000000000000000000000000000000000000000000000000000000000000000000000000000000000000000000000000000000000000000000000001B
:4025C00000000000000000000000000000000000000000000000000000000000000000000000000000000000000000000000000000000000000000000000000000000000DB
:40260000000000000000000000000000000000000000000000000000000000000000000000000000000000000000000000000000000000000000000000000000000000009A
:40264000000000000000000000000000000000000000000000000000000000000000000000000000000000000000000000000000000000000000000000000000000000005A
:40268000000000000000000000000000000000000000000000000000000000000000000000000000000000000000000000000000000000000000000000000000000000001A
:4026C00000000000000000000000000000000000000000000000000000000000000000000000000000000000000000000000000000000000000000000000000000000000DA
:402700000000000000000000000000000000000000000000000000000000000000000000000000000000000000000000000000000000000000000000000000000000000099
:40274000000000000000000000000000000000000000000000000000000000000000000000000000000000000000000000000000000000000000000000000000E9F5FF007C
:40278000FE75000094BFFE00AB3D00001F1E0600F340F000121A0A00CC923D00121A0A00F340F0001F1E0600AB3D000094BFFE00FE750000E9F5FF00000000000000000011
:4027C00000000000000000000000000000000000000000000000000000000000000000000000000000000000000000000000000000000000000000000000000000000000D9
:402800000000000000000000000000000000000000000000000000000000000000000000000000000000000000000000000000000000000000000000000000000000000098
:402840000000000000000000000000000000000000000000000000000000000000000000000000000000000000000000000000000000000000000000000000000000000058
:402880000000000000000000000000000000000000000000000000000000000000000000000000000000000000000000000000000000000000000000000000000000000018
:4028C00000000000000000000000000000000000000000000000000000000000000000000000000000000000000000000000000000000000000000000000000000000000D8
:402900000000000000000000000000000000000000000000000000000000000000000000000000000000000000000000000000000000000000000000000000000000000097
:402940000000000000000000000000000000000000000000000000000000000000000000000000000000000000000000000000000000000000000000000000000E07000042
:4029800000000000000000000000000000000000000000000000000000000000000000000000000000000000000000000000000000000000000000000000000021F80501F8
:4029C0004210864064F8150181F8050143518E210000000000000000000000000000000000000000000000000000000000000000000000000000000000000000000000008B
:402A00000000000000000000000000000000000000000000000000000000000000000000000000000000000000000000000000000000000000000000000000000000000096
:402A40000000000000000000000000000000000000000000000000000000000000000000000000000000000000000000000000000000000000000000000000000000000056
:402A8000000000000000000000000000000000000000000000000000000000000000000000000000000000000000000000000000000000000000000000000000F8B500BFAA
:402AC000F8BC08BC9E467047F501000009050000F8B500BFF8BC08BC9E467047D1010000F02A00000881FF1F280000004808000000000000FF01FFFF807F0000070500002C
:402B0000408AF701E88000002100000000007440FFFFFF00000000000000000000000000000000000000000000000000000000000000000000000000000000000000000099
:402B40000000000000000000000000000000000000000000000000000000000000000000000000000000000000000000000000000000000000000000000000000000000055
:402B80000000000000000000000000000000000000000000000000000000000000000000000000000000000000000000000000000000000000000000000000000000000015
:402BC00000000000000000000000000000000000000000000000000000000000000000000000000000000000000000000000000000000000000000000000000000000000D5
:402C00000000000000000000000000000000000000000000000000000000000000000000000000000000000000000000000000000000000000000000000000000000000094
:020000040003F7
:0200000480007A
:4000000029002200000000000080000000000000000000000000000000000000000000000000000000000000000000000000000000000000000000000000000000000000F5
:400040000000000000000000020000000000010000000000000000000000000000000000000000000000000004000000000000010000000000000000000000000000000078
:400080000000000000000000000000000000000000000000000000000000000000000000000000000000000000000000000000000000000000000000000000000000000040
:4000C00000000000000800000000000000000000000000000000000000000000000000000000000000000000000000000000000000000000000000000000000008000000F0
:4001000000000000000000000000000000000000000000000000000000000000000000000000000000000000000000000000000000000000000800000000000000000000B7
:40014000000000000000000000000000000000000000000000000000000000000000000000000000000000000000000000000000000000000000000000000000000000007F
:400180000000000000000000000000000000000000000000000000000000000000000000000000000000000000000000000000000000000000080000000000000000000037
:4001C00000000000010000000000000000000000000000000000000000000000000000000000000000000000000000000000000000000000000000000000000008000000F6
:4002000000000000000000000000000000000000000000000000000000000000000000000000000000000000000000000000000000000000000000000000000000000000BE
:400240000000000000000000000000000000000000000000000800000000000000000000000000000000000000000000000000000000000000000000000000000000000076
:40028000000000000000000000000000000000000000000000000000000000000000000000000000010000000000000000000000000000000000000000000000000000003D
:4002C00000000000000000000000000000000000000000000000000000000000000000000100000000000000000000000000000000000000000000000000000000000000FD
:4003000000000000000000000000000000000000000000000000000000000000000000000000000001000000000000000000000000000000000000000000000000000000BC
:40034000000000000000000000000000000000000000000000000000000000000000000000000000000000000000000000000000000000000000000000000000000000007D
:40038000000000000000000000000000000000000000000000000000000000000000000000000000000000000000000000000000000000000000000000000000000000003D
:4003C00000000000000000000000000000000000000000000000000000000000000000000000000000000000000000000000000000000000000000000000000000000000FD
:4004000000000000000000000000000001000000000000000000000000000000000000000000000000000000000000000000000000000000000000000000000000000000BB
:40044000000000000000000000000000000000000000000000000000000000000000000000000000000000000000000000000100000000000000000000000000000000007B
:40048000000000000000000000000000000000000000000000000000000000000000000000000000000000000000000000000000000000000000000000000000000000003C
:4004C00000000000000000000000000000000000000000000000000000000000000000000000000000000000000000000000000000000000000000000000000010000000EC
:4005000000000000000000000000000000000000000000000000000000000000000000000000000000000000000000000000000000000000000000000000000000000000BB
:40054000000000000000000000000000000000000000000000000000000000000000000000000000000000000000000000000000000000000000000000000000100000006B
:40058000000000000000000000000000000000000000000000000000000000000000000000000000000000000000000000000000000000000000000000000000000000003B
:4005C00000000000000200000000000000000000000000000000000000000000000000000000000000000000000000000000000000000000000000000000000000000000F9
:4006000000000000000000000000000000000000000000000000000000000000000000000000000000000000000000000002000000000000000000000000000000000000B8
:40064000000000000000000000000000000000000000000000000000000000000000000000000000000000000000000000000000000000000000000000000000000000007A
:40068000000000000000000000000000000000000000000000000000000000000000000000000000000000000000000000000000000000000000000000000000000000003A
:4006C00000000000000000000000000000000000000000000000000000000000000000000000000000000000000000000000000000000040000000000000000000000000BA
:400700000000000000000000000000000000000000000000000000000000000000000000000000400000000000000000000000000000000000000000000000000000000079
:400740000000000000100000000000000000000000000000000000000000000000000000000000000000000040000000000000000000000000000000000000000000000029
:400780000000000000000000000000000000000000000000000000000000000000000000000000000000000000000000000000000000000000100000000000000000000029
:4007C00000000000000000000000000000000000000000000000000000000000000000000000000000000000000000000000000000000000000000000000000000000000F9
:400800000000000000000000000000000000000000000000000000000000000000000000000000400000000000000000000000000000000000000000000000000000000078
:400840000000000000000000000000000000000000000000000000002000000000000000000000000000000000000000000000000000000000000000000000000000000058
:4008800000000000000000000000000000000000000000000000000000000000000000000000004000000000000000000000000000000000000000000000000000000000F8
:4008C00000000000000000000000000000000000000000000000000000000000000000000000000000000000000000000000000000000000000000000000000000000000F8
:400900000000000000000000000000000000000000000000000000000000000000000000000000000000004000000000000000000000000000000000000000000000000077
:400940000000000000000000000000000000000000000000400000000000000000000000000000000000000000000000000000000000000000000000000000000000000037
:400980000000000000000000000000000000000000000000000000000000000000000000000000000000000000000000000000000000000000000000000000000000000037
:4009C0000000000000000000000000000000000000000000800000000000000000000040000000000000000000000000000000000000000000000000000000000000000037
:400A000000000000000000000000000000000000000000000000000000000000000000000000000000000040800000000000000000000000000000000040000400000000B2
:400A400000000000000000000000000000000000000000000000000000000000000000008000200000000000000000000000000000000000000000000000000000000000D6
:400A80000000000000000000000000000000000000000000000000000000000000000000004000040000000000000000000000000000000000000000800000000000000072
:400AC00000000000000000000000000000000000000000000000000000000000000000000000000000000000000000000000000000000000000000000000000000000000F6
:400B0000000000000000000000000000000000000000000000000000000000000000000000000000000000440000000000000000000000000000000400000000000000006D
:400B400000000000000000000000000000000000000000005000000000004000000000000000000000000000000000000000000000000000000000000000000000000000E5
:400B80000000000000000000000000000000000000000000000000000000000000000000000000000000000000000000000000000000000000000000000000000000000035
:400BC00000000000000000000000000400000048000000000000000000000000000000000000000000000000000000000000000000000000000000000000000000000000A9
:400C000000000000000000000000000000000000000000000000000000000000000000000000000000000000000000000000000000000000000000000000000000000000B4
:400C4000000000000000000000000000000000000000000000000000000000000000E000000000000000000000000000000000000000000000000000000000000000000094
:400C8000000000000000000000000000000000000000000000000100007F7F000000000000808000800000000A001801000A00000008000000000000000000000000000080
:400CC00000000000000000000000000000000000000000000000000000000000000000000000000000000000000000000000000000000000000000000000000000000000F4
:400D000000000000000000000000000000000000000000000000000000000000000000000000000000000000000000000000000000000000000000000000000000000000B3
:400D40000000000000000000000000000000000000000000000000000000000000000000000000000000000000000000000000000000000000000000000000000000000073
:400D80000000000000000000000000000000000000000000000000000000000000000000000000000000000000000000000000000000000000000000000000000000000033
:0200000490006A
:0400000000004004B8
:0200000490105A
:04000000BC90ACAF55
:0200000490303A
:02000000D35AD1
:0200000490402A
:4000000000000000000000000000000000000000000000000000000000000000000000000000000000000000000000000000000000000000000000000000000000000000C0
:400040000000000000000000000000000000000000000000000000000000000000000000000000000000000000000000000000000000000000000000000000000000000080
:400080000000000000000000000000000000000000000000000000000000000000000000000000000000000000000000000000000000000000000000000000000000000040
:4000C0000000000000000000000000000000000000000000000000000000000000000000000000000000000000000000000000000000000000000000000000000000000000
:0200000490501A
:0C00000000012E12306900012E2003C305
:00000001FF