:400000000080002011000000510400005104000080B500AF024B034A12681A6000F01CFABC760040FA46004010B5054C237833B9044B13B10448AFF300800123237010BD59
:400040003081FF1F000000004C3C000008B5064B1BB106480649AFF300800648036813B1054B03B1984708BD000000004C3C00003481FF1F0881FF1F0000000080B500AF85
:40008000044B01221A70044B1B78184600F040FD80BD00BF4C81FF1F6D85FF1F80B500AF044B01221A70044B1B78184600F030FD80BD00BF4D81FF1F6E85FF1F80B500AFC6
:4000C00000F08AFF01F010FB01F026FB01F06AFE00F080F8344801F085FF344801F0DCFF334B334A1278D2B242F00302D2B21A700120002102F02CF90420002102F028F980
:400100000320022102F0D8F83020022102F0D4F80220002102F01CF90820002102F018F90C20022102F0C8F8C020022102F0C4F862B602F0B1F80020002100F05DFF01F00D
:40014000FBFA0346184601F02BF90020002100F053FF184B9BB2184601F03AF9164B1B78DBB2012B1ED1154815490022012302F043FB144B1B68124813491A4603F08CF9DC
:400180000D4B00221A7001F07BFF104B1B781846012100F077FC0E4B1B781846012100F071FCC8E7C7E700BF7D0000009D000000144E00407487FF1F4C81FF1FE442000034
:4001C000748FFF1F0C81FF1F7085FF1F6D85FF1F6E85FF1F80B500AF042001214FF480424FF4804302F004F903461A468A4B1A7000F092FD03461A46884B1A7000F08CFDD5
:4002000003461A46854B5A70844B1A78834B5B78104604211A46202300F0ACFD7F4B5A787E4B1B78104604211A46042300F0A2FD7A4B1B78184644F610614CF2A07200F098
:40024000D1FD764B5B78184644F610614CF2A47200F0C8FD704B1A78704B1B781046194600F0F4FC6C4B1B781846012100F00AFC0420002141F6FF7241F6FF7301F082FE13
:4002800003461A46664B1A7000F046FD03461A46644B1A70634B1B7818464FF48061FE22072300F067FD5F4B19785F4B9AB25F4B9BB2084611461A4600F094FD584B1A7801
:4002C000584B1B781046194600F0C0FC544B1B781846012100F0D6FB042001214FF4804241F6FF7301F01EFC03461A46504B1A7000F012FD03461A464E4B1A704D4B1A7832
:400300004C4B1B7810464FF480611A46062300F031FD484B1A78444B9BB210464CF2A8711A4600F05FFD424B1A78424B1B781046194600F08BFC3E4B1B781846012100F021
:40034000A1FB042001214FF4804241F6FF7302F0AFF803461A46384B1A7000F0DDFC03461A46364B1A70354B1A78344B1B7810464FF480611A46062300F0FCFC2F4B1A7806
:400380002F4B9BB2104644F610611A4600F02AFD294B1A78294B1B781046194600F056FC254B1B781846012100F06CFB0420002141F6FF7241F6FF7302F04AF803461A46AD
:4003C000204B1A7000F0A8FC03461A461E4B1A701D4B1B7818464FF48061FE22072300F0C9FC194B1978164B9AB2184B9BB2084611461A4600F0F6FC124B1A78124B1B7844
:400400001046194600F022FC0E4B1B781846012100F038FB80BD00BF6685FF1F6485FF1F6D85FF1F6885FF1F748BFF1F748FFF1F7087FF1F5C81FF1F6085FF1F6C85FF1FE3
:400440007487FF1F6E85FF1F7493FF1F6081FF1F80B400AFFEE700BF80B586B000AF224B7B61224B3B61204B7B6135E03B691B68FB603B695B68BB603B699B683B60002376
:400480007B600CE0FB681A68BB681A60BB680433BB60FB680433FB607B6804337B607A683B689A42EED13B69DB683B6000237B6008E0BB6800221A60BB680433BB607B68F5
:4004C00004337B607A683B689A42F2D13B6910333B617B69013B7B617B69002BC6D103F07DFBFFF7EBFDFEE701000000F847000080B582B000AF184B184A1A60184B184A19
:40050000126842F400721A6000237B600FE07B68032B04D8134B7A6853F8223000E0124B124A796842F821307B6801337B607B682F2BECD90E4B1B78DAB20E4B1A700E4BBB
:400540000A4A1A6000F0A2F900F06EFA0B4B00221A600837BD4680BD0CED00E00004FA0514ED00E000000000510400000080FF1FBC7600400481FF1F08ED00E00081FF1F20
:4005800080B582B000AF78603960786800213A6803F053FB0837BD4680BD00BF80B584B000AFF860B9607A60F868B9687A6803F03BFB1037BD4680BD80B487B000AF78602A
:4005C000396000233B6100237B6126E07B699B007A6813441B68BB60BB68FB73BB6823F0FF03BB6013E03B695B003A6813441B781A46BB6813443A69520039680A4452785E
:400600001A703B6901333B61FB7B013BFB73FB7B002BE8D17B6901337B617B69122BD5D91C37BD465DF8047B704700BF80B582B000AF4A4B00221A80494B50221A70494857
:4006400049490422FFF7AAFF484B02221A704FF0402308221A70464B45F20E521A80454B05221A70434B1B7843F2C8237B6006E04FF4F07000F0C4F97B68013B7B607B685A
:40068000002B06D03B4B1B78DBB2DBB25BB2002BEEDB394B394A1278D2B21A70384B05221A70384B00221A80374B4FF483621A804FF0402309221A70344B41F251221A8099
:4006C0000023FB7019237B6014E0FB785B00DAB22F4B1B78DBB203F00103DBB21343DBB203F00303FB704FF4F07000F089F97B68013B7B607B68002B02D0FB78032BE4D15D
:40070000204B07221A70234B00221A70224B48221A701C4B00221A70204B02221A70204B04221A701F4B1F4A1278D2B242F00102D2B21A701C4B1C4A1278D2B242F00102A5
:40074000D2B21A70194B194A1278D2B262F07F02D2B21A700837BD4680BD00BF80400040824000400041004000010048004300401242004010420040A14600400C01004985
:4007800000420040044000402242004020420040254200400640004008400040014000400B400040A2430040A1430040A043004080B483B000AF0E4B1B78FB710D4BFA7987
:4007C00002F00702D2B21A700B4BFA791209D2B21A700A4B01221A70094B10221A70094B44221A700C37BD465DF8047B704700BFCF0100496E5800406F5800400D51004054
:40080000005B00407658004080B483B000AF0346FB71FB79012B0ED8FA79094B53F82230F979074A52F821201178FA790548825C0A43D2B21A700C37BD465DF8047B7047B9
:40084000503C0000583C000080B483B000AF0346FB71FB79012B10D8FA790A4B53F82230F979084A52F821201178FA790648825CD243D2B20A40D2B21A700C37BD465DF89D
:40088000047B7047503C0000583C000080B582B000AF72B6414B01221A70FFF7C7FE404B3F4A1278D2B242F00402D2B21A700023FB7113E0FA7913465B0013445B00394A6A
:4008C00013443B603B681A683B689B889BB210461946FFF755FEFB790133FB71FB79082BE8D94FF090403049FFF766FE2F4B0A221A702F480421FFF743FE2E482E4904225C
:40090000FFF74CFE2D482E490422FFF747FE2D482D490422FFF742FE2C482D490422FFF73DFE2C4B2B4A1278D2B242F00202D2B21A70294B284A1278D2B242F00202D2B2B6
:400940001A70264B254A1278D2B242F04002D2B21A70234B224A1278D2B242F01002D2B21A70204820490822FFF718FE1F4820490822FFF713FE1F4B1E4A1278D2B242F029
:400980000802D2B21A70FFF713FF1B4813490E22FFF704FE0837BD4680BD00BF00480040E84600405C3C00004C0000488358004000760040507600400401004808760040EE
:4009C00008010048107600400C01004840760040100100480350014013500140A0430040C243004002510040F000004822510040F800004822430040B04300400000000006
:400A00000230800800F0058000BF013800467FF4FCAF7047EFF3108072B6704780F31088704700BFAFF3008080B483B000AF134B7F221A70124B80221A707F23FB710CE05E
:400A4000FB79DB0003F1804303F5F043FA79013AD2B21A70FB79013BFB71FB79002BEFD1FB79DB0003F1804303F5F04300221A700C37BD465DF8047B704700BF1181FF1FF1
:400A80001081FF1F80B485B000AF02460B46FA71BB710123FB60FB79172B2FD8BB79002B0ED0FB791A01194B1344FA791101174A0A441278D2B242F02002D2B21A700DE0EB
:400AC000FB791A01114B1344FA7911010F4A0A441278D2B222F02002D2B21A70FB791A010A4B1344FA791101084A0A441278D2B242F00102D2B21A700023FB60FB68184648
:400B00001437BD465DF8047B704700BF1070004080B485B000AF0346FB710123FB60FB79172B1DD8FB791A01114B1344FA7911010F4A0A441278D2B222F00102D2B21A70C7
:400B4000FB791A010A4B1344FA791101084A0A441278D2B222F02002D2B21A700023FB60FB6818461437BD465DF8047B704700BF1070004080B485B000AF02460B46FA7112
:400B8000BB710123FB60FB79172B18D8FB791A010E4B13441B78DBB223F00E03FB72FB791A010A4B1344BA7902F00702D2B25200D1B2FA7A0A43D2B21A700023FB60FB6882
:400BC00018461437BD465DF8047B70471070004080B485B000AF13460246FA710A46BA807B800123FB60BA8841F6FF739A4202D14FF40053BB807A8841F6FF739A4202D111
:400C00004FF400537B80FB79172B17D8FB79DB0003F1804303F5EC430433BB60BB68BA881A80FB79DB0003F1804303F5EC430633BB60BB687A881A800023FB60FB68184681
:400C40001437BD465DF8047B704700BF80B485B000AF02460B46FA71BB710123FB60FB79172B07D8FB791A01064B1344BA795A720023FB60FB6818461437BD465DF8047BE9
:400C8000704700BF1070004080B485B000AFF871B9717A713B710123FB60FB79172B34D8FB79DB0003F1804303F5EC43BA7902F07F02D1B27A79D201D2B20A43D2B21A7080
:400CC000FB79DB0003F1804303F5EC433A7E1201D1B23A7902F00F02D2B20A43D2B25A70FB79DB0003F1804303F5EC433A7F02F00F02D2B29A70FB79DB0003F1804303F52F
:400D0000EC430022DA700023FB60FB6818461437BD465DF8047B704780B582B000AFFF23FB71FFF777FE0346BB71104B1B78182B12D90F4B1B78FB710C4B1B78013BDAB255
:400D40000A4B1A70FB79DB0003F1804303F5F0431B78DAB2064B1A70BB791846FFF75EFEFB7918460837BD4680BD00BF1081FF1F1181FF1F80B485B000AFF871B980BA7131
:400D8000FB700123FB60FB795BB2002B23DBBB8823F47F6323F00F039BB2002B1BD1FB79DB0003F1804303F5F043BB60BB68BA881A80FB79DB0003F1804303F5F043BA792B
:400DC0009A70FB79DB0003F1804303F5F043FA78DA700023FB60FB6818461437BD465DF8047B704780B485B000AF13460246FA710A46BA807B800123FB60FB795BB2002B10
:400E000017DBFB79DB0003F1804303F5F0430433BB60BB68BA881A80FB79DB0003F1804303F5F0430633BB60BB687A881A800023FB60FB6818461437BD465DF8047B7047E2
:400E400080B483B000AF0346FB7101BE0C37BD465DF8047B704700BF80B582B000AF786008E00C4B1B681846FFF7CAFD7B68A3F500437B607B68B3F5004FF2D8064B1B687C
:400E80007A6802FB03F31846FFF7BAFD0837BD4680BD00BF2481FF1F1C81FF1F80B582B000AF0346FB80FB88044A127802FB03F31846FFF7A5FD0837BD4680BD2081FF1F3A
:400EC00080B584B000AF03463960FB710F4B1B68FB60FB791F2B02D90020FFF7B1FFFB7903F01F0310339B00FA6813441B68BB60FB7903F01F0310339B00FA6813443A6875
:400F00001A60BB6818461037BD4680BD08ED00E080B582B000AF02460B46FA71BB71BB79072B02D90020FFF78BFFFB791F2B02D90020FFF785FFFB7903F01F0303F16043E0
:400F400003F56443BA795201D2B21A700837BD4680BD00BF80B500AF2820FFF77DFF032000F0D4F90520FFF777FF032000F0CEF90F20FFF771FF032000F0C8F90120FFF797
:400F80006BFF022000F0C2F90520FFF765FF062000F0AAF80E2000F0A7F82C2000F0A4F8082000F0A1F8012000F09EF80C2000F09BF8032000F098F80520FFF74DFF80BDE0
:400FC00080B500AF0C2000F08FF8024B01221A7080BD00BF4E81FF1F80B500AF054B1B78002B04D1FFF7B6FF024B01221A70FFF7E7FF80BD4F81FF1F80B582B000AF0246B6
:401000000B46FA71BB71FB79032B27D801A252F823F000BF2510000033100000411000004F100000BB79803BDBB2184600F05CF815E0BB79403BDBB2184600F055F80EE068
:40104000BB796C3BDBB2184600F04EF807E0BB792C3BDBB2184600F047F800E000BF0837BD4680BD80B584B000AF78600123FB737B681B78BB730BE0BB7B184600F01AF813
:40108000FB7B7A6813441B78BB73FB7B0133FB73BB7B002BF0D11037BD4680BD80B582B000AF0346FB71FB79184600F003F80837BD4680BD80B584B000AF0346FB7100F03B
:4010C0002DF8FB791B09FB73FB7B184600F0E2F8FB7903F00F03FB73FB7B184600F0DAF81037BD4680BD00BF80B584B000AF0346FB7100F013F8FB791B09FB73FB7B1846C2
:4011000000F004F9FB7903F00F03FB73FB7B184600F0FCF81037BD4680BD00BF80B582B000AF4FF4CA737B60554B554A1278D2B222F07F02D2B21A70524B1B78DBB223F0AE
:401140000F03FB704F4BFA7842F00F02D2B21A704D4B1B78DBB223F00F03FB704A4BFA781A704A4B1B78DBB223F00F03FB70474BFA781A70424B424A1278D2B222F020028E
:40118000D2B21A703E4B3E4A1278D2B242F04002D2B21A700020FFF781FE394B384A1278D2B242F01002D2B21A700120FFF776FE374B1B78FB70324B314A1278D2B222F062
:4011C0001002D2B21A700020FFF768FEFB7803F00803FB702A4B2A4A1278D2B242F01002D2B21A700120FFF759FE254B244A1278D2B222F01002D2B21A70FB78002B02D131
:401200000A20FFF74BFE7B68013B7B60FB78002B02D07B68002BBDD1194B194A1278D2B222F04002D2B21A70154B154A1278D2B222F07F02D2B21A70124B124A1278D2B2D3
:4012400022F00F02D2B21A700F4B1B78DBB223F00F03FB700C4BFA7842F00F02D2B21A700A4B1B78DBB223F00F03FB70074BFA7842F00F02D2B21A700837BD4680BD00BFC1
:40128000205100402251004023510040245100402151004080B582B000AF0346FB711A4B194A1278D2B242F02002D2B21A70164B154A1278D2B222F04002D2B21A7000205C
:4012C000FFF7ECFD104B104A1278D2B222F00F02D2B21A700C4B0C4A1278D1B2FA790A43D2B242F01002D2B21A700120FFF7D6FD054B054A1278D2B222F01002D2B21A7002
:401300000837BD4680BD00BF2051004080B582B000AF0346FB71144B134A1278D2B222F06002D2B21A70104B0F4A1278D2B222F00F02D2B21A700C4B0B4A1278D1B2FA7988
:401340000A43D2B242F01002D2B21A700120FFF7A5FD054B044A1278D2B222F01002D2B21A700837BD4680BD2051004080B582B000AF0346FB71FB791B09DBB2074AD35C13
:401380001846FFF78BFEFB7903F00F03034AD35C1846FFF783FE0837BD4680BD943C000080B584B000AF78602023FB730AE0FB7B083BFB73FB7B7A6822FA03F3DBB2184630
:4013C000FFF7D4FFFB7B002BF1D11037BD4680BD80B586B000AF78600A23FB75FB7D07F118010B44002203F8102CFB7D013BFB751CE079681E4BA3FB0123DA0813469B0078
:4014000013445B00CA1AD3B23033BB75FB7D07F118010B44BA7D03F8102C7A68144BA3FB0213DB087B60FB7D013BFB757B68092BDFD879680E4BA3FB0123DA0813469B0042
:4014400013445B00CA1AD3B23033BB75FB7D07F118010B44BA7D03F8102CFB7D07F1080213441846FFF7FEFD1837BD4680BD00BFCDCCCCCC80B582B002AF324B01221A7097
:40148000314B00221A70102000F062FC102000F04FFD1D200721FFF73BFD2C4B04221A702B4B00221A702B4B00221A702A4B2A4A1278D2B242F01802D2B21A70274B002237
:4014C0001A70274B00221A70264B00221A70264B0A221A70254B00221A70254B00221A70244B5B221A70244B5E221A70234B00221A70234B14221A7001230093002049F27F
:40150000DA014FF40042122300F01CFA1D4A0D4B1B78DBB2013B1C499B000B449B7813701A4B084A1278D2B2511E174A32F821201A80044B1B78DBB2184600F051F9BD466C
:4015400080BD00BF2881FF1F5081FF1F96580040975800409E580040075B004093580040885B0040895B004080580040815800408358004088580040895800408D58004060
:40158000014E00400E4E00405481FF1F0C4E004080B582B000AFFFF73DFA0346FB71444B1B78BB71434B434A1278D2B242F00102D2B21A703F4B3F4A1278D2B242F010025C
:4015C000D2B21A703C4B3C4A1278D2B242F00102D2B21A70384B384A1278D2B242F01002D2B21A70354B354A1278D2B242F00202D2B21A70324B324A1278D2B242F002028C
:40160000D2B21A702F4B2F4A1278D2B242F00302D2B21A700320FFF741FC284B274A1278D2B222F00202D2B21A70254B244A1278D2B222F00202D2B21A70234B224A127876
:40164000D2B242F00602D2B21A70204B7A221A701F4B1F4A1278D2B242F00102D2B21A701C4B1C4A1278D2B242F00102D2B21A70194B194A1278D2B242F00102D2B21A70B3
:40168000164B164A1278D2B242F00102D2B21A70134B4FF000521A60124B4FF000521A60FB791846FFF7BAF90837BD4680BD00BF2881FF1FAA430040BA430040F8460040DF
:4016C000F9460040915800407758004082580040A1430040B1430040A2430040B243004080E200E000E100E080B500AF084B1B78002B09D1074B1B78DBB2002B01D1FFF730
:40170000B9FE034B01221A70FFF742FF80BD00BF5281FF1F5381FF1F80B400AF054B054A1278D2B242F00102D2B21A70BD465DF8047B7047004E004080B483B000AF224B6F
:401740001B78DBB203F00303FB70FB78012B0BD81E4B1B889BB27B607B681A041C4B1B889BB213437B6020E0FB78022B12D1174B1B889BB27B607B681A04154B1B78DBB275
:4017800013437B60134B1B78DBB21B027A6813437B600AE00E4B1B889BB27B600B4B1B889BB21B047A6813437B600B4B1B78DBB2002B02D0094B00221A707B6818460C37CD
:4017C000BD465DF8047B7047144E0040124E0040104E0040114E00405181FF1F5081FF1F80B582B000AF0346FB71374B00221A70FB79012B65D1354B78221A70344B0422E5
:401800001A70344B08221A70334B0F221A70334B00221A70324B3F221A70324B00221A70314B00221A70314B00221A70304B01221A70304B50221A702F4B27221A702F4B41
:401840002C221A702E4B00221A702E4B55221A702D4B5A221A702D4B05221A702C4B02221A702C4B12221A702B4B28221A702B4BEB221A70522000F013F9294B58221A70B3
:40188000284B00221A70284B02221A70274B02221A70274B00221A70264B00221A70002000F088F9244B254A1A600520012100F095F91420012100F081FA1D202049FFF782
:4018C000FFFA0837BD4680BD5181FF1F004E0040024E0040034E0040044E0040054E0040064E0040084E0040094E00400A4E0040144E00408458004085580040865800405A
:40190000875800408A5800408B5800408C5800408E5800408F580040905800409158004094580040955800409A5800409B5800409C5800409D5800407893FF1F33330300C8
:40194000191B000080B586B000AFF871B9807A80BB7197F82030002B00F08A8097F82030012B00F28580FB79013B092B4AD801A252F823F09D190000051A0000051A000051
:401980009D190000051A0000051A0000B7190000D1190000051A0000EB190000BB790F2B04D9364B1B78DBB2FB752EE0344B1B78DBB2FB7529E0BB790F2B04D9314B1B787A
:4019C000DBB2FB7521E0304B1B78DBB2FB751CE0BB790F2B04D92D4B1B78DBB2FB7514E02B4B1B78DBB2FB750FE0BB790F2B04D9284B1B78DBB2FB7507E0274B1B78DBB2DF
:401A0000FB7502E00023FB7500BFBA8897F917305B0113443B617B883A6902FB03F3FB60FB68DB0BBB82BB790D2B11D8BA8ABB79C3F10E0342FA03F3BB8297F82030013B04
:401A4000BA790132D2B215499B000B449A7007E097F82030013B114A9B0013440F229A7097F820305A1E0D4BB98A23F8221002E00020FFF7E5F91837BD4680BD180100499A
:401A80001C010049190100491D0100491A0100491E0100491B0100491F0100495481FF1F80B584B000AF0346FB71FEF7B3FF0346FB73164B154A1278D2B242F00302D2B2B5
:401AC0001A70134B124A1278D2B242F00302D2B21A70104BFA791A700320FFF7DFF90B4B0A4A1278D2B222F00302D2B21A70084B074A1278D2B222F00302D2B21A70FB7BDC
:401B00001846FEF78BFF1037BD4680BDF8460040F94600409258004080B400AFBD465DF8047B704780B584B002AFF871B971BA807B80134B08221A70114B1978FA79BB7921
:401B40000020009000200190084611461A460823FFF79AF80A4B1978BA887B88084611461A46FFF735F8064B1B7818460321FFF701F8034B1B7818460837BD4680BD00BF27
:401B80002981FF1F80B582B000AF0023FB7106E0FB791846FEF758FEFB790133FB71FB79012BF5D9024BFF221A700837BD4680BD2A81FF1F80B582B000AF0346FB71FFF732
:401BC000E1FFFB791846FEF71FFE034BFA791A700837BD4680BD00BF2A81FF1F80B584B000AF02460B46FA807B7100F0CBF80346FB7300F0A1F80346BB81FA88BB899A429E
:401C000000F08780444B1B78DBB203F00103FB72FB7B002B20D1BB89002B02D0FB88002B1AD1BB89002B0BD13C4BFA881A803C4B3B4A1278D2B222F04002D2B21A7068E07C
:401C4000374B374A1278D2B242F04002D2B21A70324BFA881A805CE0FB7A002B33D0314B00221A70304B01221A70304B00221A702F4B2F4A1278D2B202F07F02D2B21A7060
:401C8000274B1B78DBB203F00803002B02D0FB88002B18D1274BBA891A80224B07221A7000BF204B1B78DBB203F00103002BF8D1194B194A1278D2B222F00102D2B21A7064
:401CC000184B00221A70144B1B78DBB203F00103002B13D0174BFA881A80124A7B79002B01D0032300E00123137000BF0D4B1B78DBB203F00103002BF8D10AE0074BFA88FA
:401D00001A80054B044A1278D1B2FA7A0A43D2B21A701037BD4680BDA24300408040004082400040014000401040004014400040084000400240004080B400AF034B1B885E
:401D40009BB21846BD465DF8047B70478040004080B483B000AF0346FB71094B084A1278D2B2D1B2FA7922F00702D2B20A43D2B2D2B21A700C37BD465DF8047B704700BFA7
:401D80008240004080B400AF054B1B78DBB203F00703DBB21846BD465DF8047B704700BF8240004080B400AF034B4FF000521A60BD465DF8047B704780E100E080B584B023
:401DC00000AF02460B46FA807B7100F0CBF80346FB7300F0A1F80346BB81FA88BB899A4200F08780444B1B78DBB203F00103FB72FB7B002B20D1BB89002B02D0FB88002B90
:401E00001AD1BB89002B0BD13C4BFA881A803C4B3B4A1278D2B222F04002D2B21A7068E0374B374A1278D2B242F04002D2B21A70324BFA881A805CE0FB7A002B33D0314B7E
:401E400000221A70304B01221A70304B00221A702F4B2F4A1278D2B202F07F02D2B21A70274B1B78DBB203F00803002B02D0FB88002B18D1274BBA891A80224B07221A7052
:401E800000BF204B1B78DBB203F00103002BF8D1194B194A1278D2B222F00102D2B21A70184B00221A70144B1B78DBB203F00103002B13D0174BFA881A80124A7B79002B69
:401EC00001D0032300E00123137000BF0D4B1B78DBB203F00103002BF8D10AE0074BFA881A80054B044A1278D1B2FA7A0A43D2B21A701037BD4680BDA14300400041004044
:401F000002410040014000401440004010400040084000400240004080B400AF034B1B889BB21846BD465DF8047B70470041004080B483B000AF0346FB71094B084A1278E6
:401F4000D2B2D1B2FA7922F00702D2B20A43D2B2D2B21A700C37BD465DF8047B704700BF0241004080B400AF054B1B78DBB203F00703DBB21846BD465DF8047B704700BFCE
:401F80000241004080B584B002AFF871B971BA807B80134B00221A70114B1978FA79BB790020009000200190084611461A460023FEF76AFE0A4B1978BA887B880846114668
:401FC0001A46FEF705FE064B1B7818460021FEF7D1FD034B1B7818460837BD4680BD00BF2B81FF1F80B582B000AF786000F03CF8786800F009F8062000F018F800F028F803
:402000000837BD4680BD00BF80B485B000AF7860054B1B68FB60FB6840337A681A601437BD465DF8047B704708ED00E080B483B000AF0346FB71054BFA795201D2B21A7075
:402040000C37BD465DF8047B704700BF00E400E080B400AF034B01221A60BD465DF8047B704700BF00E100E080B400AF034B01221A60BD465DF8047B704700BF80E100E0D4
:4020800080B400AF034B01221A60BD465DF8047B704700BF80E200E080B582B000AF786000F03CF8786800F009F8072000F018F800F028F80837BD4680BD00BF80B485B002
:4020C00000AF7860054B1B68FB60FB6844337A681A601437BD465DF8047B704708ED00E080B483B000AF0346FB71054BFA795201D2B21A700C37BD465DF8047B704700BFC8
:4021000001E400E080B400AF034B02221A60BD465DF8047B704700BF00E100E080B400AF034B02221A60BD465DF8047B704700BF80E100E0F8B500AF354B354A1278D2B237
:4021400042F01002D2B21A70324B324A1278D2B222F00102D2B21A702F4B3F221A702F4B3F221A702E4A2F4B11461A464FF48073084611461A4601F057FD2B4A294B1146B0
:402180001A464FF48073084611461A4601F04CFD264A274B11461A464FF48073084611461A4601F041FD234A234B11461A464FF40073084611461A4601F036FD1F4A204B02
:4021C00011461A464FF40073084611461A4601F02BFD1C4B1C4A14461E4604F1400E35462346186859689A68DB680FC5103410367445F4D1094B00221A70002000F0D0F868
:40220000052000F0E1F8114BF8221A70F8BD00BFA643004080C7004088C700408CC7004000C40040A43C000000C5004000C60040E441000000C00040A43D000000C2004073
:40224000A43F000000C70040A441000084C7004080B400AF0D4B0D4A1278D2B242F01002D2B21A700A4B0A4A1278D2B242F01002D2B21A70074B074A1278D2B242F0010223
:40228000D2B21A70BD465DF8047B7047A6430040B643004080C7004080B500AF054B1B78002B04D1FFF746FF024B01221A70FFF7CFFF80BD5881FF1F80B483B000AF024647
:4022C0000B46FA71BB71FB79002B1AD11F4B1F4A1278D2B222F03302D2B21A701B4B1B4A1278D1B2BA790A43D2B21A70174B174A1278D1B2BA791201D2B20A43D2B21A70DB
:402300001EE0FB79012B1BD1104B104A1278D2B202F03302D2B21A700C4B0C4A1278D1B2BA799200D2B20A43D2B21A70074B074A1278D1B2BA799201D2B20A43D2B21A7068
:402340000C37BD465DF8047B704700BFB0C7004080B483B000AF02460B46FA71BB71BB79012B08D10D4B0D4A1278D1B2FA790A43D2B21A700CE0BB79002B09D1074B074A45
:402380001278D1B2FA79D243D2B20A40D2B21A700C37BD465DF8047B704700BFB4C7004080B483B000AF0346FB71FB7903F01F03FB71044BFA791A700C37BD465DF8047B3B
:4023C000704700BF98C7004080B483B000AF0346FB71FB7903F00F03FB71044BFA791A700C37BD465DF8047B704700BF9CC7004080B584B002AFF871B971BA807B80134B59
:402400000A221A70114B1978FA79BB790020009000200190084611461A460A23FEF734FC0A4B1978BA887B88084611461A46FEF7CFFB064B1B7818460321FEF79BFB034B6C
:402440001B7818460837BD4680BD00BF2C81FF1F80B584B002AFF871B971BA807B80134B01221A70114B1978FA79BB790020009000200190084611461A460123FEF704FC62
:402480000A4B1978BA887B88084611461A46FEF79FFB064B1B7818460221FEF76BFB034B1B7818460837BD4680BD00BF2D81FF1F80B584B002AFF871B971BA807B80134B14
:4024C00002221A70114B1978FA79BB790020009000200190084611461A460223FEF7D4FB0A4B1978BA887B88084611461A46FEF76FFB064B1B7818460221FEF73BFB034BDE
:402500001B7818460837BD4680BD00BF2E81FF1F2DE9F04F5FEA510893B010910D900F92CDF8388000F09A804FEAC80600F1040994463244CDF844904D460C92044655F849
:40254000040CA35980109B10C2189CE8020145F8042CC01A63684FF000424FEAA30E0023C1FB0023AF594FEAE37ABF10C7EB0E0902934FF000420023C9FB0123D917069354
:4025800080FB0823DDF808B0CDF80CA04FF0000ACDE900230791524606995B46C8FB0923DDE900890991CDF820A0DDE90801B0EB080061EB090110F1004041F1000112F149
:4025C000004243F100034FEAE1790A9104930A9ACDF82C90DDF81080DDF830900CF1080CD91777445300CC454FEA480267600591A251AB5104F1080405F108059FD10DA866
:4026000007C8022300F0B8F9DDF834A0DDF840800F9A02230AEB88000E9900F0ADF9DDF83890119A0D9B0AEB091652F8045C5C689868D9686D0064004000490042F8045C98
:40264000103343F80C4C43F8080C43F8041CB34202F11002E9D113B0BDE8F08F4146022300F08AF9DDF834A0DDF840800E990F9A0AEB8800022313B0BDE8F04F00F07CB924
:402680002DE9F04F5FEA510A93B010910D900F92CDF838A000F09D8000F1040ACDF844A0DDF838A094464FEACA063244119D0C920446A35955F8042C981092101318C0EB78
:4026C000020B4FF000484FF000099CE8020445F8043CC1FB0B896368AF594FEAA30EBF10C7EB0E02CDE900894FF000484FF00009C2FB0189019B49464FEAE378CDF80C80F4
:402700004FF00008CDF8189009914FEAE979CDF820800293CDF81C90DDE908019946CAFB0B0182FB0A23B8EB020269EB030310F1004041F1000112F1004243F100034FEAF2
:40274000E17A0A910493D9170A9ACDF82CA00591DDF810A00C990CF1080C530077444FEA4A028C456760A251AB5104F1080405F108059ED10DA807C8022300F0C1FBDDF81F
:402780003480DDF840900F9A022308EB89000E9900F0B6FBDDF838A0119A0D9B08EB0A1652F8045C5C689868D9686D0064004000490042F8045C103343F80C4C43F8080C53
:4027C00043F8041CB34202F11002E9D113B0BDE8F08F5146022300F093FBDDF83480DDF840900E990F9A08EB8900022313B0BDE8F04F00F085BB00BFE0B5012A0E46054695
:402800001F46018824D0B1F5807F13D008D8202931D045D940290DD080292CD08FB9E0BDB1F5806F06D023D9B1F5006F23D0B1F5805FF3D130466A68012300F09DF8002F3E
:40284000EDD03046A989AA68BDE8E04000F032B8B1F5807F1ED013D8202904D027D9402918D08029DAD130466A68FFF709FFD5E7B1F5007FD2D130466A68FFF749FECDE7FF
:40288000B1F5806F06D00ED9B1F5006FEBD0B1F5805FC3D130466A68012300F031FBBDE71029BBD1C6E7B1F5007FDCD0B6E71029B4D1EFE74B1C012B98BF70472DE9F00393
:4028C000911C9B08B1F80480B1F802900A8831F802CC8044814402448444D9F80070D8F800601568DCF80040C9F80060C8F80070CCF800501460D9F80470D8F804605568EF
:40290000DCF80440C9F80460C8F80470CCF8045054600831013B7FF4D5AFBDE8F00370474B1C012B98BF70472DE9F003911C9B08B1F80480B1F802900A8831F802CC00EBC9
:40294000580800EB590900EB520200EB5C0CD9F80070D8F800601568DCF80040C9F80060C8F80070CCF8005014600831013B7FF4DFAFBDE8F00370472DE9F00FD6B0449108
:4029800089084F915290C90008444E935092529A43184E9C03EB010A0832509953920AF1080804EB44024F9E03F1080B00F1080543468446D2002701E000DDF84C91D8468B
:4029C0000C950E9647924697459008910A9128919B4659F8080C0C9C58F8081C5BF8082C54F8083C001109110446121158F8045C0C4402EB2312A31849F8083C0D902D11CC
:402A000059F8040C29912B95DAF80410DCF8043000112B9E05460911354401EB23116B18289F49F8043C7B68691AA21A81FB03452A903868CDE9004580FB014582FB00674A
:402A4000CDE9024582FB034503992C97FA17CE17EF170198319633970D9E299F2C9CC317F61B2E90309132952D922F93DAF804205BF8083C0444481BDCF804100D960C9EB5
:402A80001B1156F8085C6400C3EB25134000121146F8084C2A9FCCF80400C2EB21122B982B932A920A992B9D3F1A2A9C0D9A91E80900791B224481FB0345CDE9004580FB64
:402AC0000145299782FB0067CDE9024582FB034501983497FA1703993592349AC317379302444B1B52005B0008E90C002B9C36902998EF173A95089D2044CE17389195E833
:402B00000A0080FB034539963B970D9E2A9FCDE9004581FB0045F21B82FB0167CDE9024582FB034501980399C317CE17FA173C974295EF173F9341964B1B469E289D3D9207
:402B40003C9A35440244089C0E9E3E9040910A98439728950C9F4599479D52005B00083708442C44013E4BF8082C09F10809CAF804300C970CF1080C0A9008F108080894D9
:402B80000BF1080B0AF1080A0E967FF422AF4E9F4F99BF000429479740F24581519132910F460846DDF81C91BF08509D09EB4903529C07F1FF3A4FEAC70BDB00C0004FEABE
:402BC000C9014FEA091200264E97CDF800A1CDF8F8B042930C904691459238943A953C95369534963E9FDDF8E080369836993C9A3C9B3A9C3A9DB844B946BB46449E349FFF
:402C00000068496812685B6824686D68C144BE42CB4429902A912B922C932E943095DDF8E0C040F2D7803E46329F4B463E44E1460D969C4600E00D94D9F80070DCF800604A
:402C4000DBF80030D8F8005007EB060A1D4452462A449210DCF80430C9F80020DBF80410D9F80420D8F80440CDF820A00C4402EB030A0AEB04018910C9F80410D8F8040042
:402C8000D21ADBF80430BE1BC11AD8F80070DBF80000C4EB0A0A3B1A7018089F711A0691D11AD318299A7D1B2A9E2C9F089580FB02450A910790289381FB06238AFB0701AF
:402CC0002B9F18958AFB07670A9C4FEAE57A299DCDE90E6784FB05451A9312911497CDF864A0CDE90A45089F2B9E2C9C4FEAE17A1C9587FB0401DD1787FB0623079E2A9F98
:402D00001B9586FB0767CDE904671E970F9FDD17FF1711951597069D309F2E9C85FB07673098CDE908671093169185FB042326972E9DCF1728990B9C179781FB006781FB29
:402D40000501E4171D94059CDD17CA17CDF84CA0E4174FEAE77A2093229724911F942195CDF88CA02592099B1A9CDB17129E149FDDF858A01898109D1C9A27931E9B20444D
:402D80003544CAEB0704249FDDF898A0D11A229E40106410209A6D10C8F80440C8F80050CAEB0703CCF80000DDF810A10D9832440D9C0C9E329F491052105B108245CCF857
:402DC0000410B1448BE80C003C44B044B444B3443FF631AFDDF8D090DDF8D8A03C983A9A389CDDF818B14599429B409D09F10109DA4408441A440834A945CDF8D090CDF8BF
:402E0000D8A03C903A9238947FF6ECAE5199479A8908920004295191479204D94E9B32931F461846BEE6529CDDF84CC104F1200858E908ABCDF820B14FEAEB79CDF8249151
:402E4000DDF82091DCE902014A91DCE900452E46AB44C5EB0905DDF82891CA17CB444B92DCE904234FEAE379CDF83491DDF8289104EB0A014C934D440B18DDF8309106EBF6
:402E80000A01091ACB44C9EB0101C9EB0505DDF82091134448F8203CC4EB09034CF804BCDDF82891DDF820B1C9EB0303C6EB0A09C4EB0A0A5C44DDF828B1C0EB0909CCF8E5
:402EC000081050444F99DDF830A1CBEB04041344A41AD144821A0139CCF80450CCF80C30CCF81090CCF81440CCF8002008F120080CF1200C4F919BD156B0BDE8F00F70476B
:402F00002DE9F00FD6B0449189084F915290C90008444E935092529A43184E9C03EB010A0832509953920AF1080804EB44024F9E03F1080B00F1080543468446D200270145
:402F4000E000DDF84C91D8460C950E9647924697459008910A9128919B4659F8080C0C9C58F8081C5BF8082C54F8083C001109110446121158F8045C0C4402EB2312A318F6
:402F800049F8083C0D902D1159F8040C29912B95DAF80410DCF8043000112B9E05460911354401EB23116B18289F49F8043C7B68691AA21A81FB03452A903868CDE900450A
:402FC00080FB014582FB0067CDE9024582FB0345039901982C97FA17CE17EF172E90319633970D9E299F3091C3172E992C98F61B441A3295DCF804102D922F93DAF80420F9
:403000005BF8083C30980D960C9E284456F8085C640040001B1146F8084C2A9FCCF80400C3EB25132B9812112B93C2EB21120A993F1A2B9D91E809000D9C394629442A92D2
:40304000A21A81FB0345CDE9004580FB0145299782FB0067CDE902450198039982FB0345349736903891C317CE17349836993793389BFA1735922B44421AEF1752005B00D2
:4030800008E90C002B9C3B97299F3A95089D381B95E80A0080FB034539960D9A2A9ECDE9004581FB00453244CDE9024582FB01670198039982FB03454091C3173F93409BFD
:4030C000CE17FA173C973E90EF172B4442954196289D469E3C983E993544089C0E9E3D924397421A0C9F0A9828954599479D52005B00083708442C44013E4BF8082C09F1D0
:403100000809CAF804300C970CF1080C0A9008F1080808940BF1080B0AF1080A0E967FF41CAF4E9F4F99BF000429479740F24981519132910F460846DDF81C91BF08509D7E
:4031400009EB4903529C07F1FF3A4FEAC70BDB00C0004FEAC9014FEA091200264E97CDF800A1CDF8F8B042930C904691459238943A953C95369534963E9FDDF8E080369815
:4031800036993C9A3C9B3A9C3A9DB844B946BB46449E349F0068496812685B6824686D68C144BE42CB4429902A912B922C932E943095DDF8E0C040F2D4803E46329F4B4612
:4031C0003E44E1460D969C4600E00D94D9F80070DCF80060DBF80030D8F8005007EB060A1D4452462A449210DCF80430C9F80020DBF80410D9F80420D8F80440CDF820A01F
:403200000C4402EB030A0AEB04018910C9F80410D8F80400D21ADBF80430BE1BC11AD8F80070DBF80000C4EB0A0A3B1A701A089F71180691D118D31A299A7D1B2A9E2C9F21
:40324000089580FB02450A910790289381FB06238AFB07012B9F18958AFB07670A9C4FEAE57A299DCDE90E6784FB05451A9312911497CDF864A0CDE90A45089F2B9E2C9C6D
:403280004FEAE17A1C9587FB0401DD1787FB0623079E2A9F1B9586FB0767CDE904671E970F9FDD17FF1711951597069D309F2E9C85FB07673098CDE908671093169185FBD5
:4032C000042326972E9DCF1728990B9C179781FB006781FB0501E4171D94059CDD17CA17CDF84CA0E4174FEAE77A2093229724911F942195CDF88CA02592099B189C1A9D15
:40330000109E129FDB17601B1E9AF51B2793229E209B1C99DDF858A0149C1144269F9A1B249B54443B446D106410449E0D9FC8F80050C8F80440DDF830A00D9C329D4010ED
:40334000491052105B10BE42CCF80000CCF80410D1448BE80C002C44D044D444D3443FF634AFDDF8D090DDF8D8A03C983A9A389CDDF818B14599429B409D09F10109DA44D6
:4033800008441A440834A945CDF8D090CDF8D8A03C903A9238947FF6EFAEDDF84491DDF81CA14FEA990948464FEA8A0A0428CDF84491CDF81CA104D94E9932910F4608467D
:4033C000BAE6529CDDF84CC104F1200858E908ABCDF820B1DDF82091DCE902014A91DCE900454FEAEB722E46AB44C5EB0905DDF82891CB17CB4449924B93DCE904234FEA6F
:40340000E379CDF83491DDF8289104EB0A014C934D440B18DDF830911344C6EB0A0148F8203CCB44091A489B4944C9EB05054CF804BCDDF82891DDF820B12344C9EB03038D
:4034400006EB0A09C4EB0A0AC4EB0B04DDF828B1C0EB0909CCF8081050444F99DDF830A1CBEB04049B1A1444CAEB0909821A0139CCF80450CCF80C30CCF81090CCF8144062
:40348000CCF8002008F120080CF1200C4F919DD156B0BDE8F00F70472DE9F04F9BB01292920813900F46149272D093460E46824615919AE81800DAF8080083FB0389DAF886
:4034C0000C2084FB044580FB000182FB02234FEA690702976F1008974F1004975F1006974FEAE977069ACC1703970899EF170298DDF810800997DF17DAF81830DAF8105016
:4035000090440844314605940797DAF81440DAF81C70019300F05CF8311D404600F058F885FB0589019B84FB044583FB030187FB07234FEA69070A976F1010974F100C973B
:403540005F100E97CC170E9A10994FEAE9770D940A980C9C0B97EF17144411970844DF1706F108010F9700F033F806F10C01204600F02EF8BBF1010B0AF1200A06F110066A
:4035800097D113AB98CB03EB4413139307EB0417129A12F0030417D0139BBA4603F1080515E9050080FB000182FB02234E104FEA6308514606EB080000F00AF8013C05F167
:4035C00008050AF1040AEBD11BB0BDE8F08F00BF2DE9F04F002883B0009174DDB0FA80F85FFA88F808F1FF3616F0010216BFA8F1020700FA06F700FA07F73846019200F020
:4036000023F94FF0405100F073F9431030484FF09D41C01A00F06CF900F0BAFA80FB00AB4FEADA744FEA670C44EA4B0484FB0C45E20F42EA4502C2F1405280FB0201C20FE9
:4036400042EA41024FEA820989FB0945E00F40EA45008CFB0001C20F42EA4102C2F1405289FB0201C20F42EA41024FEA820989FB0901C40F44EA41048CFB0445E20F42EA8E
:403680004502C2F1405289FB0223D00F40EA4300800087FB0001019BC20F42EA4102520073B1A8F1020808EBD8784FEA680842FA08F2009B00201A6040B203B0BDE8F08F71
:4036C00076103241F5E700230B60FF20F4E700BFDF59375F80F0004002E000BF81F0004142001FBF5FEA410392EA030F7FEA226C7FEA236C6AD04FEA1262D2EB1363C1BF19
:40370000D218414048404140B8BF5B42192B88BF704710F0004F40F4000020F07F4018BF404211F0004F41F4000121F07F4118BF494292EA030F3FD0A2F1010241FA03FCEE
:4037400010EB0C00C3F1200301FA03F100F0004302D5494260EB4000B0F5000F13D3B0F1807F06D340084FEA310102F10102FE2A51D2B1F1004F40EBC25008BF20F001004F
:4037800040EA03007047490040EB000010F4000FA2F10102EDD1B0FA80FCACF1080CB2EB0C0200FA0CF0AABF00EBC25052421843BCBFD0401843704792F0000F81F40001D9
:4037C00006BF80F400000132013BB5E74FEA41037FEA226C18BF7FEA236C21D092EA030F04D092F0000F08BF0846704790EA010F1CBF0020704712F07F4F04D1400028BF8A
:4038000040F00040704712F100723CBF00F50000704700F0004343F0FE4040F4000070477FEA226216BF08467FEA23630146420206BF5FEA412390EA010F40F480007047C5
:403840004FF0000304E000BF10F0004348BF40425FEA000C08BF704743F0964301464FF000001CE050EA010208BF70474FF000030AE000BF50EA010208BF704711F0004391
:4038800002D5404261EB41015FEA010C02BF84460146002043F0B64308BFA3F18053A3F50003BCFA8CF2083AA3EBC25310DB01FA02FC634400FA02FCC2F12002BCF1004F77
:4038C00020FA02F243EB020008BF20F00100704702F1200201FA02FCC2F1200250EA4C0021FA02F243EB020008BF20EADC7070474FF0FF0C1CEAD0521EBF1CEAD15392EA8A
:403900000C0F93EA0C0F6FD01A4480EA010C400218BF5FEA41211ED04FF0006343EA501043EA5111A0FB01310CF00040B1F5000F3EBF490041EAD3715B0040EA010062F104
:403940007F02FD2A1DD8B3F1004F40EBC25008BF20F00100704790F0000F0CF0004C08BF49024CEA502040EA51207F3AC2BFD2F1FF0340EAC250704740F400004FF0000359
:40398000013A5DDC12F1190FDCBF00F000407047C2F10002410021FA02F1C2F1200200FA02FC5FEA310040F1000053EA4C0308BF20EADC70704792F0000F00F0004C02BF7C
:4039C000400010F4000F013AF9D040EA0C0093F0000F01F0004C02BF490011F4000F013BF9D041EA0C018FE70CEAD15392EA0C0F18BF93EA0C0F0AD030F0004C18BF31F03C
:403A0000004CD8D180EA010000F00040704790F0000F17BF90F0004F084691F0000F91F0004F14D092EA0C0F01D142020FD193EA0C0F03D14B0218BF084608D180EA0100CA
:403A400000F0004040F0FE4040F40000704740F0FE4040F4400070474FF0FF0C1CEAD0521EBF1CEAD15392EA0C0F93EA0C0F69D0A2EB030280EA010C49024FEA402037D04F
:403A80004FF0805343EA111143EA10130CF000408B4238BF5B0042F17D024FF4000C8B4224BF5B1A40EA0C00B3EB510F24BFA3EB510340EA5C00B3EB910F24BFA3EB910312
:403AC00040EA9C00B3EBD10F24BFA3EBD10340EADC001B0118BF5FEA1C1CE0D1FD2A3FF650AF8B4240EBC25008BF20F0010070470CF0004C4CEA50207F32C2BFD2F1FF0339
:403B000040EAC250704740F400004FF00003013A37E792F0000F00F0004C02BF400010F4000F013AF9D040EA0C0093F0000F01F0004C02BF490011F4000F013BF9D041EA8B
:403B40000C0195E70CEAD15392EA0C0F08D142027FF47DAF93EA0C0F7FF470AF084676E793EA0C0F04D14B023FF44CAF08466EE730F0004C18BF31F0004CCAD130F0004242
:403B80007FF45CAF31F000437FF43CAF5FE700BF4FEA4002B2F1FE4F0FD34FF09E03B3EB12620DD94FEA002343F0004310F0004F23FA02F018BF404270474FF00000704765
:403BC00012F1610F01D1420205D110F0004008BF6FF0004070474FF00000704770B50E4B0E4D0024ED1AAD101E46AC4204D056F8242090470134F8E700F0ECFD084D094B2D
:403C00000024ED1AAD101E46AC4204D056F8242090470134F8E770BDE0470000E0470000E8470000E047000010B50023934203D0CC5CC4540133F9E710BD02440346934213
:403C400002D003F8011BFAE77047000000000000035B00402443004040000000105100401000305100404000C05100401000F05100401000000001400010001401400008EC
:403C800000400140000A004C014000020050014020000000303132333435363738394142434445462013002561178026010080260100802601008026E00E8026C20C802624
:403CC000020080066587186D6409183E00008026032080262102187FE60E8026C80C8026000080066B87186D6A09183E00008026012080262102187F0000000000000000DE
:403D00000000000000000000000000000000000000000000000000000000000000000000000000000000000000000000000000000000000000000000000000000000000083
:403D40000000000000000000000000000000000000000000000000000000000000000000000000000000000000000000000000000000000000000000000000000000000043
:403D80000000000000000000000000000000000000000000000000000000000000000000000000000000000000000000000000000000000000000000000000000000000003
:403DC00000000000000000000000000000000000000000000000000000000000000000000000000000000000000000000000000000000000000000000000000000000000C3
:403E00000000000000000000000000000000000000000000000000000000000000000000000000000000000000000000000000000000000000000000000000000000000082
:403E40000000000000000000000000000000000000000000000000000000000000000000000000000000000000000000000000000000000000000000000000000000000042
:403E80000000000000000000000000000000000000000000000000000000000000000000000000000000000000000000000000000000000000000000000000000000000002
:403EC00000000000000000000000000000000000000000000000000000000000000000000000000000000000000000000000000000000000000000000000000000000000C2
:403F00000000000000000000000000000000000000000000000000000000000000000000000000000000000000000000000000000000000000000000000000000000000081
:403F40000000000000000000000000000000000000000000000000000000000000000000000000000000000000000000000000000000000000000000000000000000000041
:403F80000000000000000000000000000000000000000000000000000000000000000000000000007B030000D6EFFF001B140000E91D00004582FF00EF800000647500007C
:403FC0007214FE00B7E4010010420100E74EFA000B9805009AD1030023FCED007ABE0F0062B338007ABE0F0023FCED009AD103000B980500E74EFA0010420100B7E40100E2
:404000007214FE0064750000EF8000004582FF00E91D00001B140000D6EFFF007B0300007B030000D6EFFF001B140000E91D00004582FF00EF800000647500007214FE006E
:40404000B7E4010010420100E74EFA000B9805009AD1030023FCED007ABE0F0062B338007ABE0F0023FCED009AD103000B980500E74EFA0010420100B7E401007214FE0061
:4040800064750000EF8000004582FF00E91D00001B140000D6EFFF007B0300000000000000000000000000000000000000000000000000000000000000000000000000007B
:4040C00000000000000000000000000000000000000000000000000000000000000000000000000000000000000000000000000000000000000000000000000000000000C0
:40410000000000000000000000000000000000000000000000000000000000000000000000000000000000000000000000000000000000000000000000000000000000007F
:40414000000000000000000000000000000000000000000000000000000000000000000000000000000000000000000000000000000000000000000000000000000000003F
:404180000000000000000000000000000000000000000000000000000000000000000000000000001E0F00000000000000000000BD1E00009F0F00009F0F0000000000009B
:4041C00000000000000000000000000000000000000000000000000000000000000000000000000021F8050144F80B4067F81B8081F80501A6F81901C2F80701856192218D
:4042000009F9290121F9050188A2A2210000000000000000000000000000000000000000000000000000000000000000000000000000000000000000000000000000000045
:40424000000000000000000000000000000000000000000000000000000000000000000000000000000000000000000000000000000000000000000000000000000000003E
:4042800000000000000000000000000000000000000000000000000000000000000000000000000000000000000000000000000000000000000000000000000000000000FE
:4042C00000000000000000000000000000000000000000000000000000000000000000000000000000010000F4420000F4450000F0000000FF7F0000F67F2403D87F4706A0
:40430000A77F6A09627F8B0C097FAB0F9D7EC8121D7EE2158A7DF818E37C0B1C297C191F5D7B23227D7A28258A79262884781F2B6C77112E4176FB300475DE33B573BA368B
:4043400055728C39E270563C5F6F173FCA6DCE41246C7A446D6A1C47A668B449CF663F4CE864BF4EF2623351EC609B53D75EF555B45C4258825A825A4258B45CF555D75E9B
:404380009B53EC603351F262BF4EE8643F4CCF66B449A6681C476D6A7A44246CCE41CA6D173F5F6F563CE2708C395572BA36B573DE330475FB304176112E6C771F2B847879
:4043C00026288A7928257D7A23225D7B191F297C0B1CE37CF8188A7DE2151D7EC8129D7EAB0F097F8B0C627F6A09A77F4706D87F2403F67F0000FF7FDBFCF67FB8F9D87FA5
:4044000095F6A77F74F3627F54F0097F37ED9D7E1DEA1D7E07E78A7DF4E3E37CE6E0297CDCDD5D7BD7DA7D7AD9D78A79E0D48478EED16C7704CF417621CC047545C9B573DC
:4044400073C65572A9C3E270E8C05F6F31BECA6D85BB246CE3B86D6A4BB6A668C0B3CF6640B1E864CCAEF26264ACEC600AAAD75EBDA7B45C7DA5825A4BA3425828A1F5558C
:40448000139F9B530D9D3351179BBF4E30993F4C5997B44992951C47DB937A443592CE41A090173F1D8F563CAA8D8C394A8CBA36FB8ADE33BE89FB309388112E7B871F2B6E
:4044C0007586262882852825A2842322D683191F1C830B1C7582F818E281E2156281C812F680AB0F9D808B0C58806A092780470609802403008000000980DBFC2780B8F934
:40450000588095F69D8074F3F68054F0628137EDE2811DEA758207E71C83F4E3D683E6E0A284DCDD8285D7DA7586D9D77B87E0D49388EED1BE8904CFFB8A21CC4A8C45C9AD
:40454000AA8D73C61D8FA9C3A090E8C0359231BEDB9385BB9295E3B859974BB63099C0B3179B40B10D9DCCAE139F64AC28A10AAA4BA3BDA77DA57DA5BDA74BA30AAA28A11D
:4045800064AC139FCCAE0D9D40B1179BC0B330994BB65997E3B8929585BBDB9331BE3592E8C0A090A9C31D8F73C6AA8D45C94A8C21CCFB8A04CFBE89EED19388E0D47B87BF
:4045C000D9D77586D7DA8285DCDDA284E6E0D683F4E31C8307E775821DEAE28137ED628154F0F68074F39D8095F65880B8F92780DBFC0980080000041000000218000006F9
:40460000200000012800000530000003380000074000800048008004500080025800800660008001680080057000800378008007880040049000400298004006A000400161
:40464000A8004005B0004003B8004007C800C004D000C002D800C006E000C001E800C005F000C003F800C0070801200410012002180120062801200530012003380120073E
:404680004801A0045001A0025801A0066001A0016801A0057001A0037801A007880160049001600298016006A8016005B0016003B8016007C801E004D001E002D801E00697
:4046C000E801E005F001E003F801E0070802100418021006280210053002100338021007480290045002900258029006680290057002900378029007880250049802500680
:40470000A8025005B0025003B8025007C802D004D802D006E802D005F002D003F802D007080330041803300628033005380330074803B0045803B0066803B0057003B00309
:404740007803B0078803700498037006A8037005B8037007C803F004D803F006E803F005F803F00718040806280408053804080748048804580488066804880578048807CF
:4047800098044806A8044805B8044807D804C806E804C805F804C80718052806380528075805A8066805A8057805A80798056806B8056807D805E806F805E807380618078A
:4047C0005806980678069807B8065807F806D8077807B807F8B500BFF8BC08BC9E4670474D000000F1040000F8B500BFF8BC08BC9E46704729000000084800000881FF1F08
:4048000028000000501200000000000080000000807F0000070500004033BB0388F400003F0000000000447A01FFFFFFFFFFFF0000000000000000000000000000000000BE
:404840000000000000000000000000000000000000000000000000000000000000000000000000000000000000000000000000000000000000000000000000000000000038
:4048800000000000000000000000000000000000000000000000000000000000000000000000000000000000000000000000000000000000000000000000000000000000F8
:4048C00000000000000000000000000000000000000000000000000000000000000000000000000000000000000000000000000000000000000000000000000000000000B8
:404900000000000000000000000000000000000000000000000000000000000000000000000000000000000000000000000000000000000000000000000000000000000077
:020000040003F7
:0200000480007A
:400000000452004001030140010D01400414014003150140021B01400840014019410140064201400343014002440140044501400346014002470140024801400149014017
:40004000024C0140054D014003510140005A016C10801180E408E408B808BE04D804DF011C108C10EC10E010EC101204130816203A043C013E40C470CEE010081302282064
:40008000540858205E405F086001620466206A406B027C017D108510940196409A249B08C450CA40D4C0D6E0D8C0E41044204D1095109820D080D22011109510C4407C02FC
:4000C000DE01670887049C02D80145089C02D0019C02A5082510C820B5109C02A5088C029C02B508E008EC080005102A1222000000FEFE00FE00010000FFFF0080000000CB
:4001000013001801000A000000010000000200000008000000000000000000000000000000000000000000000000000000000000000000000000000000000000000000007E
:40014000000000000000000000000000000000000000000000000000000000000000000000000000000000000000000000000000000000000000000000000000000000007F
:40018000000000000000000000000000000000000000000000000000000000000000000000000000000000000000000000000000000000000000000000000000000000003F
:4001C00000000000000000000000000000000000000000000000000000000000000000000000000000000000000000000000000000000000000000000000000000000000FF
:4002000000000000000000000000000000000000000000000000000000000000000000000000000000000000000000000000000000000000000000000000000000000000BE
:0200000490006A
:0400000000004005B7
:0200000490105A
:04000000BC90ACAF55
:0200000490303A
:02000000F761A6
:0200000490402A
:4000000000000000000000000000000000000000000000000000000000000000000000000000000000000000000000000000000000000000000000000000000000000000C0
:400040000000000000000000000000000000000000000000000000000000000000000000000000000000000000000000000000000000000000000000000000000000000080
:400080000000000000000000000000000000000000000000000000000000000000000000000000000000000000000000000000000000000000000000000000000000000040
:4000C0000000000000000000000000000000000000000000000000000000000000000000000000000000000000000000000000000000000000000000000000000000000000
:0200000490501A
:0C00000000012E12306900012E2D27CACD
:00000001FF