:400000000080002011000000110300001103000080B500AF024B034A12681A6000F07CF9BC760040FA460040080002230000087608000323000010760800042300003076EA
:40004000050005230000207005000623000030700500FE23000070701000082200001051400009220000305110000A220000C0511000FE220000F05180090C2200000000F3
:4000800080000D220000000A80040E220000800B80010F2200000014800510220000001600021122000000428000122200000045800013220000004780001422000000494A
:4000C000800015220000004C800016220000004D2000FE2200000050800018230000800A800019230000804D80001A230000804C80001B230000804780001C230000004687
:4001000080001D230000804680001E230000804580001F23000000448000202300008044800021230000801B80002223000080158000232300008009800024230000000B4C
:400140008000252300008049800026230000004880002723000080488000282300000041800029230000804180002A23000000408000FE2300008040010000000100000042
:4001800001000000004801400100000000200140010000000020004010B5054C237833B9044B13B10448AFF300800123237010BD3081FF1F00000000441C000008B5064B13
:4001C0001BB106480649AFF300800648036813B1054B03B1984708BD00000000441C00003481FF1F0881FF1F0000000080B500AF01F004F900F0BEFC00F0D4FC00F0AEFE9D
:4002000000F0E0FF00F002F862B6FEE780B584B000AF012001214FF480424FF4804300F03FFB0346FB7301F079FB0346BB73BB7B18460121FF22002301F09EFBBB7B1846CD
:4002400044F610614CF2A27201F0CEFBFA7BBB7B1046194601F0FCFAFB7B1846012101F045FA042001214FF4804241F6FF7301F081FC03467B7301F051FB03463B723B7AD9
:4002800018464FF48061FE22022301F075FB3A7A1E4B9BB210464CF2A8711A4601F0A4FB3B7A7A7B1046194601F0D2FA7B7B1846012101F01BFA012001214FF480424FF4EC
:4002C000804301F027FC03463B7301F027FB03463B713B7918460121FE22002301F04CFB3B7918464CF2A87145F6823201F07CFB3B793A7B1046194601F0AAFA3B7B1846F2
:40030000012101F0F3F91037BD4680BD6481FF1F80B400AFFEE700BF80B586B000AF224B7B61224B3B61204B7B6135E03B691B68FB603B695B68BB603B699B683B6000237C
:400340007B600CE0FB681A68BB681A60BB680433BB60FB680433FB607B6804337B607A683B689A42EED13B69DB683B6000237B6008E0BB6800221A60BB680433BB607B6836
:4003800004337B607A683B689A42F2D13B6910333B617B69013B7B617B69002BC6D101F019FCFFF723FFFEE7010000005423000080B582B000AF184B184A1A60184B184A4D
:4003C000126842F400721A6000237B600FE07B68032B04D8134B7A6853F8223000E0124B124A796842F821307B6801337B607B682F2BECD90E4B1B78DAB20E4B1A700E4BFD
:400400000A4A1A6000F0C8F901F042F90B4B00221A600837BD4680BD0CED00E00004FA0514ED00E000000000110300000080FF1FBC7600400481FF1F08ED00E00081FF1FA8
:4004400080B582B000AF78603960786800213A6801F0EFFB0837BD4680BD00BF80B584B000AFF860B9607A60F868B9687A6801F0D7FB1037BD4680BD80B483B000AF0346CA
:40048000FB71FEE780B582B000AF3F4B00221A603E4B10221A703E4B01221A703D4B00221A703D4B4FF4A8721A803C4B01221A703B4B03221A703B4B3B4A92B21A803B4BA9
:4004C00047F608021A803A4B00221A80394B4FF480421A80384B07221A70384B0B221A70374B17221A70BFF35F8F364B01221A70BFF35F8F00BF284B1B889BB2002BFAD17C
:4005000000237B600CE07B68DA002F4B13442F4A796852F8212092B21A807B6801337B607B68292BEFD9BFF35F8F264B01221A70BFF35F8F00BF264B1B78DBB203F00103EA
:40054000002BF8D100BF234B1B78DBB203F00103002BF8D100BF204B1B78DBB203F00103002BF8D100BF1D4B1B78DBB203F00103002BF8D11A484FF090410622FFF76EFFEB
:400580000837BD4680BD00BF5081FF1F00760040107000401970004000780040027800400378004004780040280000000678004004760040067600402970004039700040C8
:4005C00079700040147000400C780040481C0000187000402870004038700040787000401051014080B582B000AF3B4B00221A803A4B50221A703A483A490422FFF72EFF6D
:40060000394B02221A704FF0402308221A70374B03221A70364B374A1278D2B21A70364B08221A80354B41F251221A800023FB7019237B6013E0FB785B00DAB2304B1B7862
:40064000DBB203F00103DBB21343DBB203F00303FB70782001F008F87B68013B7B607B68002B02D0FB78032BE5D17B68002B02D10320FFF701FF234B4FF480721A80214BC5
:4006800007221A70204B00221A70204B48221A701C4B00221A701E4B02221A701D4B04221A701D4B1C4A1278D2B242F00102D2B21A701A4B194A1278D2B242F00102D2B221
:4006C0001A70174B164A1278D2B262F07F02D2B21A700837BD4680BD804000408240004000410040180A00480043004000420040A14600400801004922420040204200408F
:4007000025420040044000400640004008400040014000400B400040A2430040A1430040A043004080B483B000AF124B1B78FB71114BFA7902F00702D2B21A700F4BFA79F1
:400740001209D2B21A700E4B81221A700D4B80221A700D4B01221A700C4B10221A700C4B80221A700B4B44221A700C37BD465DF8047B7047CF0100496E5800406F5800406E
:400780000D5100402C510040935A0040005B0040045B00407658004080B500AF72B62F4B01221A70FFF71EFF2C4B81221A702C4B2B4A1278D2B242F00402D2B21A70FFF749
:4007C00061FE284B0A221A7027480421FFF738FE26480421FFF734FE25480421FFF730FE244B244A1278D2B242F00202D2B21A70214B214A1278D2B242F00202D2B21A70E8
:400800001E4B1E4A1278D2B242F04002D2B21A701B4B1B4A1278D2B242F01002D2B21A70184819490822FFF719FE184818490822FFF714FE174B174A1278D2B242F0080233
:40084000D2B21A70144B01221A70FFF76BFF13480A490E22FFF702FE80BD00BF00480040E8460040835800400076004050760040407600400350014013500140A043004010
:40088000C243004002510040080A004822510040100A00482243004004000840B043004080B584B002AFF871B971BA807B80134B0A221A70114B1978FA79BB790020009093
:4008C00000200190084611461A46002300F0DEFF0A4B1978BA887B88084611461A4600F079FF064B1B781846022100F045FF034B1B7818460837BD4680BD00BF0C81FF1FF9
:4009000080B582B002AF324B01221A70314B00221A70102000F048FD102000F07BFE1D20072101F0D5F82C4B04221A702B4B00221A702B4B00221A702A4B2A4A1278D2B2CA
:4009400042F01802D2B21A70274B00221A70274B00221A70264B00221A70264B0A221A70254B00221A70254B00221A70244B12221A70244B13221A70234B00221A70234B82
:4009800014221A7001230093042048F6B6514FF40042082300F0C4F91D4A0D4B1B78DBB2013B1C499B000B449B7813701A4B084A1278D2B2511E174A32F821201A80044B11
:4009C0001B78DBB2184600F0FDF8BD4680BD00BF0D81FF1F5881FF1F96580040975800409E580040075B004093580040885B0040895B0040805800408158004083580040FF
:400A000088580040895800408D580040014E00400E4E00405C81FF1F0C4E004080B582B000AF00F02BFE0346FB71444B1B78BB71434B434A1278D2B242F00102D2B21A70F2
:400A40003F4B3F4A1278D2B242F01002D2B21A703C4B3C4A1278D2B242F00102D2B21A70384B384A1278D2B242F01002D2B21A70354B354A1278D2B242F00202D2B21A70EF
:400A8000324B324A1278D2B242F00202D2B21A702F4B2F4A1278D2B242F00302D2B21A70032000F0DBFF284B274A1278D2B222F00202D2B21A70254B244A1278D2B222F0A4
:400AC0000202D2B21A70234B224A1278D2B242F00602D2B21A70204B7A221A701F4B1F4A1278D2B242F00102D2B21A701C4B1C4A1278D2B242F00102D2B21A70194B194A1A
:400B00001278D2B242F00102D2B21A70164B164A1278D2B242F00102D2B21A70134B4FF000521A60124B4FF000521A60FB79184600F0A8FD0837BD4680BD00BF0D81FF1F30
:400B4000AA430040BA430040F8460040F9460040915800407758004082580040A1430040B1430040A2430040B243004080E200E000E100E080B500AF084B1B78002B09D138
:400B8000074B1B78DBB2002B01D1FFF7B9FE034B01221A70FFF742FF80BD00BF5A81FF1F5B81FF1F80B400AF054B054A1278D2B242F00102D2B21A70BD465DF8047B704797
:400BC000004E004080B582B000AF0346FB71364B00221A70FB79012B62D1344B38221A70334B04221A70334B07221A70324B00221A70324B00221A70314B0F221A70314BD5
:400C000000221A70304B00221A70304B00221A702F4B01221A702F4B14221A702E4B09221A702E4B0A221A702D4B00221A702D4B11221A702C4B12221A702C4B01221A704A
:400C40002B4B01221A702B4B11221A702A4B19221A702A4B97221A70442000F00FF9284B58221A70274B00221A70274B05221A70264B01221A70264B00221A70254B0A2241
:400C80001A70254B7D221A600720012100F0D2FA1E20012100F004FC1D20204900F0F0FE0837BD4680BD00BF5981FF1F004E0040024E0040034E0040044E0040054E00403E
:400CC000064E0040084E0040094E00400A4E0040144E0040845800408558004086580040875800408A5800408B5800408C5800408E5800408F58004090580040915800407C
:400D000094580040955800409A5800409B5800409C5800409D5800406491FF1FF50E000080B586B000AFF871B9807A80BB7197F82030002B00F08A8097F82030012B00F293
:400D40008580FB79013B092B4AD801A252F823F0790D0000E10D0000E10D0000790D0000E10D0000E10D0000930D0000AD0D0000E10D0000C70D0000BB790F2B04D9364BBC
:400D80001B78DBB2FB752EE0344B1B78DBB2FB7529E0BB790F2B04D9314B1B78DBB2FB7521E0304B1B78DBB2FB751CE0BB790F2B04D92D4B1B78DBB2FB7514E02B4B1B78CE
:400DC000DBB2FB750FE0BB790F2B04D9284B1B78DBB2FB7507E0274B1B78DBB2FB7502E00023FB7500BFBA8897F917305B0113443B617B883A6902FB03F3FB60FB68DB0BF7
:400E0000BB82BB790D2B11D8BA8ABB79C3F10E0342FA03F3BB8297F82030013BBA790132D2B215499B000B449A7007E097F82030013B114A9B0013440F229A7097F82030B4
:400E40005A1E0D4BB98A23F8221002E0002000F0F9FD1837BD4680BD180100491C010049190100491D0100491A0100491E0100491B0100491F0100495C81FF1F80B584B00B
:400E800000AF0346FB7100F0F9FB0346FB73164B154A1278D2B242F00302D2B21A70134B124A1278D2B242F00302D2B21A70104BFA791A70032000F0D1FD0B4B0A4A1278A6
:400EC000D2B222F00302D2B21A70084B074A1278D2B222F00302D2B21A70FB7B184600F0D1FB1037BD4680BDF8460040F94600409258004080B400AFBD465DF8047B7047C3
:400F000080B500AF064B00221A70064B00221A70002000F057F8022000F034F880BD00BF285800402958004080B400AF094B094A1278D2B242F00402D2B21A70064B064A3A
:400F40001278D2B242F00402D2B21A70BD465DF8047B7047A8430040B843004080B500AF074B1B78002B04D1FFF7CAFF044B01221A70FFF7D9FF642000F044F880BD00BF2B
:400F80006081FF1F80B483B000AF0346FB710C4B0B4A1278D2B222F00202D2B21A70084B074A1278D1B2FA7902F00202D2B20A43D2B21A700C37BD465DF8047B704700BF00
:400FC0002858004080B582B000AF0346FB710C4B0B4A1278D2B222F00C02D2B21A70084B074A1278D1B2FA7902F00C02D2B20A43D2B21A7000F016F80837BD4680BD00BF3F
:401000002858004080B483B000AF0346FB71044BFA791A700C37BD465DF8047B704700BF825B004080B483B000AF0B4B1B78DBB203F00C039B08DBB20633FB71074AFB7904
:4010400003F1924303F594731B78DBB213700C37BD465DF8047B7047285800400A460040F8B500AF354B354A1278D2B242F01002D2B21A70324B324A1278D2B222F001020D
:40108000D2B21A702F4B3F221A702F4B3F221A702E4A2F4B11461A464FF48073084611461A4600F0BDFD2B4A294B11461A464FF48073084611461A4600F0B2FD264A274B6E
:4010C00011461A464FF48073084611461A4600F0A7FD234A234B11461A464FF40073084611461A4600F09CFD1F4A204B11461A464FF40073084611461A4600F091FD1C4B69
:401100001C4A14461E4604F1400E35462346186859689A68DB680FC5103410367445F4D1094B00221A70002000F05CF8012000F06DF8114BF8221A70F8BD00BFA64300408B
:4011400080C7004088C700408CC7004000C40040F01C000000C5004000C600403022000000C00040F01D000000C20040F01F000000C70040F021000084C7004080B400AFB5
:401180000D4B0D4A1278D2B242F01002D2B21A700A4B0A4A1278D2B242F01002D2B21A70074B074A1278D2B242F00102D2B21A70BD465DF8047B7047A6430040B643004033
:4011C00080C7004080B500AF054B1B78002B04D1FFF746FF024B01221A70FFF7CFFF80BD6181FF1F80B483B000AF0346FB71FB7903F01F03FB71044BFA791A700C37BD4619
:401200005DF8047B704700BF98C7004080B483B000AF0346FB71FB7903F00F03FB71044BFA791A700C37BD465DF8047B704700BF9CC7004080B584B000AF02460B46FA806B
:401240007B7100F0CBF80346FB7300F0A1F80346BB81FA88BB899A4200F08780444B1B78DBB203F00103FB72FB7B002B20D1BB89002B02D0FB88002B1AD1BB89002B0BD1A7
:401280003C4BFA881A803C4B3B4A1278D2B222F04002D2B21A7068E0374B374A1278D2B242F04002D2B21A70324BFA881A805CE0FB7A002B33D0314B00221A70304B0122F6
:4012C0001A70304B00221A702F4B2F4A1278D2B202F07F02D2B21A70274B1B78DBB203F00803002B02D0FB88002B18D1274BBA891A80224B07221A7000BF204B1B78DBB2DE
:4013000003F00103002BF8D1194B194A1278D2B222F00102D2B21A70184B00221A70144B1B78DBB203F00103002B13D0174BFA881A80124A7B79002B01D0032300E0012343
:40134000137000BF0D4B1B78DBB203F00103002BF8D10AE0074BFA881A80054B044A1278D1B2FA7A0A43D2B21A701037BD4680BDA2430040804000408240004001400040C7
:401380001040004014400040084000400240004080B400AF034B1B889BB21846BD465DF8047B70478040004080B483B000AF0346FB71094B084A1278D2B2D1B2FA7922F06B
:4013C0000702D2B20A43D2B2D2B21A700C37BD465DF8047B704700BF8240004080B400AF054B1B78DBB203F00703DBB21846BD465DF8047B704700BF8240004080B500AF81
:4014000000F042F8044800F00FF8072000F01EF800F02EF880BD00BF1D14000080B400AFBD465DF8047B704780B485B000AF7860054B1B68FB60FB68B4337A681A6014374F
:40144000BD465DF8047B704708ED00E080B483B000AF0346FB71054BFA795201D2B21A700C37BD465DF8047B704700BF1DE400E080B400AF034B4FF000521A60BD465DF815
:40148000047B704700E100E080B400AF034B4FF000521A60BD465DF8047B704780E100E080B584B000AF02460B46FA807B7100F0CBF80346FB7300F0A1F80346BB81FA8819
:4014C000BB899A4200F08780444B1B78DBB203F00103FB72FB7B002B20D1BB89002B02D0FB88002B1AD1BB89002B0BD13C4BFA881A803C4B3B4A1278D2B222F04002D2B276
:401500001A7068E0374B374A1278D2B242F04002D2B21A70324BFA881A805CE0FB7A002B33D0314B00221A70304B01221A70304B00221A702F4B2F4A1278D2B202F07F02E3
:40154000D2B21A70274B1B78DBB203F00803002B02D0FB88002B18D1274BBA891A80224B07221A7000BF204B1B78DBB203F00103002BF8D1194B194A1278D2B222F00102AB
:40158000D2B21A70184B00221A70144B1B78DBB203F00103002B13D0174BFA881A80124A7B79002B01D0032300E00123137000BF0D4B1B78DBB203F00103002BF8D10AE007
:4015C000074BFA881A80054B044A1278D1B2FA7A0A43D2B21A701037BD4680BDA14300400041004002410040014000401440004010400040084000400240004080B400AFC2
:40160000034B1B889BB21846BD465DF8047B70470041004080B483B000AF0346FB71094B084A1278D2B2D1B2FA7922F00702D2B20A43D2B2D2B21A700C37BD465DF8047BF2
:40164000704700BF0241004080B400AF054B1B78DBB203F00703DBB21846BD465DF8047B704700BF024100400230800800F0058000BF013800467FF4FCAF7047EFF31080B2
:4016800072B6704780F31088704700BFAFF3008080B483B000AF134B7F221A70124B80221A707F23FB710CE0FB79DB0003F1804303F5F043FA79013AD2B21A70FB79013BE9
:4016C000FB71FB79002BEFD1FB79DB0003F1804303F5F04300221A700C37BD465DF8047B704700BF1181FF1F1081FF1F80B485B000AF02460B46FA71BB710123FB60FB7918
:40170000172B2FD8BB79002B0ED0FB791A01194B1344FA791101174A0A441278D2B242F02002D2B21A700DE0FB791A01114B1344FA7911010F4A0A441278D2B222F0200298
:40174000D2B21A70FB791A010A4B1344FA791101084A0A441278D2B242F00102D2B21A700023FB60FB6818461437BD465DF8047B704700BF1070004080B485B000AF0246B3
:401780000B46FA71BB710123FB60FB79172B18D8FB791A010E4B13441B78DBB223F00E03FB72FB791A010A4B1344BA7902F00702D2B25200D1B2FA7A0A43D2B21A70002378
:4017C000FB60FB6818461437BD465DF8047B70471070004080B485B000AF13460246FA710A46BA807B800123FB60BA8841F6FF739A4202D14FF40053BB807A8841F6FF73F6
:401800009A4202D14FF400537B80FB79172B17D8FB79DB0003F1804303F5EC430433BB60BB68BA881A80FB79DB0003F1804303F5EC430633BB60BB687A881A800023FB6087
:40184000FB6818461437BD465DF8047B704700BF80B485B000AF02460B46FA71BB710123FB60FB79172B07D8FB791A01064B1344BA795A720023FB60FB6818461437BD46F0
:401880005DF8047B704700BF1070004080B485B000AFF871B9717A713B710123FB60FB79172B34D8FB79DB0003F1804303F5EC43BA7902F07F02D1B27A79D201D2B20A43AE
:4018C000D2B21A70FB79DB0003F1804303F5EC433A7E1201D1B23A7902F00F02D2B20A43D2B25A70FB79DB0003F1804303F5EC433A7F02F00F02D2B29A70FB79DB0003F1D0
:40190000804303F5EC430022DA700023FB60FB6818461437BD465DF8047B704780B582B000AFFF23FB71FFF7A9FE0346BB71104B1B78182B12D90F4B1B78FB710C4B1B7824
:40194000013BDAB20A4B1A70FB79DB0003F1804303F5F0431B78DAB2064B1A70BB791846FFF790FEFB7918460837BD4680BD00BF1081FF1F1181FF1F80B485B000AFF8718F
:40198000B980BA71FB700123FB60FB795BB2002B23DBBB8823F47F6323F00F039BB2002B1BD1FB79DB0003F1804303F5F043BB60BB68BA881A80FB79DB0003F1804303F521
:4019C000F043BA799A70FB79DB0003F1804303F5F043FA78DA700023FB60FB6818461437BD465DF8047B704780B485B000AF13460246FA710A46BA807B800123FB60FB79D6
:401A00005BB2002B17DBFB79DB0003F1804303F5F0430433BB60BB68BA881A80FB79DB0003F1804303F5F0430633BB60BB687A881A800023FB60FB6818461437BD465DF8D4
:401A4000047B704780B483B000AF0346FB7101BE0C37BD465DF8047B704700BF80B582B000AF0346FB80FB88044A127802FB03F31846FFF7F9FD0837BD4680BD2081FF1F66
:401A800080B584B000AF03463960FB710F4B1B68FB60FB791F2B02D90020FFF7D3FFFB7903F01F0310339B00FA6813441B68BB60FB7903F01F0310339B00FA6813443A6887
:401AC0001A60BB6818461037BD4680BD08ED00E080B582B000AF02460B46FA71BB71BB79072B02D90020FFF7ADFFFB791F2B02D90020FFF7A7FFFB7903F01F0303F16043D1
:401B000003F56443BA795201D2B21A700837BD4680BD00BF80B584B002AFF871B971BA807B80134B00221A70114B1978FA79BB790020009000200190084611461A4600232B
:401B4000FFF7A4FE0A4B1978BA887B88084611461A46FFF73FFE064B1B7818460221FFF70BFE034B1B7818460837BD4680BD00BF2881FF1F80B584B002AFF871B971BA80DB
:401B80007B80134B08221A70114B1978FA79BB790020009000200190084611461A460023FFF774FE0A4B1978BA887B88084611461A46FFF70FFE064B1B7818460221FFF705
:401BC000DBFD034B1B7818460837BD4680BD00BF2981FF1F70B50E4B0E4D0024ED1AAD101E46AC4204D056F8242090470134F8E700F09EFB084D094B0024ED1AAD101E46E6
:401C0000AC4204D056F8242090470134F8E770BD3C2300003C230000442300003C23000010B50023934203D0CC5CC4540133F9E710BD02440346934202D003F8011BFAE7D5
:401C400070470000000000009001000088010000800100007801000078010000780100005081FF1F5081FF1F5081FF1F5081FF1F5081FF1F5081FF1F5081FF1F5081FF1F2F
:401C80005081FF1F5081FF1F5081FF1F5081FF1F5081FF1F5081FF1F5081FF1F5081FF1F080000488800004808010048880100480802004888020048080300488803004820
:401CC000080400488804004808050048880500480806004888060048080700488807004808080048880800480809004888090048201300256117802601008026E00E802625
:401D0000C20C8026020080066587186D6409183E00008026032080262102187F0000000000000000000000000000000000000000000000000000000000000000000000004A
:401D40000000000000000000000000000000000000000000000000000000000000000000000000000000000000000000000000000000000000000000000000000000000063
:401D80000000000000000000000000000000000000000000000000000000000000000000000000000000000000000000000000000000000000000000000000000000000023
:401DC00000000000000000000000000000000000000000000000000000000000000000000000000000000000000000000000000000000000000000000000000000000000E3
:401E000000000000000000000000000000000000000000000000000000000000000000000000000000000000000000000000000000000000000000000000000000000000A2
:401E40000000000000000000000000000000000000000000000000000000000000000000000000000000000000000000000000000000000000000000000000000000000062
:401E80000000000000000000000000000000000000000000000000000000000000000000000000000000000000000000000000000000000000000000000000000000000022
:401EC00000000000000000000000000000000000000000000000000000000000000000000000000000000000000000000000000000000000000000000000000000000000E2
:401F000000000000000000000000000000000000000000000000000000000000000000000000000000000000000000000000000000000000000000000000000000000000A1
:401F40000000000000000000000000000000000000000000000000000000000000000000000000000000000000000000000000000000000000000000000000000000000061
:401F80000000000000000000000000000000000000000000000000000000000000000000000000000000000000000000000000000000000000000000000000000000000021
:401FC000000000000000000000000000000000000000000000000000000000000000000000000000000000000000000000000000A6FEFF0093FFFF00EB010000330200008C
:40200000D2FDFF002EFAFF00000000007C0A0000170700001CF3FF00FBEBFF007F070000E5230000680B00008ED1FF0035D2FF00D32600005B590000000000005B83FF0025
:4020400060B4FF00CD7C0000A5B1000084C2FF00BDEDFE0043AEFF004D3A0100782601004311FF0038EFFD0000000000C5B90200C4A001005054FD002E2DFC00C659010036
:40208000A1440600C1FE0100847CF7001A96F60096180A00AD44270052553500AD44270096180A001A96F600847CF700C1FE0100A1440600C65901002E2DFC005054FD00FC
:4020C000C4A00100C5B902000000000038EFFD004311FF00782601004D3A010043AEFF00BDEDFE0084C2FF00A5B10000CD7C000060B4FF005B83FF00000000005B5900003D
:40210000D326000035D2FF008ED1FF00680B0000E52300007F070000FBEBFF001CF3FF00170700007C0A0000000000002EFAFF00D2FDFF0033020000EB01000093FFFF0003
:40214000A6FEFF00000000000000000000000000000000000000000000000000000000000000000000000000000000000000000000000000000000000000000000000000BC
:40218000000000000000000000000000000000000000000000000000000000000000000000000000000000000000000000000000000000000000000000000000000000001F
:4021C000000000000000000000000000000000000000000000000000000000000000000000000000000000000000000000000000542A000000000000000000000000000061
:4022000000000000000000000000000000000000000000000000000000000000000000000000000000000000000000000000000021F805014210864064F8150181F8050176
:4022400043518E210000000000000000000000000000000000000000000000000000000000000000000000000000000000000000000000000000000000000000000000001B
:40228000000000000000000000000000000000000000000000000000000000000000000000000000000000000000000000000000000000000000000000000000000000001E
:4022C00000000000000000000000000000000000000000000000000000000000000000000000000000000000000000000000000000000000000000000000000000000000DE
:40230000000000000000000000000000000000000000000000000000000000000000000000000000000000000000000000000000F8B500BFF8BC08BC9E467047BD01000060
:40234000B1030000F8B500BFF8BC08BC9E46704799010000682300000881FF1F28000000401000000000000000000000FF010000807F00000105000000366E01C05D00001F
:40238000180000000000E02EFFFF000000000000000000000000000000000000000000000000000000000000000000000000000000000000000000000000000000000000F9
:4023C00000000000000000000000000000000000000000000000000000000000000000000000000000000000000000000000000000000000000000000000000000000000DD
:40240000000000000000000000000000000000000000000000000000000000000000000000000000000000000000000000000000000000000000000000000000000000009C
:40244000000000000000000000000000000000000000000000000000000000000000000000000000000000000000000000000000000000000000000000000000000000005C
:40248000000000000000000000000000000000000000000000000000000000000000000000000000000000000000000000000000000000000000000000000000000000001C
:020000040003F7
:0200000480007A
:4000000001000000000000000000000000000000000000000000000000000000000000000000000000000000000000000000000000000000000000000000000000000000BF
:400040000200000000000100000000000000000000000000000000000000000000000000040000000000000100000000000000000000000000000000000000000000000078
:400080000000000000000000000000000000000000000000000000000000000000000000000000000000000000000000000000000000000000000000000000000008000038
:4000C00000000000000000000000000000000000000000000000000000000000000000000000000000000000000000000000000000000000080000000000000000000000F8
:4001000000000000000000000000000000000000000000000000000000000000000000000000000000000000000000000008000000000000000000000000000000000000B7
:40014000000000000000000000000000000000000000000000000000000000000000000000000000000000000000000000000000000000000000000000000000000000007F
:400180000000000000000000000000000000000000000000000000000000000000000000000000000000000000000000000800000000000000000000000000000100000036
:4001C00000000000000000000000000000000000000000000000000000000000000000000000000000000000000000000000000000000000080000000000000000000000F7
:4002000000000000000000000000000000000000000000000000000000000000000000000000000000000000000000000000000000000000000000000000000000000000BE
:400240000000000000000000000000000008000000000000000000000000000000000000000000000000000000000000000000000000000000000000000000000000000076
:40028000000000000000000000000000000000000000000000000000000000000100000000000000000000000000000000000000000000000000000000000000000000003D
:4002C00000000000000000000000000000000000000000000000000001000000000000000000000000000000000000000000000000000000000000000000000000000000FD
:4003000000000000000000000000000000000000000000000000000000000000010000000000000000000000000000000000000000000000000000000000000000000000BC
:40034000000000000000000000000000000000000000000000000000000000000000000000000000000000000000000000000000000000000000000000000000000000007D
:40038000000000000000000000000000000000000000000000000000000000000000000000000000000000000000000000000000000000000000000000000000000000003D
:4003C00000000000000000000000000000000000000000000000000000000000000000000000000000000000000000000000000000000000000000000000000000000000FD
:4004000000000000010000000000000000000000000000000000000000000000000000000000000000000000000000000000000000000000000000000000000000000000BB
:40044000000000000000000000000000000000000000000000000000000000000000000000000000000001000000000000000000000000000000000000000000000000007B
:40048000000000000000000000000000000000000000000000000000000000000000000000000000000000000000000000000000000000000000000000000000000000003C
:4004C00000000000000000000000000000000000000000000000000000000000000000000000000000000000000000000000000000000000100000000000000000000000EC
:4005000000000000000000000000000000000000000000000000000000000000000000000000000000000000000000000000000000000000000000000000000000000000BB
:40054000000000000000000000000000000000000000000000000000000000000000000000000000000000000000000000000000000000001000000000000000000000006B
:400580000000000000000000000000000000000000000000000000000000000000000000000000000000000000000000000000000000000000000000000000000002000039
:4005C00000000000000000000000000000000000000000000000000000000000000000000000000000000000000000000000000000000000000000000000000000000000FB
:4006000000000000000000000000000000000000000000000000000000000000000000000000000000020000000000000000000000000000000000000000000000000000B8
:40064000000000000000000000000000000000000000000000000000000000000000000000000000000000000000000000000000000000000000000000000000000000007A
:40068000000000000000000000000000000000000000000000000000000000000000000000000000000000000000000000000000000000000000000000000000001000002A
:4006C00000000000000000000000000000000000000000000000000000000000000000000000000000000000000000000000000000000000000000000000000000000000FA
:4007000000000000000000000000000000000000000000000000000000000000000000000000000000000000000000000010000000000000000000000000000000000000A9
:400740000000000000000000000000000000000000000000000000000000000000000000000000000000000000000000000000000000000000000000000000000000000079
:400780000000000000000000000000000000000000000000000000000000000000000000000000000000000000000000000000000000000000000000000000000000000039
:4007C00000000000000000000000000000000000200000000000000000000000000000000000000000000000000000000000000000000000000000000000000000000000D9
:400800000000000000000000000000000000000000000000000000000000000000000000000000000000000000000000000000000000004000000000000000000000000078
:400840000000000000000000000000000000000000000000000000000000000000000000000000000000000000000000000000000000000000000000000000000000000078
:4008800000000000000000000000000000000000000000000000000000000000000000000000000000000000000000000000004000000000000000000000000000000000F8
:4008C00000000000000000000000000000000000000040000000000000000000000000000000000000000000000000000000000000000000000000000000000000000000B8
:4009000000000000000000000000000000000000000000000000000000000000000000000000000000000000000000000000000000000000000000000000000000000000B7
:4009400000000000000000800000000000000000000000000000000000000000000000000000000000000000000000000000000000000000000000000000000000000000F7
:400980000000000000000000000000000000000000000000000000000000000000000000000000000000000000000000000000000000000000000000000000000000000037
:4009C00000000000000000000000000000000000000000000000200000000000000000000000000000000000000000000000000000000000000000000000000000000000D7
:400A00000000000000000000000000000000810000000000000080001E0018010000000000000000000000000000000000000000000000000000000000000000000000007E
:400A40000000000000000000000000000000000000000000000000000000000000000000000000000000000000000000000000000000000000000000000000000000000076
:400A80000000000000000000000000000000000000000000000000000000000000000000000000000000000000000000000000000000000000000000000000000000000036
:400AC00000000000000000000000000000000000000000000000000000000000000000000000000000000000000000000000000000000000000000000000000000000000F6
:400B000000000000000000000000000000000000000000000000000000000000000000000000000000000000000000000000000000000000000000000000000000000000B5
:0200000490006A
:0400000000004004B8
:0200000490105A
:04000000BC90ACAF55
:0200000490303A
:0200000002AA52
:0200000490402A
:4000000000000000000000000000000000000000000000000000000000000000000000000000000000000000000000000000000000000000000000000000000000000000C0
:400040000000000000000000000000000000000000000000000000000000000000000000000000000000000000000000000000000000000000000000000000000000000080
:400080000000000000000000000000000000000000000000000000000000000000000000000000000000000000000000000000000000000000000000000000000000000040
:4000C0000000000000000000000000000000000000000000000000000000000000000000000000000000000000000000000000000000000000000000000000000000000000
:0200000490501A
:0C00000000012E12306900012E1D331388
:00000001FF