:400000000080002011000000850300008503000080B500AF024B034A12681A6000F0B6F9BC760040FA46004010B5054C237833B9044B13B10448AFF300800123237010BD5A
:400040009889FF1F00000000345E000008B5064B1BB106480649AFF300800648036813B1054B03B1984708BD00000000345E00009C89FF1F0881FF1F0000000080B400AF92
:40008000034B01221A70BD465DF8047B704700BF048BFF1F80B584B000AF7860786801F03FFA0346BB730023FB7311E0FB7B7A6813441B787A7B9A4208D1FB7B0133FB7354
:4000C000FA7BBB7B9A4203D3012309E00023FB7300F04AFE03467B737B7B002BE6D1002318461037BD4680BD80B58AB000AF7860396007F10803184610497A683B6801F0F7
:40010000E9F90F4800F04CFF0A2001F07DF807F10803184600F044FF4FF4FA6001F074F80848FFF7B7FF0346002B01D0012300E0002318462837BD4680BD00BF405E00006B
:40014000585E0000685E000080B58CB000AF78600023FB85786801F0E3F90346FB85FB8D07F10C02104609491A4601F0B3F907F10C03184600F014FF0A2001F045F878681F
:4001800000F00EFF3037BD4680BD00BF705E000080B5ADF57A7D00AF0D4B1B883A4610460C491A4601F096F9094B1B8801339AB2074B1A803B461846FFF7C6FF642001F019
:4001C00023F8054800F0ECFE07F57A77BD4680BDBC89FF1F845E0000385F000080B582B000AF00237B60554800F084FF62B600F0EBFC00F03BFB0020002100F047FB504870
:4002000000F0CEFE4FF4FA6000F0FEFF4D48FFF741FF0346002B03D04B4800F06DFB02E04A4800F069FB4FF47A7000F0EDFF484B00221A6015E047484749FFF755FF0346D4
:40024000002B09D001237B600020002100F01EFB424800F051FB08E03D4B1B685A1C3C4B1A603B4B1B68042BE5DD642000F0CCFF3B4800F095FE4FF47A7000F0C5FF394860
:4002800000F08EFE4FF47A7000F0BEFF364800F087FE00F0FDFD052000F0B6FF3348FFF7F9FE0346002B1FD0314B00221A7017E000F018FD03461A462E4B1A702C4B1B789C
:4002C0002C4A11782C4AD154294B1B780133DAB2274B1A7000F09CFD03461A46274B1A70264B1B78002BE3D10120002100F0CEFA234800F001FB204800F0FEFA4FF47A70C2
:4003000000F082FF14E000F0EDFC03461A46194B1A70184B1B78472B04D1642000F074FFFFF736FF00F074FD03461A46134B1A70124B1B78002BE6D100BFF9E77D000000B9
:40034000485F0000545F00005C5F0000685F0000B889FF1F745F00007C5F0000885F0000A05F0000B05F0000C45F0000D05F0000B489FF1F058BFF1F848AFF1F048BFF1F6B
:40038000DC5F000080B400AFFEE700BF80B586B000AF214B7B61214B3B611F4B7B611F4B3B612FE03B691B68FB603B695B68BB603B699B683B6000237B600AE0BB681A1D2E
:4003C000BA60FA68111DF96012681A607B6804337B607A683B689A42F0D13B69DB683B6000237B6007E0BB681A1DBA6000221A607B6804337B607A683B689A42F3D13B69BA
:4004000010333B617B695A1E7A61002BCAD100F079FFFFF7E3FEFEE701000000E465000080B582B000AF174B174A1A60174B174A126842F400721A6000237B600FE07B68F0
:40044000032B04D8124B7A6853F8223000E0114B114A796842F821307B6801337B607B682F2BECD90D4B1B78DAB20D4B1A700D4B094A1A6000F026F90B4B00221A600837E1
:40048000BD4680BD0CED00E00004FA0514ED00E000000000850300000080FF1FBC7600400481FF1F08ED00E00081FF1F80B582B000AF78603960786800213A6800F0C0FFB7
:4004C0000837BD4680BD00BF80B584B000AFF860B9607A60F868B9687A6800F03BFF1037BD4680BD80B584B000AFF860B9607A60F868B9687A6800F02DFF1037BD4680BDDE
:4005000080B483B000AF0346FB71FEE780B487B000AF7860396000233B6100237B6126E07B699B007A6813441B68BB60BB68FB73BB6823F0FF03BB6013E03B695B003A68EE
:4005400013441B781A46BB6813443A69520039680A4452781A703B6901333B61FB7B013BFB73FB7B002BE8D17B6901337B617B69102BD5D91C37BD465DF8047B704700BF30
:4005800080B582B000AF304B0C221A802F4B18221A702F4B02221A704FF0402308221A702C4B03221A702C4B2C4A1278D2B21A702B4B08221A802B4B41F251221A80002368
:4005C000FB7019237B6014E0FB785B00DAB2264B1B78DBB203F00103DBB21343DBB203F00303FB704FF4F07000F0EEFD7B68013B7B607B68002B02D0FB78032BE4D17B683E
:40060000002B02D10320FFF77BFF184B4FF480721A80164B07221A70154B00221A70154B48221A70114B00221A70134B02221A70124B124A1278D2B242F00102D2B21A7065
:400640000837BD4680BD00BF80400040824000400043004000420040A14600400801004922420040204200402542004004400040064000400840004001400040A243004097
:4006800080B483B000AF0B4B1B78FB710A4BFA7902F00702D2B21A70084BFA791209D2B21A70074B44221A700C37BD465DF8047B704700BFCF0100496E5800406F58004017
:4006C0007658004080B582B000AF72B6364B364A1278D2B242F00402D2B21A700023FB7113E0FA7913465B0013445B002F4A13443B603B681A683B689B889BB210461946A6
:40070000FFF7D4FEFB790133FB71FB79082BE8D927482849FFF7FAFE274B274A1278D2B242F00202D2B21A70244B244A1278D2B242F00202D2B21A70214B214A1278D2B25E
:4007400042F04002D2B21A701E4B1E4A1278D2B242F01002D2B21A701B481C490A22FFF7C1FE1B481B490822FFF7BCFE1A4B1A4A1278D2B242F00802D2B21A70174B0122D6
:400780001A70FFF7FDFE154B81221A70144B01221A70FFF775FF134809490E22FFF794FE0837BD4680BD00BFE8460040E45F00001C600000606000000350014013500140F3
:4007C000A0430040C243004000510040246400002251004030640000224300400048004004000840B043004080B500AF282000F00BFD032000F0B8F9052000F005FD032063
:4008000000F0B2F90F2000F0FFFC032000F0ACF9012000F0F9FC022000F0A6F9052000F0F3FC062000F09EF80E2000F09BF82C2000F098F8082000F095F8012000F092F827
:400840000C2000F08FF8032000F08CF8052000F0DBFC80BD80B500AF0C2000F083F8024B01221A7080BD00BFC089FF1F80B500AF054B1B78002B04D1FFF7B6FF024B01225B
:400880001A70FFF7E7FF80BDC189FF1F80B582B000AF02460B46FA71BB71FB79032B27D801A252F823F000BFB9080000C7080000D5080000E3080000BB79803BDBB2184655
:4008C00000F050F815E0BB79403BDBB2184600F049F80EE0BB796C3BDBB2184600F042F807E0BB792C3BDBB2184600F03BF800E000BF0837BD4680BD80B584B000AF786084
:400900000123FB737B681B78BB730BE0BB7B184600F00EF8FB7B7A6813441B78BB73FB7B0133FB73BB7B002BF0D11037BD4680BD80B584B000AF0346FB7100F02DF8FB7985
:400940001B09FB73FB7B184600F0D2F8FB7903F00F03FB73FB7B184600F0CAF81037BD4680BD00BF80B584B000AF0346FB7100F013F8FB791B09FB73FB7B184600F0F4F826
:40098000FB7903F00F03FB73FB7B184600F0ECF81037BD4680BD00BF80B582B000AF4F4B4E4A1278D2B222F07F02D2B21A704C4B1B78DBB223F00F03FB71494BFA7942F0EA
:4009C0000F02D2B21A70474B1B78DBB223F00F03FB71444BFA791A70434B1B78DBB223F00F03FB71404BFA791A703C4B3B4A1278D2B222F02002D2B21A70384B374A127858
:400A0000D2B242F04002D2B21A70002000F01EFC324B324A1278D2B242F01002D2B21A70012000F013FC314B1B78FB712B4B2B4A1278D2B222F01002D2B21A70002000F057
:400A400005FCFB7903F00803FB71244B234A1278D2B242F01002D2B21A70012000F0F6FB1E4B1E4A1278D2B222F01002D2B21A70FB79002BC9D1194B184A1278D2B222F029
:400A80004002D2B21A70154B144A1278D2B222F07F02D2B21A70124B114A1278D2B222F00F02D2B21A700F4B1B78DBB223F00F03FB710C4BFA7942F00F02D2B21A700A4B07
:400AC0001B78DBB223F00F03FB71074BFA7942F00F02D2B21A700837BD4680BD205100402251004023510040245100402151004080B582B000AF0346FB711A4B194A127814
:400B0000D2B242F02002D2B21A70164B154A1278D2B222F04002D2B21A70002000F096FB104B104A1278D2B222F00F02D2B21A700C4B0C4A1278D1B2FA790A43D2B242F0DA
:400B40001002D2B21A70012000F080FB054B054A1278D2B222F01002D2B21A700837BD4680BD00BF2051004080B582B000AF0346FB71144B134A1278D2B222F06002D2B26E
:400B80001A70104B0F4A1278D2B222F00F02D2B21A700C4B0B4A1278D1B2FA790A43D2B242F01002D2B21A70012000F04FFB054B044A1278D2B222F01002D2B21A700837F1
:400BC000BD4680BD2051004080B500AF054B1B78002B04D100F008F8024B01221A7000F033F880BDC289FF1F80B500AF00200F4900F03EFB0020072100F062FB0C4B762289
:400C00001A700C4B20221A7001200B4900F030FB0120072100F054FB084B0F221A70084B90221A70074B02221A7080BDE10F00008564004083640040891000002264004076
:400C4000326400408164004080B582B000AF00F0C5FA0346FB71134B124A1278D2B242F02002D2B21A70104B0F4A1278D2B242F01002D2B21A700D4B01221A600C4B0C4A1F
:400C80001278D2B242F01002D2B21A70074B02221A6000F07DFAFB79184600F0A3FA0837BD4680BD956400409364004000E100E09164004080B400AF034B01221A60BD4668
:400CC0005DF8047B704700BF00E100E080B400AF034B01221A60BD465DF8047B704700BF80E100E080B582B000AFFFF7EFFF194B1B78BB71184B1B787B71184B1B78DBB20B
:400D0000002B03D1BA797B799A4218D0BB79144AD35CFB71BB790133BB71BB79FF2B01D10023BB710B4BBA791A700C4B1B78DBB2002B03D0094B00221A7003E002E0094BE8
:400D40001B78FB71FFF7B6FFFB7918460837BD4680BD00BFC589FF1FC689FF1FC789FF1F088BFF1F4464004080B582B000AF0023FB71FFF7ABFF204B1B78BB711F4B1B786D
:400D80007B711F4B1B78DBB2002B03D1BA797B799A4218D0BB791B4AD35CFB71BB790133BB71BB79FF2B01D10023BB71124BBA791A70134B1B78DBB2002B03D0104B002279
:400DC0001A7012E011E0104B1B783B713B7903F02003002B09D00D4B1B78FB713B7903F01E03002B01D00023FB71FFF763FFFB7918460837BD4680BDC589FF1FC689FF1FF2
:400E0000C789FF1F088BFF1F636400404464004080B582B000AFFFF759FF1A4B1B78DAB2194B1B78DBB29A420AD1184B1B78DBB2002B02D0FF23FB711DE00023FB711AE0ED
:400E4000104B1B78DAB2104B1B78DBB29A4208D20D4B1B78DAB20B4B1B78DBB2D31AFB7109E0094B1B78DAB2064B1B78DBB2D31ADBB2013BFB71FFF71DFFFB79184608376F
:400E8000BD4680BDC589FF1FC689FF1FC789FF1F80B582B000AF00F0A1F90346FB71134B124A1278D2B242F00102D2B21A700F4B0E4A1278D2B222F00102D2B21A70FB79F4
:400EC000184600F08FF9FFF701FF094B00221A70084B00221A70084B00221A70074B00221A70FFF7E7FE0837BD4680BD94640040C589FF1FC689FF1FC789FF1FC889FF1FE2
:400F000080B485B000AF0346FB71204B1B78FB731F4B1B78BB73FA7BBB7B9A4208D2FA7BBB7B013B9A4214BF00230123DBB207E0FA7BBB7BD31AFE2B14BF00230123DBB233
:400F4000002BE2D1BA7BFB7B9A420AD1114B1B78DBB203F00403002B03D10F4BFA791A700EE0FB7BFF2B01D10023FB73FB7B0B4AF979D154FB7B0133FB73044BFA7B1A70AC
:400F80001437BD465DF8047B704700BFC489FF1FC389FF1F6164004041640040088CFF1F80B584B000AF78600023FB810B4B1B78002B10D009E0FB897A6813441B7818460E
:400FC000FFF79EFFFB890133FB81FB897A6813441B78002BEFD11037BD4680BDC289FF1F80B483B000AF0023BB71204B1B78FB7131E01F4B1B78DBB21E4A1278D1B21E4AB8
:40100000D1540123BB71BB79002B21D01B4B1B78DBB2002B02D01A4B01221A70144B1B78DBB20133DAB2124B1A70114B1B78DBB2FF2B02D10E4B00221A700D4B1B78DAB23B
:40104000104B1B78DBB29A4202D10C4B01221A70064B1B78FB71FB7903F02003002BC8D10C37BD465DF8047B704700BF63640040C689FF1F44640040088BFF1FC789FF1F99
:40108000C889FF1FC589FF1F80B400AF16E0144B1B78DBB2FF2B02D1114B00221A70114B0F4A1278D2B210498A5CD2B21A700C4B1B78DBB20133DAB2094B1A70084B1B78ED
:4010C000DAB20A4B1B789A4206D0094B1B78DBB203F00403002BDAD0BD465DF8047B7047C389FF1F41640040088CFF1FC489FF1F6164004080B582B000AF786000F03CF876
:40110000786800F009F8072000F018F800F028F80837BD4680BD00BF80B485B000AF7860054B1B68FB60FB6848337A681A601437BD465DF8047B704708ED00E080B483B0FC
:4011400000AF0346FB71054BFA795201D2B21A700C37BD465DF8047B704700BF02E400E080B400AF034B04221A60BD465DF8047B704700BF00E100E080B400AF034B04225B
:401180001A60BD465DF8047B704700BF80E100E080B400AF094B094A1278D2B242F00102D2B21A70064B064A1278D2B242F00102D2B21A70BD465DF8047B7047A2430040A7
:4011C000B2430040000000000230800800F0058000BF013800467FF4FCAF7047EFF3108072B6704780F31088704700BFAFF3008080B483B000AF0346FB7101BE0C37BD46B4
:401200005DF8047B704700BF80B582B000AF786008E00C4B1B681846FFF7D6FF7B68A3F500437B607B68B3F5004FF2D8064B1B687A6802FB03F31846FFF7C6FF0837BD464A
:4012400080BD00BF1881FF1F1081FF1F80B582B000AF0346FB80FB88044A127802FB03F31846FFF7B1FF0837BD4680BD1481FF1F80B584B000AF03463960FB710F4B1B686B
:40128000FB60FB791F2B02D90020FFF7B1FFFB7903F01F0310339B00FA6813441B68BB60FB7903F01F0310339B00FA6813443A681A60BB6818461037BD4680BD08ED00E09D
:4012C00080B582B000AF02460B46FA71BB71BB79072B02D90020FFF78BFFFB791F2B02D90020FFF785FFFB7903F01F0303F1604303F56443BA795201D2B21A700837BD46FF
:4013000080BD00BF70B50F4E0F4D761BB61007D0043D0024013455F8043F9847A642F9D10A4E0B4D05F04AF9761BB61008D0043D0024013455F8043F9847A642F9D170BDEB
:4013400070BD00BFC8650000C8650000D4650000C8650000844641EA000313F0030349D1403A23D30B6803604B6843608B688360CB68C3600B6903614B6943618B698361D6
:40138000CB69C3610B6A03624B6A43628B6A8362CB6AC3620B6B03634B6B43638B6B8363CB6BC36340304031403ADBD230320BD30B6803604B6843608B688360CB68C3605D
:4013C00010301031103AF3D20C3205D351F8043B40F8043B043AF9D2043208D0D2071CBF11F8013B00F8013B01D30B8803806046704700BF082A13D38B07B1D010F00303CD
:40140000AED0C3F10403D21ADB071CBF11F8013B00F8013BA4D331F8023B20F8023B9FE7043AD9D3013A11F8013B00F8013BF9D20B7803704B7843708B7883706046704771
:40144000F0B4840743D0541E002A3ED0CDB2034603E0621E002C38D0144603F8015B9A07F7D1032C2AD9CDB245EA05250F2C45EA054515D9A4F110073F0903F1100606EB6C
:4014800007161A46156055609560D5601032B242F8D104F00F040137032C03EB07130DD91E462246043A032A46F8045BFAD8221F22F003020432134404F003042CB1C9B222
:4014C0001C4403F8011BA342FBD1F0BC704714460346C6E70EB4F0B59CB021AC54F8042B0E49064623464FF4027E6FF0004508684FF6FF7702A9029606960194ADF814E06B
:4015000004950795ADF8167000F03AF8029B00221A701CB0BDE8F04003B070474885FF1F20F0030110F00300C0F1000051F8043B00F1040C4FEACC0C6FF000021CBF22FA30
:401540000CF213434FF0010C4CEA0C2C4CEA0C4CA3EB0C0222EA030212EACC1204BF51F8043B0430F4D013F0FF0F1FBF013013F47F4F013013F47F0F18BF0130704700BFCC
:401580002DE9F04FC9B010930C9191460D9002F047FA00681590FFF7C3FF0C9C1890A3891E0603D52369002B01F0818038ACA44608942B9400250024CDE916450023119346
:4015C0002D932C931A9319930E93664699F80030002B00F0F880252B00F0F58009F1010201E0252B04D0137814460132002BF8D1C9EB04057DB12C9B2D9A01332A44072B62
:40160000C6F8009075602D922C9300F3C28008360E9828440E902378002B00F0C280002394F801801A468DF88F300F93099304F101094FF0FF340A9409F10109A8F120030D
:40164000582B00F2C583DFE813F06A02C303C3037102C303C303C303C303C303C30314036603C3039D00C000C30378027F027F027F027F027F027F027F027F027F02C303A2
:40168000C303C303C303C303C303C303C303C303C30390027103C3037103C303C303C303C3036A03C303C3037800C303C303C303C303C3035900C303C303AF02C303C3036B
:4016C000C303C303C303C303C303C303C303C30337034803710371037103FF024803C303C3030803C303C5027C002003A303C303D902C3035F00C303C303DE00DDF824C03B
:401700004CF0100CCDF824C0099CA20600F15483099CE30600F1BD85DDF824C01CF0400F00F0B785DDF840C00025BCF800400CF1040C0123CDF840C08CE0099D45F0100552
:401740000995DDF824C01CF0200340F02A83DDF824C01CF0100240F0A485DDF824C01CF0400300F09E85DDF840C01346BCF800400CF1040C0025CDF840C06BE00F9C109309
:4017800064420F94099D45F00405099599F8008052E70D980C992BAA02F074FF40B938AE36E72D9B23B10D980C992BAA02F06AFF0C9C0E98A38913F0400F18BF4FF0FF306D
:4017C00049B0BDE8F08F4C4625E799F8008009F10100B8F12A0F01F00C81A8F13003092B98BF002101F26B8010F8018B01EB810103EB4101A8F13003092BF5D941EAE171EF
:401800000A9181461AE7099DA14CAF061A948DF88F2040F1D181DDF840C00CF1070323F0070303F108041094D3E90045DDF824C01CF0010F00F0628454EA050000F05E843A
:4018400030234CF0020C8DF890308DF89180CDF824C002234FF0000A8DF88FA00A99002905DBDDF824C02CF0800CCDF824C054EA050040F0C5820A99002940F0C182002B4B
:4018800040F03884DDF824C01CF0010F00F0328448AF3023089D07F8413DEC1BDDF828C000256445A8BFA446CDF82CC01495BAF1000F02D00B9D01350B95099B13F0020362
:4018C000129302D00B9D02350B95DDF824C01CF0840CCDF84CC040F090820F9DDDF82CC0CCEB050BBBF1000F40F38782BBF1100F2D992C9ADFF8A0A12CDD1B973046574622
:401900001025CA460C9EA1460D9C06E0ABF1100BBBF1100F00F1080017DD01321031072A2D912C9207604560F0DD204631462BAA02F0A8FE00287FF43BAFABF1100BBBF1A7
:40194000100F2D992C9A38A8E7DC4C46D146BA461B9F064601320BEB010C072ACDF8B4C02C9286E8000C00F31A849DF88FA00836BAF1000F0FD02C9B0CF1010C01330DF163
:401980008F010122072BCDF8B4C02C9386E8060000F3A4830836129B73B12C9B0CF1020C013324A90222072BCDF8B4C02C9386E8060000F387830836139D802D00F0CA8244
:4019C0000A9DC4EB050ABAF1000F3BDDBAF1100F2C9B304D2BDD0A9432464FF0100B2E4661460D9C0C9D06E0AAF1100ABAF1100F02F1080217DD01331031072B2D912C9343
:401A000082E84008F0DD204629462BAA02F03AFE00287FF4CDAEAAF1100ABAF1100F2D992C9B38AAE7DC0A9C35468C4616460133D444072BCDF8B4C02C9386E8200400F342
:401A400035830836099DED0500F124822C9BA4440133072BCDF8B4C0376074602C9300F30F830836099C630749D50F9D0B982C1A002C44DD102C2C9BDFF81CA02BDD5746BC
:401A800010256246DDF83080DDF834A00BE000BF746400004064000094640000103C102C06F1080615DD01331032072B2D922C9337607560F2DD504641462BAA02F0E2FD5A
:401AC00000287FF475AE103C102C2D9A2C9B38AEE9DC9446BA460133A444072BCDF8B4C02C93C6F800A0746009DD0D980C992BAA02F0C8FD00287FF45BAEDDF8B4C00E9CC2
:401B00000B980F9DA842ACBF241864190E94BCF1000F40F0C18200232C9338AE56E599F80080002A7FF488AD202285E5099D45F00105099599F800807EE5099D45F0800592
:401B4000099599F8008077E50024A8F130030F94214619F8018B01EB810103EB4101A8F13003092BF5D90F9168E5DDF824C08DF88F204CF0100CCDF824C0099CA50640F1FB
:401B8000B280109DE91D21F00701D1E900230831109114461D46002A73F1000CC0F294839DF88FA0012359E6099DB64CAF068DF88F201A943FF52FAE099DED0640F1438448
:401BC000DDF840C00025DCF800400CF1040CCDF840C02BE6DDF824C08DF88F201CF0200F00F04084109C21680E9CE5172B46109D224604351095C1E90023E7E4109C4FF056
:401C0000000A27688DF88FA0251D002F00F0E9850A9C3846002CC0F29B855146224602F09FF9002800F013860A9CC01BA042B8BF0446109524EAE475CDF828A0CDF850A0BA
:401C40000B959DF88FA032E6DDF824C04CF0400CCDF824C099F80080EEE499F800804B46B8F16C0F00F07F84099D45F010050995E2E4109C109D24682B1D002C0F94FFF61D
:401C80007DAD109399F80080D6E4109BDDF824C0109D7D4804351C684FF0780830234CF0020C10958DF89030CDF824C000258DF891801A900223CDE5109B109D1A680124CF
:401CC000002304359A460B948DF8B82010958DF88F300A9314932EAFEFE5099C8DF88F20A5063FF54EAFDDF824C01CF0100F40F0DF82DDF824C01CF0400F00F0D982DDF870
:401D000040C0BCF900400CF1040CE51722462B46CDF840C03FE799F800802B228CE4099D45F00805099599F8008085E4109D8DF88F20EB1D23F0070303F1080CCDF840C040
:401D4000D3E90045CDE91645DDE9160102F060FC0128DDE9160140F05C830022002303F039FD002840F063859DF88FA003250B95099D464F25F08005454B0024099500258B
:401D80000A94B8F1470FD8BF1F46032414958EE5DDF824C04CF0200CCDF824C099F800804AE4109CE31D23F0070303F108051095D3E9004500234DE5109DEB1D23F00703A7
:401DC00003F1080CD3E90045CDF840C0012341E58DF88F20B8F1000F3FF4E3AC00234FF0010C9A46CDF82CC08DF8B8808DF88F300A93149364462EAF5FE5DDF8B4C0B7E528
:401E0000012B00F0EC80022B0DF1DF0318D1DDF868C0194604F00F0022091CF8000042EA05722B09087052EA03000F4614461D4601F1FF31EED1089DCDE91E23EC1B2DE550
:401E4000E00840EA457004F00702E908303250EA010C1F461A7004460D4603F1FF33EFD1099CCDE91C01E007394640F1C180302A00F0BE80089D1F463023EC1B01F8013C20
:401E80000CE500BF60640000746400005464000050640000B8F1650F40F3AD80DDE9160100220023CDF81CC003F08AFCDDF81CC0002800F026812C9BAA4901330CF1010C49
:401EC0000122072BCDF8B4C02C9386E8060000F3ED820836259B119CA34203DB099DEC077FF5C0AD2C9B189C0133159DA444072BCDF8B4C0356074602C9300F33E83083609
:401F0000119D6C1E002C7FF7ADAD102C2C9B964D40F3978110276246DDF83480DDF830A004E00836103C102C40F38A8101331032072B2D922C9386E8A000F2DD4046514627
:401F40002BAA02F09FFB00287FF432AC2D9A2C9B38AEE7E70F9D0B98C0EB050ABAF1000F7FF72EADBAF1100F2C9B7F4D2BDD129432464FF0100B2E4661460D9C0C9D06E001
:401F8000AAF1100ABAF1100F02F1080217DD01331031072B2D912C9382E84008F0DD204629462BAA02F06EFB00287FF401ACAAF1100ABAF1100F2D992C9B38AAE7DC129C62
:401FC00035468C4616460133D444072BCDF8B4C02C9386E8200400F30F820836F0E4002D08BF0A2C80F03881303448AF07F8414D089DEC1B52E4119C012C2C9C40F3D28155
:4020000001340CF101030122072C2D9337602C94726000F3D8810836159DDDF8608001343560189D9844072CCDF8B4802C94756000F3D5810836DDE916010022002303F082
:40204000BFFB119D002840F0B9806B1E013401379844072C2C94CDF8B4803760736000F3E2800836DDF864C00134199DC44427AB072CCDF8B4C02C9486E828007FF7F1AC19
:402080000D980C992BAA02F0FDFA00287FF490ABDDF8B4C038AEE5E40D980C992BAA02F0F1FA00283FF437ADFFF782BB0D980C992BAA02F0E7FA00287FF47AABDDF8B4C0E1
:4020C00038AEBFE40D980C992BAA02F0DBFA00287FF46EABDDF8B4C038AE6DE40D980C992BAA02F0CFFA00287FF462ABDDF8B4C038AE50E40A9C38AFFFF7D0BB0223FFF72F
:40210000A9BB259B002B40F3DD81119C149DDDF844A0AC42A8BF2C46002CBA440BDD2C9BA4440133072BCDF8B4C0376074602C9300F31E830836149D24EAE4742C1B002CFB
:4021400040F3D780102C2C9B074D40F3A3810A974FF010082F4662462546DDF834B00C9C09E000BF90640000406400000836103D102D40F38B8101331032072B2D922C93D9
:4021800086E88001F2DD584621462BAA02F07AFA00287FF40DAB2D9A2C9B38AEE7E70D980C992BAA02F06EFA00287FF401AB9DF88FA0DDF8B4C038AEFFF7DABB6F1E002F92
:4021C0007FF750AF102FAE4D23DD43464FF0100ADDF83480DDF830B004E0103F102F06F1080615DD01341033072C2D932C9486E82004F2DD404659462BAA02F043FA0028CA
:402200007FF4D6AA103F102F2D9B2C9C38AEE9DC98460134B844072CCDF8B4802C9486E8A0007FF71EAF0D980C992BAA02F02AFA00287FF4BDAADDF8B4802C9C38AE11E7B0
:4022400094460133A444072BCDF8B4C02C93356074607FF706AC13E70DF1DF0B204629460A22002303F006FB30328BF80020204629460A22002303F0FDFA04460D4654EAC5
:40228000050C5F460BF1FF3BE8D1089DEC1BFFF705BB109D01232C68043510950025FFF7D9BA109D2C68043510950025FFF7D2BA109D2C6804351095E51722462B46002A42
:4022C00073F1000CBFF66CAC4FF02D0A644265EB45058DF88FA00123FFF7C0BA0D980C992BAA02F0CFF900287FF462AADDF8B4C038AE149D259C2F44119DAC4242DB099DB0
:40230000E9073FD41198C7EB0A05041BAC42B8BF2546002D0BDD2C9BAC440133072BCDF8B4C0376075602C9300F34C82083625EAE575641B002C7FF795AB102C2C9B504D42
:402340007FF77FAF10276246DDF83480DDF830A004E00836103C102C7FF772AF01331032072B2D922C9386E8A000F2DD404651462BAA02F087F900287FF41AAA2D9A2C9B17
:4023800038AEE7E7189D2C9BAC44159D01333560189D072BCDF8B4C075602C9300F3F4810836AFE7099DEA073FF52AAE01340CF101080123072CCDF8B4802C94376073603A
:4023C0007FF74FAE2FE70D980C992BAA02F05AF900287FF4EDA92D9B2C9C38AE1CE60D980C992BAA02F04EF900287FF4E1A9DDF8B4802C9C38AE1EE60D980C992BAA02F0FE
:4024000041F900287FF4D4A9DDF8B4C038AEFFF7D7BA02F0FDF8002840F0BB80099C194F194B4FF0030C24F0800409940A90CDF82CC01490B8F1470FD8BF1F4664469DF8FD
:402440008FA0FFF734BA099C640640F15081DDF840C00025BCF800400CF1040CCDF840C0FFF7E4B9DDF824C01CF0100F00F04681109C0E9D2368043410941D60FFF7A6B8BB
:40248000406400005C640000586400002C463D460A9F94460133A444072BCDF8B4C02C93356074603FF71AAF083622E70D980C992BAA02F0E7F800287FF47AA9DDF8B4C098
:4024C00038AE07E52C9AB74901320CF1010C0120072ACDF8B4C02C923160706000F3F78008361C462CB9119D1DB9099DE8077FF5B9AA2C9B159D189901333560189D614431
:40250000072B2D9175602C9300F3DE8106F108026442002C40F30B81102CA34D40F34881A34610260C46DDF83480DDF830A006E00832ABF1100BBBF1100F40F337810133AB
:402540001034072B2D942C9382E86000F0DD404651462BAA02F096F800287FF429A92D9C2C9B38AAE5E7099C09F1010944F02004099493F80180FFF75FB80D980C992BAADB
:4025800002F080F800287FF413A9DDF8B4C038AEB6E40A9D28F0200A013500F0A580BAF1470F04D10A9D002D08BF01250A95DDF824C0DDE916234CF4807C002BCDF848C03B
:4025C000C0F29C81DDE91645CDE920454FF0000BB8F1660F00F09B81B8F1460F00F0A981BAF1450F0ABF0A9C0A9D651C022025A926AA29AB8DE821000392049302910D9820
:40260000DDE9202300F0D8FAB8F1670F074602D0B8F1470F05D1DDF824C01CF0010F00F09C81BAF1460F07EB050400F01C81DDE920010022002303F0C3F8002840F005819A
:40264000299B9C4206D930215A1C29921970299B9C42F9D8DB1BBAF1470F119300F0ED80B8F1650F40F3F281B8F1660F00F06881259C1494119C149DAC4200F33281DDF879
:4026800024C01CF0010F40F0AD8125EAE5732C464FF06708BBF1000F40F0B280129D0B930995CDF828B09DF88FA0FFF700B90D98402101F0B9F920602061002800F0BF811B
:4026C000DDF830C04023CCF81430FEF76FBF0D980C992BAA01F0D6FF00287FF469A8259CDDF8B4C038AEFDE606240A945FE7109D2C68043510950025FFF798B8DDF824C0D2
:402700001CF0400F00F08780109C0E9D2368043410941D80FEF75ABF0D980C992BAA01F0B1FF00287FF444A82D992C9B38AADDF844C00133119C8C44072BCDF8B4C02C9374
:40274000176054603FF79CAC02F10806FFF78AB9CDF828A0FEF7E4FE10950A9D20EAE07C0446CDF82CC014959DF88FA0FFF79FB80D980C992BAA01F085FF00287FF418A8BC
:40278000DDF8B4C038AED6E40D980C992BAA01F079FF00287FF40CA8259CDDF8B4C038AEB0E500BF906400004064000021465C4601332144072B2D912C9315605460ABDC7C
:4027C0000832B4E70D980C992BAA01F05BFF00287EF4EEAF259C1199DDF8B4C00C1B38AEA5E50A9CBA46062C28BF062424EAE47C0A9714971095CDF82CC0974FFFF757B834
:40280000129D4FF02D0A099500250B938DF88FA00A95FFF74FB8DDF840C00E9CDCF800300CF1040CCDF840C01C60FEF7CFBE4FF02D0A8DF88FA0FFF799BA259BDC1C19DB50
:402840000A9C9C4216DB149314E7234602E724EAE47CCDF82CC00A9C10950A9014909DF88FA0FFF724B83B78302B00F0AD80259D2C44DCE6A8F10208591E00292591BABF20
:4028800049422D232B2309298DF89C808DF89D3065DC302330318DF89E308DF89F1028AB119D27AA119C9A1A012D1992144440F3B7800134002524EAE4731495EAE60024A4
:4028C00081460A94FEF7BABE0D980C992BAA01F0D9FE00287EF46CAF259C2D992C9B38AA16E6149C119D002CD4BFC4F1020401242C4424EAE4734FF06708CBE617991698AF
:4029000001F10041209021914FF02D0B60E60A9D032025A926AA29AB019500900392049302910D98DDE9202300F046F90A9D074677E60A9C032025A926AA29AB0194ECE753
:40294000259D0A9C002D149563DDB4BB099DE80733D4149C24EAE4739CE6299B7AE60DF1AA023E4DCB1785FB0150C3EBA00000EB8003A1EB43010928134601F130021A7067
:40298000014603F1FF32ECDC00F130010DF1AB04C9B2944203F8011C5AD90DF19D001A4601E012F8011BA24200F8011FF9D10DF5907CC3EB4C03F63B72E70A9D6C1C149D3B
:4029C0002C4424EAE47365E6DDE920010022002302F0F6FE00287FF44AAFC5F1010525952C4424E6149D4FF067086C1C24EAE47350E6109DDDF840C02D680CF10403002D57
:402A000099F801800A9510938146BEF615AEFEF710BE7CB9099DE9070CD401231C4639E6DDF824C01CF001037FF443AF149324EAE4732FE60A9DAC1C24EAE4732AE60D9D14
:402A40000C232B604FF0FF30FEF7BABE259B13E70DF19E0324E700BF8864000067666666024B13B1024800F005B8704700000000F1390000014600200246034601F082BE07
:402A80002DE9F04F03690D6983B09D42834600F38C80013D01F1140400F1140A54F825205AF825300132B3FBF2F8AA00914600925244A1440192B8F1000F3ED00026304628
:402AC000224653468C4652F8047B19681FFA87FE3F0C0EFB086E07FB08F606EB1E461FFA8EFECEEB000E8FB2B0B27744C0EB114000EB2740BFB247EA0047914543F8047B6B
:402B00004FEA20404FEA1646DDD2009A61465AF8023093B9019A131F9A450CD252F8043C4BB9A2F1080302E01A68043B1AB99A4505F1FF35F8D3CBF81050584601F07AFC7F
:402B400000282EDB08F101085346002254F8046B1868B1B2511A87B2360C3944C6EB104000EB214289B241EA0241A14543F8041B4FEA2242EAD25AF825200AEB850382B986
:402B80001A1F92450BD253F8042C42B9083B02E01A68043B1AB99A4505F1FF35F8D3CBF81050404603B0BDE8F08F002003B0BDE8F08F00BF000000002DE9F04F016C9BB0E2
:402BC000044692469B46279D41B1436C01229A404B608A6001F038FA00232364BBF1000FD94633DB00232B60A54B1A4609EA0303934214D0504659460022002302F0E0FD2D
:402C0000804648B3269E289D01233360002D00F0CA809C48286001381BB0BDE8F08F269D42F20F732B60BAF1000F00F0A5809648289E002EF0D0C378002B00F0B68000F1B6
:402C40000803289D2B601BB0BDE8F08F01232BF000492B60CB46C7E719AA18AB8DE80C00204652465B4601F075FC5FEA19550A9040F08B80189F199D6FF482633D449D428F
:402C8000C0F295821F3305F212425B1B09FA03F32AFA02F243EA020002F0B4FA0126013DB846A1F1F87116960022784B02F06CF96DA3D3E9002302F01BFB6DA3D3E900232C
:402CC00002F064F9064628460F4602F0ABFA6AA3D3E9002302F00CFB02460B463046394602F054F906460F4602F09CFD3946079000223046002302F06DFD002840F02982D1
:402D0000079E162E00F222826149524601EBC6015B46D1E9000102F07BFD002800F04C82013E079600260E96C5EB0805013D069500F1268200250895079E002EC0F21782BE
:402D4000069D0D963544002606950C96249D092D2DD8052DC4BF043D2495249EC8BF0025A6F10203D8BF0125032B22D8DFE813F0B7039E02C0039A04464A434BC9F3130025
:402D800000280CBF1046184652E7CBF3130343F07F51CDF858805046A5F2FF3541F44011DDF8608080E73C4836E7C31C49E700252495002565642946204601F01FF94FF023
:402DC000FF390126099025952064CDF83C900B96199B002BC0F2D280079E0E2E00F3CE802B4B03EBC603D3E90001CDE9040125990029C0F28083DDE904235946504602F011
:402E0000A1FB02F00FFD054602F00CFADDE9042302F06EFA02460B465046594602F0B4F8099A05F13003B9F1010F06460F46137002F1010B64D00022184B02F059FA002239
:402E4000002306460F4602F0BBFC002840F08180DDF82480099DC844DDE904AB05F10209039428E0AFF3008061436F63A787D23FB3C8608B288AC63FFB799F501344D33F8C
:402E80000000F07F91640000B06400000000F83FC0640000A4640000906400000000244002F026FA0022002306460F4602F088FC002840F0C18352465B463046394602F0B5
:402EC00041FB02F0AFFC054602F0ACF952465B4602F00EFA02460B463046394602F054F805F1300EC14509F801EC4C4606460F464FF00002A74B09F10109D1D1A346039C5C
:402F000032463B463046394602F040F806460F463246DDE904013B4602F05CFC40B9DDE9040132463B4602F04BFC90B1EB0710D51BF8015C099A05E09A4200F0298413F840
:402F4000015C9B46392D0BF1FF33F5D06A1CD2B21A7020460A9901F077F8079E269D731C289E00228BF800202B60002E00F025830998C6F800B01BB0BDE8F08F0B9D002D17
:402F800000F00381249E012E40F3DC820C9E09F1FF37BE42C0F28983F71BB9F1000FC0F28784089D4B46089E20461E440896069E01211E44069601F0E9F8064665B1069823
:402FC000002809DD03460899AB42A8BF2B46C91AC01A0891ED1A06900C9A002A1DDD0B9B002B00F05883002F11DD31463A46204601F074F9064631460A9A204601F0D0F85D
:403000000A998046204601F01FF8CDF82880DDF830E0BEEB070240F08F822046012101F0B5F880460D98002805DD414620460D9A01F054F980462499012940F3C1820027BD
:403040000D98002840F0AF820120069B034413F01F0300F0A180C3F12002042A40F3B7840899069AC3F11C0319441A4408911D4406920899002905DD0A99089A204601F0C8
:403080007BF90A90069A002A04DD4146204601F073F980460E9B002B40F06A82B9F1000F40F3A6820B98002840F088800B9D0A9FDDF824B006E0394620460A22002300F03C
:4030C000CDFF074638464146FFF7DAFC30300BF805000135A945EEDCDDF824B082460A97B9F1010FACBFCB440BF1010B00250A990122204601F040F941460A9001F09AF922
:40310000002840F309831BF8012C099905E0994200F08B8213F8012C9B46392A0BF1FF33F5D001321A704146204600F08DFF002E3FF40FAF2DB1B54203D02946204600F0E8
:4031400083FF3146204600F07FFF02E701260E96EAE5079802F066F832463B4602F030FB00287FF4CDAD079E013E0796C8E5079E089DAD1B0895754200260C950D96E5E51D
:403180006D42002608950696D6E50C9F089D0B9E14E700BF000024401C23DDF820E006989E441844CDF820E01D44069061E7A748401B0AFA00F06FE50E90B5E5002D05DD62
:4031C00031462A46204601F0D7F80646002F40F0E9823746099D09984D4408950AF001050B95DDF82890451C0AE000F037FF394606460A222046002300F030FF07460135FA
:4032000041464846FFF73CFC31468346484601F011F9414603903A46204601F02FF9C268691E03460BF1300A0691002A40F0938119464846029301F0FDF8029B0246194688
:403240002046029200F000FF029A2AB9249B1BB90B98002800F09383039B002BC0F2348205D1249818B90B99002900F02D82002A00F3AC82DDF820E005F801AC7545AB460D
:4032800000F0B48249460A220023204600F0E6FEBE428146314620464FF00A024FF00003A3D100F0DBFE06460746A8E700260B96079EDDF894E0B6440EF10109B9F1000FC9
:4032C000CDF83CE04E4640F350810021172E61640AD9012204235B0003F11400B042114602F10102F7D96164204600F087FE0E2E099020643FF66CAD002D3FF469AD079D2A
:40330000CDE912AB002D40F31C82514B05F00F0203EBC2032D11D3E90067EB0640F1CD814C4B50465946D3E9082302F00BF9CDE9100105F00F054FF003088DB1DFF814A169
:4033400030463946EE0705D5DAE9002308F1010801F0CEFF6D100AF1080AF3D106460F46DDE9100132463B4602F0ECF882468B460E9D45B1504659460022374B02F02AFA25
:40338000002840F0AA82404601F04CFF52465B4601F0AEFF0022314B01F0F8FD0646A1F15077B9F1000F00F05A81079DC84617950B9D002D00F02382254B002003EBC80332
:4033C00053E90223264902F0BDF832463B4601F0DBFDCDE910015946504602F023FA054601F020FF02460B465046594601F0CCFD3035099ECDE90401DDE90423DDE910011B
:40340000EDB2357006F1010B02F002FA002840F0AB82DDE9042300200F4901F0B5FD02460B46DDE9100102F0F3F9002840F0A282B8F1010F40F38181B044CDF85090A24691
:40344000C146DDE90467DDE9104519E0EEFBFFFFC0640000886500000000F03F00001C400000E03F0020A84901F08EFD22462B4602F0B0F9002840F07B82CB4500F05A812D
:40348000204629460022A14B01F032FF00229F4B04460D463046394601F02AFF0F46064602F0C0F9804601F0BDFE02460B463046394601F069FD08F130085FFA88F822463A
:4034C0002B460BF8018B06460F4602F083F932463B460028C6D0179E5446079639E500260B96259800283CDD06460F908146ECE601260B96F5E7B9F1000F3FF77CAC40F0C8
:40350000C680DDE904010022814B01F0F1FE52465B4602F073F9C8464E4600287CD0259DDDF824B0ED4307954146204600F08CFD002E7FF406AE0CE50A99204600F0CEFE57
:403540000A906AE5169D002D00F0B88103F233430C9F089D27E50146204600F075FD01227AE6012625960F96B14600216164BBE60A98414600F05EFF0028BFF68FADDDF897
:403580001CE00A990EF1FF3E20460A220023CDF81CE000F063FD0A900B98002840F00982DDF83C907AE5D8F8103008EB8303186900F09EFDC0F1200047E50998FFF72CBB3A
:4035C000BAF1000F7FF43BADCBF31303002B40F07C812BF000473F0D3F05002F3FF430AD089A069B0132013308920693012727E5249902297FF756ADB9F1000F8FD1414647
:403600004B460522204600F029FD804641460A9800F010FF002882DD079D312301350795099D2B7005F1010B7EE7079809993123013007900B7076E5A346039C89E44046C1
:4036400001F0F0FD02460B465046594601F050FE0022304B01F09AFC0646A1F150775046594600222A4B01F08FFC32463B4682468B4602F0CDF8002840F0BD80324607F100
:4036800000435046594602F0A5F8002855D04FF00008464643E70A990C9A204600F01EFE0A90BAE401260B9602E60C9D0D9E7B1B1E440C970D9600276FE4DDE912014FF0F2
:4036C0000208CDE9100138E6002ACDF82890D94611DD0A990122204600F04EFE41460A9000F0A8FE002840F35D81BAF1390F00F01B8109F1310A069B354683F800A003F1F0
:40370000010B3E460FE500BF0000F03F000024400000144000001C4003D11AF0010F7FF4F2AC5B4613F8012C9B46302A03F1FF33F8D0F8E4DDF850905446DDE912ABFFF75E
:4037400047BB079E7542002D00F0C280A34B05F00F0203EBC203D3E90023DDE9120101F0C7FD2D1182468B4600F02E819C4E4FF00208EA0705D5D6E9002308F1010801F02F
:40378000B7FD6D1006F10806F3D182468B46EFE5079E099D30222A700136312207961A70FFF7D7BB7168204600F028FC336905469A1C920006F10C010C30FDF7CBFD20464E
:4037C0002946012200F0D8FD074603E5BAF1390FCDF8289000F0A880069D0AF101032B703546069E06F1010B3E469CE43546CDF828903E467BE44FF0000846460CE77749F1
:4038000008F1FF3501EBC50132463B46D1E90001109501F06DFDCDE914015946504602F001F8054601F0FEFC02460B465046594601F0AAFBDDF824E03035B8F1010F06462D
:403840000F468EF800500EF1010B1ED0099D6B1E03EB080A0022634B01F04AFD0F46064601F0E0FF804601F0DDFC08F1300802460B463046394601F087FB05F8018F554593
:40388000E8D1109D06460F46AB440022564BDDE9140101F07BFB32463B4601F09BFF00284DD0179E099A07961BF8015CFFF74ABB089E0023C9EB0605FFF775BB189B0C9FD8
:4038C000C3F13603089DFFF76EBB5746FFF7B8BBDDE912AB4FF002084AE5B9F1000F3FF4AEAE0F9E002E7FF728AF00223D4B5046594601F0FDFC824608F101008B4601F059
:4039000091FC02460B465046594601F0F1FC0022364B01F03BFB079D0646013DA1F150771795DDF83C8043E53546069B069E3922327003F1010B3E460999FFF7EEBBDDE950
:4039400014230020284901F01FFB32463B4601F05FFF00283FF4F1AE5B4613F8012C9B46302A03F1FF33F8D0179D0795FFF7F1BA45465446179E099A0796FFF7E3BABAF1E7
:40398000390FCDF82890CFD0039B3546002B069EC8BF0BF1310A86F800A006F1010B3E46FFF7C1BB7FF4A7AE1AF0010F3FF4A3AE9BE6314620460A220023DDF83C9000F042
:4039C0004DFB0646FFF76ABB4FF00208D0E43FF450ABC3F13C03FFF7E0BB00BFC064000088650000000024400000E03F00001C4038B5094D094C641BA41018BF05EB84059F
:403A000005D0013C55F8043D9847002CF9D1BDE8384002F0DFBD00BFE0650000E4650000004870474C85FF1F2DE9F04F01F10B05162D83B0064627D935F0070527D4A942FB
:403A400025D8304600F0D6FAB5F5FC7F26D2C14F4FEAD50C07EBCC03DC689C4200F0D2816368E26823F0030323445868A16840F00105CA60304691605D6000F0BDFA0834E1
:403A8000204603B0BDE8F08F1025A942D9D900240C232046336003B0BDE8F08F5FEA552C00F08980BCF1040F00F260814FEA951C0CF1380C4FEA4C01A64F07EB8101CC6830
:403AC000A14205D10CE0002B79DAE468A14207D0626822F00302531B0F2BF4DD0CF1FF3C0CF1010C9B4B3C6903F1080E744500F07E81616821F003014A1B0F2A00F3648170
:403B0000002AC3F814E0C3F810E069DAB1F5007F80F03A81C9088A104FF0010808FA02F803EBC1015A68886848EA0202A060E1605A608C60C4604FEAAC0301209840904269
:403B40005BD8024206D12CF0030C400002420CF1040CFAD007EBCC084446E146E3689C4207D146E1002A80F25781DB689C4200F04081596821F003014A1B0F2AF2DD1C46E7
:403B800054F808CFD96845F0010942F001081D44C3F804903046CCF80C10C1F808C07D613D61C5F80CE0C5F808E0C5F80480AA5000F022FA64E77E214FF03F0C7CE7224452
:403BC0005068E368A16840F00105CB6030469960556000F011FA0834204603B0BDE8F08F21444B68304643F001034B6000F004FA0834204603B0BDE8F08FBC68636823F0E7
:403C00000309A94504D3C5EB09030F2B00F39180514B524A1968136805EB010A013304EB090B00F061810AF5805A0AF10F0A2AF47F6A2AF00F0A30465146019200F010FDBD
:403C4000B0F1FF3F8046019A00F00181834500F2FB80DFF814C1C345DCF800305344CCF8003000F04A8112683C4901321BBFCBEB080B5B44C1F80080CCF8003018F00703AC
:403C800000F01481C3F10802C3F5805390440833C244CAF30B0ACAEB030A51463046CDF804C000F0DDFC431CDDF804C000F03581C8EB0002524442F00102DCF80030BC420E
:403CC0005344C7F80880CCF80030C8F80420DFF898A015D0B9F10F0F40F2EB806168A9F10C0222F0070201F0010142EA010E0520A1180F2AC4F804E04860886000F2118130
:403D0000174ABC6811688B4288BF1360154A11688B4288BF1360626822F003029542C5EB020301D80F2B04DC304600F065F90024A6E645F0010243F00103254462603046BB
:403D4000BD606B6000F058F90834204603B0BDE8F08F00BF8485FF1FD489FF1F9089FF1FD089FF1FCC89FF1FD889FF1FBCF1140F61D9BCF1540F00F28F804FEA153C0CF1FE
:403D80006E0C4FEA4C0197E64B0A042B58D9142B00F2AD8003F15B02500007EB80008368DFF8B881834200F08A805A6822F00302914202D29B689842F7D1D9687A68E1601D
:403DC000A3608C60DC60B6E645F0010742F001012544676030465D611D61C5F80CE0C5F808E06960AA50083400F006F948E65A68A1E609F1010919F0030F04F108047FF463
:403E0000ADAE2DE004F108036469A34208BF0CF1020C3FF467AE23E6194448681C4654F8082FDB6840F001054D603046D3609A6000F0E2F824E60CF15B0C4FEA4C013BE6AB
:403E40008A0938325000A8E7BC423FF402AFBC68626822F0030261E7D8F8008098457AD11CF0030FA8F108030CF1FF3CF4D17B6823EA00037B60400098423FF6BEAE00284F
:403E80003FF4BBAE0342CC467FF464AE400003420CF1040CFAD05DE6BCF5AA7F19D84FEAD53C0CF1770C4FEA4C0105E64FF48053EEE60123C8F80430444600222EE7921080
:403EC00001209040D8F8042019460243C8F8042075E740F254539C451BD84FEA954C0CF17C0C4FEA4C01E7E50AF1100AA3E6542B1FD80A0B6E3250004FE7CBF30B01002919
:403F00007FF4B1AE0AEB0901BA6841F001015160F6E6FC214FF07E0CCEE501224FF0000ACBE604F10801304600F0FEFCDAF80030E6E6B3F5AA7F03D8CA0B773250002CE75F
:403F400040F25452934203D88A0C7C32500024E7FC207E2221E77B688DE700BF8485FF1F830770B4C9B240D0541E2AB303788B4223D0431C04E0FCB1057814468D421CD0D4
:403F800013F0030F184604F1FF3203F10103F2D1032C14D8651E54B303788B420DD0421C002302E004788C4207D0AB42104603F1010302F10102F5D1002070BC704741EA3A
:403FC0000126034646EA06461A6818467240A2F1013525EA020212F0803F03F10403D9D1043C032C1846EFD8D4E71446D0E72046E3E700BF704700BF704700BFC26C70B573
:4040000005460C464AB152F8240080B1016842F8241000220261C26070BD2122042100F005FCE86402460028EDD1002070BD012101FA04F6721D2846920000F0F7FB0028CE
:40404000F3D044608660E4E731B1C36C4A6853F82200086043F82210704700BF2DE9F0430F6983B08846814601F1140500242E680134B1B2360C02FB013302FB06F699B210
:4040800006EB134301EB0341A74245F8041B4FEA1343ECDC4BB1D8F80820974209DA08EB870201375361C8F81070404603B0BDE8F083D8F80410484601310193FFF79EFF79
:4040C000D8F8102008F10C010232044692000C30FDF740F9D9F84C20D8F80410019B52F82100C8F8000042F82180A046D7E700BF030C1B04B3B90004102310F07F4F04BFB9
:404100000002083310F0704F04BF0001043310F0404F04BF80000233002807DB420003D4202070470023E8E7581C704718467047036813F0070207D0D90720D49A0720D47E
:404140009B0803600220704799B209B91B0C102213F0FF0F04BF1B0A0832190704BF1B090432990704BF9B080232D90704D45B0801D12020704701320360104670470020A9
:4041800070475B0803600120704700BF10B50C460121FFF733FF01224461026110BD00BF2DE9F04F0D69D2F8109085B04D450C46924604DA2A4654464D468A469146A36880
:4041C00005EB090761689F42C8BF0131FFF716FF00F1140606EB87084645019005D23346002043F8040B9845FBD80AF1140C0CEB89091434CC45009404EB85055BD2CDF844
:4042000008800397C8465CF8043B9CB224B3009A33464FF0000900E00B4652F8047B19681FFA87FB1FFA81FA380C090C04FB0BAA04FB0010D14400EB19401FFA89F949EA4E
:404240000047194695424FEA104941F8047BE3D8C3F804905CF8043C5FEA134924D0D6F800A0009B504631464FF0000B00E011461A88000C09FB02001FFA8AFA83444AEA5D
:404280000B400A4642F8040B53F8047B48684FEA174A84B209FB0A4A9D420AEB1B4A4FEA1A4BE4D8C1F804A0E04506F10406AAD8DDF80880039F002F0ADD58F8043CA8F1A2
:4042C00004081BB104E058F8043D0BB9013FFAD1019B18461F6105B0BDE8F08F12F003032DE9F041144607460E462CD1A4101CD0BD6C002D30D04FF0000804E0641014D08F
:404300002868A8B10546E307F8D5384631462A46FFF746FFAEB17268FB6C641053F82210316043F822600646EAD13046BDE8F081384629462A46FFF733FF2860C0F800803B
:40434000E0E70646DAE70B4A013B52F823200023FFF784FE0646C9E701213846FFF74EFE40F2712101220023416102610546B8640360C0E7B06500002DE9F84F0B694FEA33
:40438000621A0AEB03098B6809F101069E420F4693468046496804DD5B009E4201F10101FADC4046FFF72AFEBAF1000F00F1140409DD00231A4625460133534545F8042BAE
:4043C000FAD104EB83043A6907F114031BF01F0B03EB820C21D0CBF1200A002200E02C461968254601FA0BF10A4345F8042B53F8042B634522FA0AF2F1D362600AB109F1BD
:404400000206D8F84C307A68013E53F822100661396043F82270BDE8F88F53F8042B9C4544F8042BEDD953F8042B9C4544F8042BF3D8E6E702690B6910B4D21A15D19B0097
:40444000143014311944034401E0984211D253F8042D51F8044DA242F7D0944294BF01204FF0FF305DF8044B704710465DF8044B704700205DF8044B704700BF2DE9F04765
:404480000D460446114628461646FFF7D3FF071E56D04FDB4FF0000969682046FFF7AEFD2F69326914351436C0F80C9000F1140305EB870C06EB8208002155F8044B56F8B6
:4044C000042B1FFA84FA8A441FFA82F9110CC1EB1441C9EB0A0201EB224192B242EA0142B04543F8042B4FEA21412C46E5D8AC45984615D954F8046BB2B21144360C06EB27
:40450000214689B241EA0642A44543F8042B4FEA2641EFD8EB43634423F0030304334344043B22B953F8042D013F002AFAD00761BDE8F0872B464FF0010935461E46ABE787
:4045400020463946FFF75AFD012347610361BDE8F08700BF2DE9F043012183B01D46C3F30A5614460A9FFFF749FDC5F3130380460EB143F48013019324B302A840F8084DE9
:404580006846FFF7D5FD002835D19DE80C00C8F81420002B0CBF01240224C8F81830C8F81040DEB908EB8403A0F2324038601869FFF79EFD0B9BC0EB44101860404603B064
:4045C000BDE8F08301A8FFF7B3FD019B01242030C8F81430C8F81040002EE3D0A6F2334909EB00033B600B9BC0F135001860404603B0BDE8F083019BC0F1200103FA01F1F6
:40460000C340009A01930A43C8F81420C1E700BF31F0004310B408D00F4AA3F5801494420AD804205DF8044B704700280CBF022003205DF8044B7047B3F5801F01D2032015
:40464000F7E7064A934201D00020F2E7D0F1010038BF0020EDE700BFFFFFDF7F0000F07F38B5074C002305460846236000F06EFC431C00D038BD2368002BFBD02B6038BD38
:40468000088DFF1F2DE9F04F946883B0924680460D461668002C6FD04FF0000B08688B685C46002C43D09C421F4645D3AB8913F4906F44D06F69296907EB470707EBD777C8
:4046C000C1EB0009621C7F104A44974234BF17463A465B0535D511464046FFF7A5F9002839D029694A460190FCF734FEAA89019B22F4906242F08002AA81C9EB070203EB7C
:4047000009006F612B612860AA602746A1464A46594600F0D5F9DAF80820AB682868DB1B4844141BAB602860CAF8084024B3D6F800B074680836B4E72746A146E7E7B9462B
:40474000E5E7404600F022FA03460028D5D14046296900F0E9F8AA890C23C8F8003042F0400200234FF0FF30AA81CAF80830CAF8043003B0BDE8F08F2046CAF8044003B073
:40478000BDE8F08FF0B5274C85B026680746D6F84841002C40D065681F2D1EDD224818B94FF0FF3005B0F0BD4FF4C870039102920193AFF3008003990446029A019B00285C
:4047C000EED0D6F848510020256060600546C6F84841C4F88801C4F88C013FB96B1C00200235636044F8251005B0F0BD0126AE4004EB8500C0F88820D4F88821022F42EAE8
:404800000602C4F88821C0F80831E7D1D4F88C311E43C4F88C61E1E706F5A674C6F84841B9E700BF3C6400000000000010B502FB01F1FFF7F9F8044668B150F8042C22F024
:404840000302043A242A18D8132A06D8034600221A605A609A60204610BD00231B2A036043600FD9242A8360C36005BF0361436100F1100300F11803E9E70021FCF7E0FD89
:40488000204610BD00F10803E1E700BFF8B5234D0F460446FFF7AEFBAB685E6826F00306F11B01F6EF7121F47F6121F00F01A1F58057B7F5805F07DB20460021FFF7D0FE51
:4048C000AB683344984204D02046FFF795FB0020F8BD20467942FFF7C3FE01300DD0104BAA681968F61B46F001062046C91B56601960FFF781FB0120F8BD20460021FFF75F
:40490000AFFEAB68C21A0F2ADEDD064D04492D6842F00102401B5A600860D5E78485FF1FD889FF1F9089FF1F2DE9F0410D460646002955D0FFF75EFB55F8041CDFF870C16F
:40494000A5F1080421F00103E218DCF808005768904227F0030768D011F00101576032D00021D0194068C00706D43B44906800294DD0D268C260906043F001026260E3507D
:40498000E1B9B3F5007F2DD35A0A042A69D89809383041000CEB810CDCF808204449624565D0516821F003018B4202D292689445F7D1D368E360A2609C60D4603046BDE85B
:4049C000F041FFF719BB55F8085C0CF10808641BA0682B44404542D0E568C560A860C0E7BDE8F081DB089A1001209040DCF804100CEBC3039A680143A260E360CCF80410B4
:404A000030469C60D460BDE8F041FFF7F5BA294DA842AED143F00102CCF81440CCF81040E060A0606260E350C8E71F44CB0707D455F8081C641AE368A2680F44D3609A605C
:404A40001D4B47F001021B6862609F42CCF80840B4D31A4B30461968FFF718FFAEE701217FE7142A0BD802F15B00410092E780100125854048681346284348609AE7542A96
:404A800003D8180B6E30410084E7B2F5AA7F03D8D80B773041007DE740F254518A4203D8980C7C30410075E7FC217E2072E700BF8485FF1F8C85FF1F8C89FF1FD489FF1F92
:404AC0008842F0B410D98C18A0420DD28518531E42B121462A4611F8014D013B02F8014D5C1CF8D1F0BC70470F2A44D940EA01039B0744D1A2F110073F0900EB0716103628
:404B00000C4603462568103343F8105C6568103443F80C5C54F8085C43F8085C54F8045C43F8045CB342EDD17B1C02F00F0C1B01BCF1030F1944034423D90E461D466446E6
:404B400056F8047B043C032C45F8047BF8D8ACF1040424F00304043402F0030223442144002ABFD01A4411F8014B03F8014B9342F9D1F0BC70470346002AF3D1B2E70346E4
:404B8000F0E76246002AEDD1ACE700BF2DE9F04F0C4683B090468146002900F0BA80FFF729FA08F10B0654F8043C162E23F00305A4F108074BD810210E46B0454CD88D4230
:404BC00051DADFF884B37819DBF808E0864500F0A680426822F0010C8444DCF804C01CF0010F54D000221046DB076FD454F8083CC3EB070ADAF8043023F003032B44002844
:404C000062D0704500F0E98002EB030E8E455BDBC3688268D046D3609A6058F8081FDAF80C302A1F242ACB60996000F22381132A40F2B08023681B2ACAF808306368CAF809
:404C40000C3000F22B8108340AF11003A3E026F00706002E3146B0DA0C230020C9F8003003B0BDE8F08FA046AA1B0F2A03F001031AD82B437B603D446B6843F001036B60B8
:404C80004846FFF7B9F9404603B0BDE8F08F22F0030202EB050C8C45A6DBC2688168A046CA6065469160DFE7B919334342F001007B600A4448605368083143F0010353604B
:404CC0004846FFF731FEDBE78B4233DA41464846FEF7AAFE80460028D2D054F8043CA0F1080123F001023A44914200F0BC802A1F242A6ED8132A42D8034622461168196093
:404D00005168596092689A6021464846FFF70CFEB6E7114603B0BDE8F04FFEF785BEDEF8042006F1100C22F00302501960453DDA704659E7D04658F8080FDAF80C102A1F62
:404D4000242AC160886000F2A080132A40F29B8021681B2ACAF808106168CAF80C1000F2B28008340AF1100221681D461160616857465160A3689360DAF8043074E7236826
:404D80001B2A03606368436062D800F1080304F10802B3E74346226875461A60626857465A60A2689A60DAF804305DE7831B374443F00103CBF808707B6054F8043C4846D7
:404DC00003F001031E4344F8046CFFF715F920465AE72146FFF774FE96E702EB030C06F110029445FFF670AF574657F8081FDAF80C302A1F242ACB60996000F28680132AB5
:404E000077D923681B2ACAF808306368CAF80C3000F2848008340AF1100322681A6062685A60A2689A60C6EB0C020AEB060342F00102CBF808305A60DAF80430484603F095
:404E400001031E43CAF80460FFF7D6F838461BE7A368242A8360E368C3602BD000F1100304F110024AE750F8042CA04622F003021544F9E62146404675465746FFF720FE7C
:404E8000DAF80430F0E642466EE7214640461D465746FFF715FEDAF80430E5E6A368242ACAF81030E368CAF8143018D010340AF1180370E7226900F118030261616904F174
:404EC000180241611AE7A168242ACAF81010E168CAF814100FD010340AF1180244E722690AF12003CAF8182062691834CAF81C2051E73B4691E721690AF12002CAF81810B0
:404F000061691834CAF81C102EE721463846CDF804C0FFF7D5FDDDF804C084E7A368242ACAF81030E368CAF8143003D010340AF1180372E722690AF12003CAF8182062697E
:404F40001834CAF81C2068E78485FF1F094A136863B118446946884202D8106018467047054B0C221A604FF0FF307047034B1360EFE700BF008AFF1F088DFF1F108DFF1FD2
:404F800081F0004102E000BF83F0004330B54FEA41044FEA430594EA050F08BF90EA020F1FBF54EA000C55EA020C7FEA645C7FEA655C00F0E2804FEA5454D4EB5555B8BF45
:404FC0006D420CDD2C4480EA020281EA030382EA000083EA010180EA020281EA0303362D88BF30BD11F0004F4FEA01314FF4801C4CEA113102D0404261EB410113F0004F33
:405000004FEA03334CEA133302D0524263EB430394EA050F00F0A780A4F10104D5F1200E0DDB02FA0EFC22FA05F2801841F1000103FA0EF2801843FA05F359410EE0A5F1A0
:4050400020050EF1200E012A03FA0EFC28BF4CF0020C43FA05F3C01851EBE37101F0004507D54FF0000EDCF1000C7EEB00006EEB0101B1F5801F1BD3B1F5001F0CD34908BA
:405080005FEA30004FEA3C0C04F101044FEA445212F5800F80F09A80BCF1004F08BF5FEA500C50F1000041EB045141EA050130BD5FEA4C0C404141EB010111F4801FA4F13C
:4050C0000104E9D191F0000F04BF01460020B1FA81F308BF2033A3F10B03B3F120020CDA0C3208DD02F1140CC2F10C0201FA0CF021FA02F10CE002F11402D8BFC2F1200C49
:4051000001FA02F120FA0CFCDCBF41EA0C019040E41AA2BF01EB0451294330BD6FEA04041F3C1CDA0C340EDC04F11404C4F1200220FA04F001FA02F340EA030021FA04F3C6
:4051400045EA030130BDC4F10C04C4F1200220FA02F001FA04F340EA0300294630BD21FA04F0294630BD94F0000F83F4801306BF81F480110134013D4EE77FEA645C18BF71
:405180007FEA655C29D094EA050F08BF90EA020F05D054EA000C04BF1946104630BD91EA030F1EBF0021002030BD5FEA545C05D14000494128BF41F0004130BD14F5800460
:4051C0003CBF01F5801130BD01F0004545F0FE4141F470014FF0000030BD7FEA645C1ABF194610467FEA655C1CBF0B46024650EA013406BF52EA033591EA030F41F40021E4
:4052000030BD00BF90F0000F04BF0021704730B54FF4806404F132044FF000054FF0000150E700BF90F0000F04BF0021704730B54FF4806404F1320410F0004548BF4042B8
:405240004FF000013EE700BF42004FEAE2014FEA31014FEA02701FBF12F07F4393F07F4F81F06051704792F0000F14BF93F07F4F704730B54FF4607401F0004521F00041DA
:4052800020E700BF50EA010208BF704730B54FF000050AE050EA010208BF704730B511F0004502D5404261EB41014FF4806404F132045FEA915C3FF4DCAE4FF003025FEABB
:4052C000DC0C18BF03325FEADC0C18BF033202EBDC02C2F1200300FA03FC20FA02F001FA03FE40EA0E0021FA02F11444C1E600BF70B54FF0FF0C4CF4E06C1CEA11541DBF95
:405300001CEA135594EA0C0F95EA0C0F00F0DEF82C4481EA030621EA4C5123EA4C5350EA013518BF52EA033541F4801143F4801338D0A0FB02CE4FF00005E1FB02E506F013
:405340000042E0FB03E54FF00006E1FB03569CF0000F18BF4EF0010EA4F1FF04B6F5007F64F5407404D25FEA4E0E6D4146EB060642EAC62141EA55514FEAC52040EA5E50E0
:405380004FEACE2EB4F1FD0C88BFBCF5E06F1ED8BEF1004F08BF5FEA500E50F1000041EB045170BD06F0004646EA010140EA020081EA0301B4EB5C04C2BFD4EB0C0541EAEE
:4053C000045170BD41F480114FF0000E013C00F3AB8014F1360FDEBF002001F0004170BDC4F10004203C35DA0C341BDC04F11404C4F1200500FA05F320FA04F001FA05F223
:4054000040EA020001F0004221F0004110EBD37021FA04F642EB06015EEA430E08BF20EAD37070BDC4F10C04C4F1200500FA04F320FA05F001FA04F240EA020001F000416C
:4054400010EBD37041F100015EEA430E08BF20EAD37070BDC4F1200500FA05F24EEA020E20FA04F301FA05F243EA020321FA04F001F0004121FA04F220EA020000EBD3700D
:405480005EEA430E08BF20EAD37070BD94F0000F0FD101F00046400041EB010111F4801F08BF013CF7D041EA060195F0000F18BF704703F00046520043EB030313F4801FD2
:4054C00008BF013DF7D043EA0603704794EA0C0F0CEA135518BF95EA0C0F0CD050EA410618BF52EA4306D1D181EA030101F000414FF0000070BD50EA410606BF1046194628
:4055000052EA430619D094EA0C0F02D150EA013613D195EA0C0F05D152EA03361CBF104619460AD181EA030101F0004141F0FE4141F470014FF0000070BD41F0FE4141F424
:40554000780170BD70B54FF0FF0C4CF4E06C1CEA11541DBF1CEA135594EA0C0F95EA0C0F00F0A7F8A4EB050481EA030E52EA03354FEA013100F088804FEA03334FF08055A5
:4055800045EA131343EA12634FEA022245EA111545EA10654FEA00260EF000419D4208BF964244F1FD0404F5407402D25B084FEA3202B61A65EB03055B084FEA32024FF4C0
:4055C00080104FF4002CB6EB020E75EB030E22BFB61A754640EA0C005B084FEA3202B6EB020E75EB030E22BFB61A754640EA5C005B084FEA3202B6EB020E75EB030E22BF31
:40560000B61A754640EA9C005B084FEA3202B6EB020E75EB030E22BFB61A754640EADC0055EA060E18D04FEA051545EA16754FEA06164FEAC30343EA52734FEAC2025FEAE1
:405640001C1CC0D111F4801F0BD141EA00014FF000004FF0004CB6E711F4801F04BF01430020B4F1FD0C88BFBCF5E06F3FF6AFAEB5EB030C04BFB6EB020C5FEA500C50F1F5
:40568000000041EB045170BD0EF0004E4EEA113114EB5C04C2BFD4EB0C0541EA045170BD41F480114FF0000E013C90E645EA060E8DE60CEA135594EA0C0F08BF95EA0C0F45
:4056C0003FF43BAF94EA0C0F0AD150EA01347FF434AF95EA0C0F7FF425AF104619462CE795EA0C0F06D152EA03353FF4FDAE1046194622E750EA410618BF52EA43067FF4DA
:40570000C5AE50EA41047FF40DAF52EA43057FF4EBAE12E74FF0FF3C06E000BF4FF0010C02E000BF4FF0010C4DF804CD4FEA410C7FEA6C5C4FEA430C18BF7FEA6C5C1BD01F
:4057400001B050EA410C0CBF52EA430C91EA030F02BF90EA020F0020704710F1000F91EA030F58BF994208BF90422CBFD8176FEAE37040F0010070474FEA410C7FEA6C5C9E
:4057800002D150EA013C07D14FEA430C7FEA6C5CD6D152EA033CD3D05DF8040B704700BF8446104662468C461946634600E000BF01B5FFF7B7FF002848BF10F1000F01BDCF
:4057C0004DF808EDFFF7F4FF0CBF012000205DF808FB00BF4DF808EDFFF7EAFF34BF012000205DF808FB00BF4DF808EDFFF7E0FF94BF012000205DF808FB00BF4DF808ED0B
:40580000FFF7CEFF94BF012000205DF808FB00BF4DF808EDFFF7C4FF34BF012000205DF808FB00BF4FEA410212F5001215D211D56FF47873B3EB625212D94FEAC12343F07F
:40584000004343EA505311F0004F23FA02F018BF404270474FF00000704750EA013005D111F0004008BF6FF0004070474FF00000704700BF4BB942B9002908BF002802D073
:405880004FF0FF31084600F03BB882B0EC462DE9005000F01DF8DDF804E002B00CBC70472DE9704F089E14461D468046894600F029F804FB01F3A4FB00AB00FB053293446B
:4058C000B8EB0A0869EB0B09C6E90089BDE8708F2DE9704F089E14461D468046894600F061F900FB05F5A0FB04AB04FB0154A344B8EB0A0869EB0B09C6E90089BDE8708F25
:40590000704700BF00292DE9F00FC0F2A1800024002BC0F29880154606460F46002B3FD18A4258D9B2FA82F34BB1C3F1200201FA03F720FA02F29D4000FA03F61743290C3E
:40594000B7FBF1F201FB1277A8B200FB02F34FEA164C4CEA0747BB4209D97F1902F1FF3C80F00581BB4240F20281023A2F44FF1AB7FBF1F301FB137100FB03F0B6B246EAF3
:405980000141884208D9491903F1FF3780F0F180884240F2EE80023B43EA0242002303E08B420AD900231A461046194614B1404261EB4101BDE8F00F7047B3FA83F8B8F186
:4059C000000F40F088808B4202D3824200F2E28000230122E8E712B90123B3FBF2F5B5FA85F2002A3AD17F1B280C1FFA85FC0123B7FBF0F100FB11770CFB01F24FEA16487F
:405A000048EA0747BA4207D97F1901F1FF3802D2BA4200F2C4804146BF1AB7FBF0F200FB12700CFB02FCB6B246EA0040844507D9401902F1FF3702D2844500F2AE803A468D
:405A400042EA0142B0E7E443524263EB430362E7404261EB41014FF0FF3459E79540C2F1200927FA09F126FA09F99740280CB1FBF0F800FB18111FFA85FC0CFB08F349EA46
:405A800007094FEA194747EA01418B4206FA02F608D9491908F1FF327AD28B4278D9A8F102082944C91AB1FBF0F300FB13170CFB03F21FFA89F949EA0747BA4207D97F19FB
:405AC00003F1FF3160D2BA425ED9023B2F44BF1A43EA08438CE7C8F1200225FA02F103FA08FC27FA02F320FA02F207FA08F741EA0C0C4FEA1C49B3FBF9F109FB11331FFABD
:405B00008CFA0AFB01FB17433A0C42EA03439B4505FA08F008D913EB0C0301F1FF3235D29B4533D902396344CBEB0303B3FBF9F209FB12330AFB02FABFB247EA0347BA4585
:405B400008D917EB0C0702F1FF331BD2BA4519D9023A674442EA0145A5FB0001CAEB07078F424FF000030AD305D02A461CE76246FDE63B4610E706FA08F68642F5D26A1E1F
:405B8000002311E71A46E5E70B46A0E71146CBE7904687E74346424606E7023A50E702392F4439E72DE9F00F144605460E46002B43D18A4253D9B2FA82F757B1C7F12006EA
:405BC00020FA06F601FA07F302FA07F400FA07F51E43210CB6FBF1F201FB1266A0B200FB02F32F0C47EA0646B34209D9361902F1FF3780F0FD80B34240F2FA80023A26449A
:405C0000F61AB6FBF1F301FB136100FB03F0ADB245EA0141884208D9091903F1FF3680F0E980884240F2E680023B43EA0242002310461946BDE8F00F70478B424CD8B3FAE1
:405C400083F6002E4FD18B4202D3824200F2DD80BDE8F00F0023012210461946704712B90124B4FBF2F4B4FA84F2002A40F08280091B260CA7B20123B1FBF6F006FB1011C6
:405C800007FB00F24FEA154C4CEA01418A4207D9091900F1FF3C02D28A4200F2C8806046891AB1FBF6F206FB121107FB02F7ADB245EA0145AF4208D92C1902F1FF3180F090
:405CC0009B80A74240F29880023A42EA004210461946BDE8F00F704700231A4610461946BDE8F00F7047C6F1200522FA05F703FA06F421FA05F301FA06FB20FA05F53C437C
:405D00004FEA1448B3FBF8FC08FB1C331FFA84F909FB0CFA45EA0B0B4FEA1B4545EA03439A4502FA06F204D91B190CF1FF356FD3AC46CAEB0303B3FBF8F508FB153309FBF9
:405D400005F91FFA8BFB4BEA0347B94504D93F1905F1FF3362D31D4645EA0C4CACFB0223C9EB07079F424FF000054AD346D062462B465DE79440C2F1200921FA09FC9140A9
:405D800020FA09F9260CBCFBF6F806FB18CCA7B207FB08F349EA01094FEA194141EA0C4C634500FA02F509D91CEB040C08F1FF323BD2634539D9A8F10208A444C3EB0C0C8E
:405DC000BCFBF6F306FB13C107FB03F21FFA89F949EA01418A4207D9091903F1FF3022D28A4220D9023B2144891A43EA084343E73A4605E7334618E70A4666E7B040904253
:405E0000B5D20CF1FF32002312E7334632460FE79A458DD9ACF1020C23448AE7B9459AD9023D274498E70346DEE79046C6E70238214435E700000000CCFAFF7F01000000B7
:405E400041542B43574A41503D222573222C222573220D0A0000000041542B43574D4F44453D310D000000004F4B0D0A0000000041542B43495053454E443D302C25640D15
:405E80000A0000003C7469746C653E45535038323636205765627365727665723C2F7469746C653E3C6D65746120687474702D65717569763D2772656672657368272063C7
:405EC0006F6E74656E743D273127203E3C626F6479206267636F6C6F723D27464646464436273E3C48333E4D6963726F205369746520576562205365727665723C2F483344
:405F00003E3C7370616E207374796C653D27636F6C6F723A23303030304646273E0D0A3C703E72656C6F616473203D2025643C2F703E0D0A0000000041542B434950434C07
:405F40004F53453D300D000041542B5253540D0A0000000072656164790000004445564943453A204F4B00004E4F204445564943452121006361726C736F6E0073636F74DD
:405F800074656C6973650000436F6E6E656374656420746F20576946692E2E2E0000000041542B4349504D55583D310D0A00000041542B4349505345525645523D312C384C
:405FC000300D0A0041542B43494653520D0A000043494653520D0D0A0000000049503A2000000000105100401000305100404000C05100401000F051004010000000014099
:40600000001000140140000800400140000A004C014000020050014020000000035200400364004052000140350101405902014042030140550401404A050140010701404D
:40604000010D014003400140094101400342014002430140044501400350014001510140011004041080810F833885760302070208060A180B0112011501161C19011C1229
:406080001F012406260828062A082B012E013101321E340137023A083B083E103F41580459045F018024812082DB84B68514864988B6890C8A498B119003921C930395104F
:4060C000970C98E09A1C9C6D9E92A092A11CA249A302A710A909AB10AC1CAEE3B11FB2FFB520BE04BF10C036C102C5EBC6C0C80BC9FFCAFFCBFFCEF0CF44D00CD401D6043A
:40610000D804D904DA04DB04DF01E6C0EA40EB020304042A08480A800E0A0F40121113201741180419041E1020402208230124802602270828082B0C2E082F8830403124FF
:4061400032803384350436023810390A3A103D213F04453047244D014E044F0456105C505D015F086501C072C2DDC497CAE4CCCECEE7D060D220D6F0D8800001015B0202F5
:406180000324040105380602070708010A020B800D470F3810181124131214081A1C1C031F402001214922022336256D26142712296D2A0C2B12300331C0321C333F3A0897
:4061C000400245104705481249FF4A0F4BFF4C404D204EF04F055008580459045A045F01604061A8624063208080821884088501870288108E0690599204944796189859F5
:406200009A029E01A020A401A85FAC80B01FB102B220B301B420B6C0B880BA02BE10BF04D418D604D804D904DB04DF0100280382042A09280A420C080E820F0810821104BC
:406240001208172518021A481B841E201F022201231024102505260427402E042F88374139043D093E103F4047104C80540856085A015E205F206084630180808B1090842C
:4062800092109301942A950A9688974099049B049E099F61A208A685A704B501C07FC2FFC47FCAE0CC90CEF2D020D601D80DEE40030C0501080209040A100E0310081207D2
:4062C0001333140F15081808190F1A071B301D032003213F22202533270C280F29022C012D2C2E102F133004312C3208330F3430351C360338023B283E14403441064205A0
:40630000440247EC483049FF4AFF4BFF4C624DA04EF04F41500C580459045A045F016640670269106A306B106D106E106F12871E8C019507970899079B189D119F04A91072
:40634000B001B303B71CB908BB80BE01BF04D602D711D804D904DB04DF010010012003020480080109280A4011021208134018041A911C802129220226C0271028212921EE
:406380002C083120334635043650380239043A103F084024410843024A0A510452015E106C146D016E066F097416761077048101820890929104924093409428950B968578
:4063C00099049B409E019F11A008A101A218A306A416A528A6C1A708AD04AF40C083C20EC40BCA2FCC7FCE47D007D20CD620AC40E48033483580CC700120620283489F401B
:40640000A708B580C040D840E680A602AD20EC40AE02EA405D018901D601E401000108010A01003F8C0004FBF30010000000000000FFFF0080000000430000002081FF1F79
:4064400030303030303030303030303030303030494E4600696E66004E414E006E616E00303132333435363738394142434445460000000030313233343536373839616276
:406480006364656600000000286E756C6C2900003000000020202020202020202020202020202020496E66696E697479000000004E614E00504F5349580000002E00000006
:4064C000000000000000F03F000000000000244000000000000059400000000000408F40000000000088C34000000000006AF8400000000080842E4100000000D01263413B
:406500000000000084D797410000000065CDCD41000000205FA00242000000E876483742000000A2941A6D42000040E59C30A2420000901EC4BCD64200003426F56B0C4343
:406540000080E03779C3414300A0D8855734764300C84E676DC1AB43003D9160E458E143408CB5781DAF154450EFE2D6E41A4B4492D54D06CFF08044F64AE1C7022DB5446D
:40658000B49DD9794378EA440080E03779C34143176E05B5B5B89346F5F93FE9034F384D321D30F94877825A3CBF737FDD4F157505000000190000007D000000F8B500BFC9
:4065C000F8BC08BC9E467047612A00004D00000021040000F8B500BFF8BC08BC9E46704729000000F86500000881FF1F9008000078030000000000000000000000366E0127
:40660000C05D0000180000000000E02E00000000000000000C84FF1F7484FF1FDC84FF1F0000000000000000000000000000000000000000000000000000000000000000D5
:40664000000000003864000000000000000000000000000000000000000000000000000000000000000000000000000000000000000000000000000000000000000000007E
:4066800000000000000000000000000000000000000000000000000000000000000000000000000000000000000000000000000000000000000000000100000000000000D9
:4066C0000E33CDAB34126DE6ECDE05000B0000000000000000000000000000000000000000000000000000000000000000000000000000000000000000000000000000006E
:406700000000000000000000000000000000000000000000000000000000000000000000000000000000000000000000000000000000000000000000000000000000000059
:406740000000000000000000000000000000000000000000000000000000000000000000000000000000000000000000000000000000000000000000000000000000000019
:4067800000000000000000000000000000000000000000000000000000000000000000000000000000000000000000000000000000000000000000000000000000000000D9
:4067C0000000000000000000000000000000000000000000000000000000000000000000000000000000000000000000000000000000000000000000000000000000000099
:406800000000000000000000000000000000000000000000000000000000000000000000000000000000000000000000000000000000000000000000000000000000000058
:406840000000000000000000000000000000000000000000000000000000000000000000000000000000000000000000000000000000000000000000000000000000000018
:4068800000000000000000000000000000000000000000000000000000000000000000000000000000000000000000000000000000000000000000000000000000000000D8
:4068C0000000000000000000000000000000000000000000000000000000000000000000000000000000000000000000000000000000000000000000000000000000000098
:406900000000000000000000000000000000000000000000000000000000000000000000000000000000000000000000000000000000000000000000000000000000000057
:406940000000000000000000000000000000000000000000000000000000000000000000000000000000000000000000000000000000000000000000000000000000000017
:4069800000000000000000000000000000000000000000000000000000000000000000000000000000000000000000000000000000000000000000000000000000000000D7
:4069C0000000000000000000000000000000000000000000000000000000000000000000000000000000000000000000000000000000000000000000000000000000000097
:406A000000000000000000000000000000000000000000000000000000000000000000000000000000000000000000000000000000000000000000002081FF1FBC64000077
:406A4000706400007064000070640000706400007064000070640000706400007064000070640000FFFFFFFFFFFFFFFFFFFFFFFFFFFF000000000000000000008485FF1F89
:406A80008485FF1F8C85FF1F8C85FF1F9485FF1F9485FF1F9C85FF1F9C85FF1FA485FF1FA485FF1FAC85FF1FAC85FF1FB485FF1FB485FF1FBC85FF1FBC85FF1FC485FF1F66
:406AC000C485FF1FCC85FF1FCC85FF1FD485FF1FD485FF1FDC85FF1FDC85FF1FE485FF1FE485FF1FEC85FF1FEC85FF1FF485FF1FF485FF1FFC85FF1FFC85FF1F0486FF1F25
:406B00000486FF1F0C86FF1F0C86FF1F1486FF1F1486FF1F1C86FF1F1C86FF1F2486FF1F2486FF1F2C86FF1F2C86FF1F3486FF1F3486FF1F3C86FF1F3C86FF1F4486FF1FD5
:406B40004486FF1F4C86FF1F4C86FF1F5486FF1F5486FF1F5C86FF1F5C86FF1F6486FF1F6486FF1F6C86FF1F6C86FF1F7486FF1F7486FF1F7C86FF1F7C86FF1F8486FF1F95
:406B80008486FF1F8C86FF1F8C86FF1F9486FF1F9486FF1F9C86FF1F9C86FF1FA486FF1FA486FF1FAC86FF1FAC86FF1FB486FF1FB486FF1FBC86FF1FBC86FF1FC486FF1F55
:406BC000C486FF1FCC86FF1FCC86FF1FD486FF1FD486FF1FDC86FF1FDC86FF1FE486FF1FE486FF1FEC86FF1FEC86FF1FF486FF1FF486FF1FFC86FF1FFC86FF1F0487FF1F14
:406C00000487FF1F0C87FF1F0C87FF1F1487FF1F1487FF1F1C87FF1F1C87FF1F2487FF1F2487FF1F2C87FF1F2C87FF1F3487FF1F3487FF1F3C87FF1F3C87FF1F4487FF1FC4
:406C40004487FF1F4C87FF1F4C87FF1F5487FF1F5487FF1F5C87FF1F5C87FF1F6487FF1F6487FF1F6C87FF1F6C87FF1F7487FF1F7487FF1F7C87FF1F7C87FF1F8487FF1F84
:406C80008487FF1F8C87FF1F8C87FF1F9487FF1F9487FF1F9C87FF1F9C87FF1FA487FF1FA487FF1FAC87FF1FAC87FF1FB487FF1FB487FF1FBC87FF1FBC87FF1FC487FF1F44
:406CC000C487FF1FCC87FF1FCC87FF1FD487FF1FD487FF1FDC87FF1FDC87FF1FE487FF1FE487FF1FEC87FF1FEC87FF1FF487FF1FF487FF1FFC87FF1FFC87FF1F0488FF1F03
:406D00000488FF1F0C88FF1F0C88FF1F1488FF1F1488FF1F1C88FF1F1C88FF1F2488FF1F2488FF1F2C88FF1F2C88FF1F3488FF1F3488FF1F3C88FF1F3C88FF1F4488FF1FB3
:406D40004488FF1F4C88FF1F4C88FF1F5488FF1F5488FF1F5C88FF1F5C88FF1F6488FF1F6488FF1F6C88FF1F6C88FF1F7488FF1F7488FF1F7C88FF1F7C88FF1F8488FF1F73
:406D80008488FF1F8C88FF1F8C88FF1F9488FF1F9488FF1F9C88FF1F9C88FF1FA488FF1FA488FF1FAC88FF1FAC88FF1FB488FF1FB488FF1FBC88FF1FBC88FF1FC488FF1F33
:406DC000C488FF1FCC88FF1FCC88FF1FD488FF1FD488FF1FDC88FF1FDC88FF1FE488FF1FE488FF1FEC88FF1FEC88FF1FF488FF1FF488FF1FFC88FF1FFC88FF1F0489FF1FF2
:406E00000489FF1F0C89FF1F0C89FF1F1489FF1F1489FF1F1C89FF1F1C89FF1F2489FF1F2489FF1F2C89FF1F2C89FF1F3489FF1F3489FF1F3C89FF1F3C89FF1F4489FF1FA2
:406E40004489FF1F4C89FF1F4C89FF1F5489FF1F5489FF1F5C89FF1F5C89FF1F6489FF1F6489FF1F6C89FF1F6C89FF1F7489FF1F7489FF1F7C89FF1F7C89FF1F000002008B
:406E8000FFFFFFFF000000000000000000000000000000000000000000000000000000000000000000000000000000000000000000000000000000000000000000000000D6
:406EC0000000000000000000000000000000000000000000000000000000000000000000000000000000000000000000000000000000000000000000000000000000000092
:406F00000000000000000000000000000000000000000000000000000000000000000000000000000000000000000000000000000000000000000000000000000000000051
:406F40000000000000000000000000000000000000000000000000000000000000000000000000000000000000000000000000000000000000000000000000000000000011
:406F800000000000000000000000000000000000000000000000000000000000000000000000000000000000000000000000000000000000000000000000000000000000D1
:0200000480007A
:0200000490006A
:0400000000004005B7
:0200000490105A
:04000000BC90ACAF55
:0200000490303A
:0200000095ED7C
:0200000490402A
:4000000000000000000000000000000000000000000000000000000000000000000000000000000000000000000000000000000000000000000000000000000000000000C0
:400040000000000000000000000000000000000000000000000000000000000000000000000000000000000000000000000000000000000000000000000000000000000080
:400080000000000000000000000000000000000000000000000000000000000000000000000000000000000000000000000000000000000000000000000000000000000040
:4000C0000000000000000000000000000000000000000000000000000000000000000000000000000000000000000000000000000000000000000000000000000000000000
:0200000490501A
:0C00000000012E12306900012E3DC65692
:00000001FF